:100000000C94F2000C941A010C941A010C941A012D
:100010000C941A010C941A010C941A010C941A01F4
:100020000C941A010C941A010C9451040C94C304FE
:100030000C941A010C941A010C941A010C941A01D4
:100040000C941A010C941A010C941A010C941A01C4
:100050000C941A010C941A010C941A010C94E70EDA
:100060000C941A010C941A010C941A010C941A01A4
:100070000C941A010C941A010C941A010C941A0194
:100080000C941A010C941A010C941A010C941A0184
:100090000C9401070C941A010C941A010C941A0187
:1000A0000C941A010C941A010C941A01D703DC0366
:1000B000E103EB03F5033F043F043F04FF0309049E
:1000C00013041D042A043F043204140A170A060A02
:1000D0000A0A100A380A380A380A1B0A1F0A230AB1
:1000E000290A2D0A380A330A080B0002020201000D
:1000F000090400000102020000052400100105248B
:1001000001010104240206052406000107058103FC
:1001100010004009040100020A0000000705020265
:100120004000000705830240000004030904120197
:100130000002EF0201404F1B039200010102030184
:10014000537061726B46756E00537061726B4675C9
:100150006E2050726F204D6963726F0000000000C6
:10016000240027002A002D00300000000000250098
:1001700028002B002E003100000000002300260084
:1001800029002C002F0004040404040304050202C7
:100190000202040302020202060606060606040420
:1001A00002020204040408020110408040102040B2
:1001B000804080080204018040201002011080105D
:1001C000204040200000000200090F00000304014D
:1001D000000C000000000000000000000000000013
:1001E00000008C1511241FBECFEFDAE0DEBFCDBFBB
:1001F00012E0A0E0B1E0E6EFFCE202C005900D9253
:10020000A23BB107D9F724E0A2EBB2E001C01D92F6
:10021000AB34B207E1F710E0C2EFD0E004C02197A1
:10022000FE010E944C16C13FD107C9F70E94660F1C
:100230000C9479160C9400004091F7025091F8024A
:100240002091F5023091F60242175307B4F49091D1
:10025000E8009570E1F39091E80092FD19C0809359
:10026000F1008091F7029091F80201968F7399271F
:10027000892B19F48EEF8093E8008091F70290911A
:10028000F80201969093F8028093F70281E00895B6
:1002900080E00895DF92EF92FF920F931F93CF9328
:1002A000DF93D82E8A017B01E40EF51EEB01CE15FB
:1002B000DF0571F0D7FE03C0FE01849101C0888183
:1002C0000E941C0121968111F2CF8FEF9FEF01C098
:1002D000C801DF91CF911F910F91FF90EF90DF90B8
:1002E0000895615030F02091F100FC0120830196C7
:1002F000F8CF289884E680930B030895CF92DF927D
:10030000EF92FF920F931F93CF93DF936C017A01CB
:100310008B01C0E0D0E0CE15DF0581F0D8016D91F2
:100320008D01D601ED91FC910190F081E02DC60187
:100330000995892B11F02196EECF7E01C701DF913F
:10034000CF911F910F91FF90EF90DF90CF90089584
:10035000CF93DF931F92CDB7DEB76983DC01ED91B8
:10036000FC910280F381E02D41E050E0BE016F5F1F
:100370007F4F09950F90DF91CF91089583E080938F
:10038000E9008091F200882319F08AE38093E80065
:100390000895FC018485958597FD0BC09FB7F8945F
:1003A00082E08093E9008091F2009FBF90E0019687
:1003B00008959FB7F89482E08093E9008091F2005D
:1003C0009FBF90E0089585ED8093BC008091BC00B4
:1003D00084FDFCCF1092550308954091D202262F40
:1003E00030E0240F311D21323105DCF4209155031A
:1003F0002430C9F4FC0180E090E0861758F4309175
:10040000D2022191DC01AE54BD4FA30FB11D2C933C
:100410000196F3CF8091D202680F6093D20280E000
:10042000089581E0089582E008950895089508955B
:10043000E0910E0380910D03E81730F4F0E0E15FE6
:10044000FC4F808190E008958FEF9FEF0895909189
:100450000E0380910D03981750F4E92FF0E0E15F4F
:10046000FC4F208130E09F5F90930E0302C02FEF7E
:100470003FEFC901089580910D0390E020910E0394
:10048000821B91090895CF92DF92EF92FF920F9312
:100490001F93CF93DF937C01CB018A0120915603F8
:1004A000222389F0EB016B01C40ED51ECC15DD05AE
:1004B00069F06991D701ED91FC910190F081E02DF7
:1004C000C7010995F3CF642F0E94ED01C801DF91A8
:1004D000CF911F910F91FF90EF90DF90CF900895F3
:1004E000CF93DF931F92CDB7DEB769832091560378
:1004F0002223D1F020917903203240F021E030E036
:10050000FC013383228380E090E015C08091570383
:10051000E82FF0E0E85AFC4F998190838F5F809339
:1005200057038093790305C061E0CE0101960E94D4
:10053000ED0181E090E00F90DF91CF910895089553
:1005400080E090E008950E9474160F931F93CF935C
:10055000DF931F92CDB7DEB782E0898342E450E09B
:1005600068EE70E080E80E944A010E94D40DDC0130
:1005700012960D911C9113970115110589F0D80160
:10058000ED91FC910280F381E02DBE016F5F7F4F02
:10059000C801099597FD04C0F80100851185ECCFCD
:1005A00089810F90DF91CF911F910F9108958F92C4
:1005B0009F92AF92BF92CF92DF92EF92FF920F93F2
:1005C0001F93CF93DF936C017B018A0180910B0114
:1005D000882309F45CC080910C03882309F457C078
:1005E0008091FB0280FF05C08091E00082608093D3
:1005F000E000E801B12C8AEFA82E93E0892E2AE3CF
:10060000922E209711F4BB20D9F10E94C30D8111C5
:100610000AC0AA94AA20D9F161E070E080E090E0DD
:100620000E947C0EEECF282F30E0C217D3070CF4C7
:100630008C2F9FB7F8948092E9002091E80025FF65
:100640001DC0282F30E0C21BD30BF701815020F0D2
:1006500041914093F100FACFE20EF31EBB2019F056
:100660009092E8000AC08091E80085FD07C0909252
:10067000E800BB24B394209709F0B12C9FBFC1CFF1
:100680005D9884E68093FA021016110644F081E02A
:1006900090E0F6019383828380E090E001C0C8017E
:1006A000DF91CF911F910F91FF90EF90DF90CF904E
:1006B000BF90AF909F908F9008950E94C30D90E0DF
:1006C00008950F931F93CF93DF931F92CDB7DEB79B
:1006D0008C01FC018485958597FF0EC0CE010196A3
:1006E0000E94950D019719F4898190E002C08FEF67
:1006F0009FEFF80195878487F801848595850F9091
:10070000DF91CF911F910F910895CF93DF931F92A7
:10071000CDB7DEB7FC018485958597FD05C02FEF29
:100720003FEF358724870BC0CE0101960E94950DBF
:10073000019719F4898190E002C08FEF9FEF0F902D
:10074000DF91CF9108950F931F93CF93DF93FC0117
:10075000048115810115110559F42785222341F0E3
:1007600087E391E0DF91CF911F910F910C944B0A99
:10077000FC01C285D38561E0802F0E94400E209746
:1007800009F480C0CF3FD10509F47EC0F801FF27EE
:10079000EC53FE4FE4918E2F90E0FC013197EF3047
:1007A000F10508F06CC0EA5AFF4F0C944C1684B562
:1007B000806884BDC7BD70C084B5806284BDC8BD7B
:1007C0006BC080918000806880938000D093890006
:1007D000C093880061C08091800080628093800017
:1007E000D0938B00C0938A0057C0809180008860AE
:1007F00080938000D0938D00C0938C004DC0809179
:100800009000806880939000D0939900C0939800E6
:1008100043C080919000806280939000D0939B00B1
:10082000C0939A0039C080919000886080939000B6
:10083000D0939D00C0939C002FC08091C000806821
:100840008093C0008091C0008F7B8093C000C093D4
:10085000CF0022C08091C00080628093C000C0930E
:10086000D0001AC08091C20088608093C20080913D
:10087000C2008B7F8093C200C093D2000DC0C038ED
:10088000D10514F460E001C061E0802FDF91CF91C9
:100890001F910F910C94110EDF91CF911F910F9129
:1008A00008951F920F920FB60F9211248F939F936A
:1008B0008091E1009091E100937F9093E10083FFAC
:1008C0000FC01092E90091E09093EB001092EC00C1
:1008D00092E39093ED0010920C0398E09093F00057
:1008E00082FF20C093E09093E9009091F200992359
:1008F00019F09AE39093E8009091FA02992339F065
:100900009091FA0291509093FA02992389F1909173
:100910000B03992339F090910B03915090930B03A3
:10092000992341F184FF10C08091E2008E7E8160A6
:100930008093E2008091E1008F7E8093E1008091BE
:10094000FB028E7E806111C080FF16C08091E200A4
:100950008E7E80618093E2008091E1008E7E8093A4
:10096000E1008091FB028E7E81608093FB0204C0D7
:100970005D9ACDCF289AD6CF9F918F910F900FBEC1
:100980000F901F9018951F920F920FB60F9211247F
:10099000CF92DF92EF92FF920F931F932F933F938B
:1009A0004F935F936F937F938F939F93AF93BF9377
:1009B000EF93FF93CF93DF93CDB7DEB76C97DEBF96
:1009C000CDBF1092E9008091E80083FFFBC168E091
:1009D000CE0145960E94710182EF8093E8008D89D7
:1009E00087FF05C09091E80090FFFCCF03C09EEF09
:1009F0009093E800982F907609F0C6C09E894F89A1
:100A0000588D2F89F88C91110CC0803829F4809171
:100A1000FC028093F10002C01092F1001092F100EC
:100A200045C1913051F4811141C14130510509F066
:100A30003DC18091FC028D7F0BC0933061F4811128
:100A400035C14130510509F031C18091FC0282600D
:100A50008093FC022BC1953049F48091E80080FF1F
:100A6000FCCF822F80688093E30020C1963009F08C
:100A70005EC00B8D1C8D22E01092E9001092F802EE
:100A80001092F702F21232C01092F6021092F502A2
:100A90000E94A50299E0BE016F5F7F4FDB01E92F45
:100AA0001D92EA95E9F79983FA8291E09E8390EA94
:100AB00098879AEF99872091F7023091F802275F83
:100AC0003F4F3C832B838D831092E9001092F802F4
:100AD0001092F7021093F6020093F50249E050E0FD
:100AE00080E00E944A010E94A502E0C01093F60235
:100AF0000093F5020E94D40DDC0112960D911C9119
:100B000013970115110509F4BBC0D801ED91FC91B3
:100B10000480F581E02DBE016B5E7F4FC801099511
:100B2000009709F0C7C0F80100851185EACF97301A
:100B300009F445C1983021F481E08093F100B6C0FA
:100B4000993009F0B3C0837009F039C1EDE0F1E0EC
:100B500081E031E096E32081211109C08EE7809386
:100B6000EA001092EA008F8980930C039FC0809363
:100B7000E9003093EB0021912093EC009093ED007D
:100B80008F5F873041F7EACF8B8D9C8D1092E90003
:100B90001092F8021092F7029093F6028093F502F9
:100BA000898D811153C08E899D89913A49F4813292
:100BB00009F005C147E050E064E071E080E0BBC0AF
:100BC000913209F0FCC0833269F48F89988DA0E0DE
:100BD000B0E08093000190930101A0930201B093D3
:100BE000030164C0803269F48091E80082FFFCCF89
:100BF00067E084E091E00E9471018BEF8093E80050
:100C000055C0823209F052C08F8980930B01EEEFFC
:100C1000FFE7859194918B3F9C4D19F0E0E0F8E05F
:100C200002C0EEEFFAE08091040190910501A091DD
:100C30000601B0910701803B9440A105B10509F080
:100C40009EC080910B0180FF79C099C00E94D40D95
:100C5000FC01028113810115110509F4B0C0D8010E
:100C6000ED91FC910190F081E02DBE016B5E7F4F14
:100C7000C801099581111AC0F80100851185EBCFD3
:100C8000F1E0FF1609F44EC0F3E0FF1298C08F891F
:100C9000882309F44AC0823089F440E862E189E49B
:100CA00091E00E94310F882309F489C08EEF809370
:100CB000E80088C018161906CCF381C0813029F4E9
:100CC00040E868E080E491E0ECCF833009F077C041
:100CD0000E94D40DDC011296ED90FC9013978E01CA
:100CE0000F5F1F4F6801E114F10479F0D701ED9116
:100CF000FC910680F781E02DB801C7010995080F26
:100D0000111DF701E084F184EECFD8011C92F601A9
:100D100001900020E9F73197BF016C197D0940E08F
:100D2000C601BFCF6EE271E002C06AE271E0FB0172
:100D3000449150E080E80E944A01B8CFEE3F2AE09B
:100D4000F20751F0808191818737A7E79A0721F058
:100D50009093FF0A8093FE0A87E797E79183808349
:100D6000809160008093F9029BE088E10FB6F894CF
:100D7000A895809360000FBE9093600097CF80810C
:100D800091818737974709F091CFA89580916000AE
:100D90008861809360008091F90280936000EE3F4B
:100DA000BAE0FB0739F08091FE0A9091FF0A918327
:100DB00080837CCF1092FF0A1092FE0A77CF81E2E7
:100DC0008093EB006C960FB6F894DEBF0FBECDBFDC
:100DD000DF91CF91FF91EF91BF91AF919F918F9153
:100DE0007F916F915F914F913F912F911F910F9143
:100DF000FF90EF90DF90CF900F900FBE0F901F905D
:100E000018951F920F920FB60F9211242F933F93B4
:100E10004F935F936F937F938F939F93AF93BF9302
:100E2000EF93FF938091B900887F803609F49CC0CE
:100E300068F5883209F45BC090F4803109F454C03D
:100E400038F4882309F4F6C0883009F44DC0F6C0A0
:100E5000883109F44CC0803209F45DC0EFC08034A1
:100E600009F468C048F4803309F455C0883309F0A8
:100E7000E5C080935303D8C0803509F44FC088354E
:100E800009F45DC0883409F0D9C0D6C0883909F4A6
:100E9000C7C0A8F4883709F467C038F4883609F465
:100EA00063C0803709F460C0C9C0883809F4B8C08D
:100EB000803909F45FC0803809F0C0C05BC0803B56
:100EC00009F486C038F4803A09F466C0883A09F417
:100ED0007FC0B4C0803C09F4A7C0883C09F4A4C01A
:100EE000883B09F48AC0AAC08091300310C0909159
:100EF000520380915103981770F5E091520381E0FD
:100F00008E0F80935203F0E0EF5CFC4F8081809362
:100F1000BB0085EC86C0809353038EC0E0915203E2
:100F200081E08E0F809352038091BB00F0E0EF5C74
:100F3000FC4F808390915203809151036EC0E091E9
:100F4000520381E08E0F809352038091BB00F0E04A
:100F5000EF5CFC4F80838091540381116DC081E070
:100F600080932F0384EA61C083E08093550310923D
:100F7000F402CFCF8091F402803208F051C0E091AA
:100F8000F40281E08E0F8093F4028091BB00F0E0C8
:100F9000EC52FD4F8083BDCF85EC8093BC00109256
:100FA00055038091F402803230F4E091F402F0E0D5
:100FB000EC52FD4F10826091F40270E0E091FD026E
:100FC000F091FE0284ED92E009951092F40236C091
:100FD00084E0809355031092D3021092D202E091E4
:100FE000FF02F091000309958091D202811105C0A2
:100FF00081E08093D2021092B202E091D30281E0AC
:101000008E0F8093D302F0E0EE54FD4F80818093E9
:10101000BB009091D3028091D202981708F479CF47
:1010200085E88093BC000AC085EC8093BC001092D8
:10103000550304C0109253030E94E301FF91EF9106
:10104000BF91AF919F918F917F916F915F914F91E0
:101050003F912F910F900FBE0F901F9018951F93E7
:10106000CF93DF93EC0188819981009761F061E073
:101070000E94400E188161E0812F0E94400E60E0C6
:10108000812F0E94110E8A819B81009761F061E09F
:101090000E94400E1A8161E0812F0E94400E60E0A4
:1010A000812F0E94110E8E819F81009739F061E09F
:1010B0000E94400E61E08E810E94110E8885998504
:1010C000009739F061E00E94400E61E088850E943F
:1010D000110E8F85882339F083E591E0DF91CF9160
:1010E0001F910C944B0ADF91CF911F9108954F925D
:1010F0005F926F927F928F929F92AF92BF92CF92A8
:10110000DF92EF92FF920F931F93CF93DF93EC0147
:10111000B62E8A018C85861305C0888D998D892B02
:1011200009F484C081E090E0998F888F0E94B60E08
:101130006B017C0188899989AA89BB89A7019601DD
:10114000281B390B4A0B5B0BCA01B9012C8B3D8B59
:101150004E8B5F8B29013A0131E0431A5108610837
:10116000710847EE441643E0540661047104A0F18F
:101170002B013C0158EE451A53E0550A61087108ED
:1011800028E342162AE4520661047104B8F428EEFA
:1011900033E040E050E00E942A162930310514F077
:1011A00028E030E08A859B85821B930B97FD03C066
:1011B0009B878A870DC01B861A860AC06115710538
:1011C0008105910529F060327E448105910521F069
:1011D000C88AD98AEA8AFB8ACE010E94A3038A853B
:1011E0009B851816190614F11B861A86CE010E94DB
:1011F000A303198E188EBC86BB2009F4E9C0888130
:1012000099819D838C838F85882381F082E691E08C
:101210000E944B0A8C8590E00E94590A84E791E075
:101220000E944B0A8C819D810E94590A8A859B8568
:101230008017910709F4CFC00A3F110529F48A3FAE
:1012400091050CF457C0C7C0081719070CF052C01D
:10125000288D398D232B09F04DC02F8521110E9437
:10126000590A0E94B60E6B017C0188899989AA8966
:10127000BB89A7019601281B390B4A0B5B0BCA01DE
:10128000B9012C8B3D8B4E8B5F8B49015A0131E0AC
:10129000831A9108A108B10847EE841643E094062A
:1012A000A104B10408F469C04B015C0158EE851A31
:1012B00053E0950AA108B10828E382162AE49206B1
:1012C000A104B10408F050C028EE33E040E050E043
:1012D0000E942A162930310514F028E030E08A8572
:1012E0009B85821B930B801791070CF46EC09B8724
:1012F0008A873FC0288D398D232B09F06CC02F853C
:1013000021110E94590A0E94B60E6B017C01888946
:101310009989AA89BB89A7019601281B390B4A0B19
:101320005B0BCA01B9012C8B3D8B4E8B5F8B490146
:101330005A0131E0831A9108A108B10847EE8416DA
:1013400043E09406A104B104C0F04B015C0158EEE7
:10135000851A53E0950AA108B10828E382162AE409
:101360009206A104B104E0F061327E44810591054A
:1013700020F0C88AD98AEA8AFB8ACE01DF91CF9110
:101380001F910F91FF90EF90DF90CF90BF90AF90A3
:101390009F908F907F906F905F904F900C94A303DD
:1013A00028EE33E040E050E00E942A162930310553
:1013B00014F028E030E08A859B85280F391F02173A
:1013C00013071CF03B872A87D4CF1B870A87D1CF0E
:1013D0008A819B8116CFDF91CF911F910F91FF9052
:1013E000EF90DF90CF90BF90AF909F908F907F90C5
:1013F0006F905F904F90089590E0FC013197EF302F
:10140000F105B0F5EB59FF4F0C944C16809180001C
:101410008F7703C0809180008F7D80938000089536
:1014200080918000877FF9CF84B58F7702C084B523
:101430008F7D84BD0895809190008F7707C0809143
:1014400090008F7D03C080919000877F80939000F3
:1014500008958091C0008F7703C08091C0008F7D78
:101460008093C00008958091C200877F8093C2005E
:101470000895009769F0FC0101900020E9F7319789
:10148000AF01481B590BBC018AE793E00C94D702CB
:1014900080E090E00895CF93DF930E94390AEC0139
:1014A00083EA92E00E94390A8C0F9D1FDF91CF9151
:1014B00008958F929F92AF92BF92CF92DF92EF9258
:1014C000FF920F931F93CF93DF93CDB7DEB7A19712
:1014D0000FB6F894DEBF0FBECDBF6C01990FEE08BA
:1014E000FF08F7FE2BC06DE28AE793E00E94A80197
:1014F0008C0122273327A9012C193D094E095F09C8
:1015000019A2CE0181967C019AE0892E912CA12C02
:10151000B12CCA01B901A50194010E942A16605D8F
:10152000F70162937F01211531054105510589F7C6
:10153000CF010E94390A080F191F1EC0A70196018A
:1015400019A28E010F5D1F4F8AE0C82ED12CE12C0D
:10155000F12CCA01B901A70196010E942A16605D0B
:10156000F80162938F01211531054105510589F775
:10157000CF010E94390A8C0183EA92E00E94390A65
:10158000800F911FA1960FB6F894DEBF0FBECDBF9E
:10159000DF91CF911F910F91FF90EF90DF90CF904F
:1015A000BF90AF909F908F9008950C94390A282F88
:1015B00030917903313208F04AC08091550381118E
:1015C000FCCF9091780342E040935503209354035D
:1015D0002FEF209353031092520330935103E8E509
:1015E000F3E0A1E3B3E020E0321721F041914D9305
:1015F0002F5FFACF1092300320913003990F922B76
:101600009093300390912F03913061F410922F0347
:10161000909130039093BB009091BC0093FDF8CF64
:1016200095EC01C095EE9093BC00909155039230DB
:10163000E1F3909153039F3F79F0809153038032FF
:1016400041F080915303803331F084E005C081E0A4
:1016500003C082E001C083E0109257031092790327
:101660001092560308951F93CF93DF93162FCAE06D
:10167000D4E0998121E0209356039093780310924F
:10168000570310927903682F8AEC93E00E9470024E
:10169000612F8AEC93E00E94700281E00E94D70AD9
:1016A0008883DF91CF911F9108950F931F93CF935C
:1016B000DF93162F072FCAE0D4E0998121E0209311
:1016C0005603909378031092570310927903682F72
:1016D0008AEC93E00E947002602F8AEC93E00E94F3
:1016E0007002612F8AEC93E00E94700281E00E94F8
:1016F000D70A8883DF91CF911F910F910895909120
:1017000055039111FCCF613208F060E291E09093B3
:101710005503909354032FEF2093530310925203D9
:10172000260F209351039093300390913003880F3C
:10173000892B8093300380912F03813061F41092C4
:101740002F03809130038093BB008091BC0083FD08
:10175000F8CF85EC01C085EE8093BC0080915503E5
:101760008130E1F380915203861710F460915203A7
:10177000E1E3F3E0AFE0B3E080E0861721F0919180
:101780009D938F5FFACF10920E0380930D030895FF
:10179000CF93DF93CAE0D4E0998121E020935603F0
:1017A000909378031092570310927903682F8AEC74
:1017B00093E00E94700281E00E94D70A888362E071
:1017C00089810E947F0B8AEC93E00E942702D82F28
:1017D00080E0C82F8AEC93E00E9427028C2B9D2B7F
:1017E000DF91CF910895CF93DF93CAE0D4E0998140
:1017F00021E02093560390937803109257031092A0
:101800007903682F8AEC93E00E94700281E00E94C5
:10181000D70A888361E089810E947F0B8AEC93E07C
:101820000E942702DF91CF910895CF93DF93EC01BF
:1018300081E00E94F30B84FB992790F9988383FB46
:10184000992790F99A8382FB992790F9998386FBCF
:10185000992790F99B83881F8827881F8C83DF91A5
:10186000CF910895682F616080E00E94330B0E9441
:10187000DB0E7093100460930F0483E10E94F30B5E
:101880008770B9F480910C0490910D04892BA9F311
:101890000E94DB0E20910F0430911004621B730B29
:1018A00080910C0490910D048617970730F780E023
:1018B000089561E08BE00E94330B60E080E00E94BD
:1018C000330B81E008952F923F924F925F926F9277
:1018D0007F928F929F92AF92BF92CF92DF92EF92C0
:1018E000FF920F931F93CF93DF9300D000D000D0CF
:1018F000CDB7DEB71C017E836D8380E50E94F30BBC
:101900008F5F880F90E0ED81FE819183808386E474
:101910000E94F30B682E712CFFEF6F1A7F0AED8186
:10192000FE8175826482A081B0E020E03FE24AE35C
:1019300050E00E9452164B015C01F4EF8F0EF1E073
:101940009F1EA11CB11C98EEC92E93E0D92EE12C4C
:10195000F12CC501B401A70196010E942A16D301FA
:101960000E945D1669837A838B839C8320ED422ECF
:1019700027E0522E612C712CC501B401A301920104
:101980000E942A1669817A818B819C81620F731F64
:10199000841F951FA70196010E942A16ED81FE81E2
:1019A000228733874487558781E50E94C80B8C01C5
:1019B000112702C0000F111F9A95E2F70F5F1F4F0A
:1019C000ED81FE8117830683A081B0E020E03FE235
:1019D0004AE350E00E9452164B015C01F4EF8F0E77
:1019E000F1E09F1EA11CB11CC501B401A701960125
:1019F0000E942A16D8010E94521669837A838B832B
:101A00009C83C501B401A30192010E942A16698139
:101A10007A818B819C81620F731F841F951FA701A0
:101A200096010E942A16ED81FE8126873787408B1A
:101A3000518B80E70E94F30B8F5F880F90E0ED8160
:101A4000FE819383828381E70E94C80B9C019927C2
:101A500002C0880F991F3A95E2F70196ED81FE8149
:101A600091878087F1012381222341F0ED81FE815E
:101A700026813781821B930B91878087ED81FE81C0
:101A8000A281B0E020E03FE24AE350E00E9452161B
:101A90006B017C01F4EFCF0EF1E0DF1EE11CF11CC5
:101AA00088EE882E83E0982EA12CB12CC701B601B8
:101AB000A50194010E942A16ED81FE81A085B185C1
:101AC0000E9452162B013C01C701B60120ED37E000
:101AD00040E050E00E942A16C301B201620F731F5A
:101AE000841F951FA50194010E942A16ED81FE8195
:101AF000228B338B448B558B26960FB6F894DEBF22
:101B00000FBECDBFDF91CF911F910F91FF90EF904E
:101B1000DF90CF90BF90AF909F908F907F906F900D
:101B20005F904F903F902F90089520910C032111CA
:101B300003C08FEF9FEF08955FB7F89422E02093E2
:101B4000E9002091F20030E01216130614F421E0AF
:101B500030E0422FFC0184E6415038F02898809311
:101B60000B039091F1009193F7CF2115310521F0EE
:101B70008091F200882319F05FBFC90108958BE6B8
:101B80008093E800F9CF2FB7F89483E08093E900C1
:101B90009091E800892F807295FF04C09091F20027
:101BA00080E4891B2FBF089580911A0481110DC014
:101BB00082E08093160484E0809317041092190445
:101BC0001092180481E080931A0486E194E008954D
:101BD000CF93DF93282F30E0F901EC53FE4F84912F
:101BE000F901EB55FE4FD491F901EA57FE4FC4912C
:101BF000CC2391F081110E94FC09EC2FF0E0EE0F54
:101C0000FF1FE858FE4FA591B491EC91ED2381E0C0
:101C100090E021F480E002C080E090E0DF91CF917D
:101C200008951F93CF93DF93282F30E0F901EC53F1
:101C3000FE4F8491F901EB55FE4FD491F901EA571B
:101C4000FE4FC491CC23C1F0162F81110E94FC09D4
:101C5000EC2FF0E0EE0FFF1FE659FE4FA591B49177
:101C60009FB7F894111104C08C91D095D82302C06D
:101C7000EC91DE2BDC939FBFDF91CF911F910895F4
:101C8000CF93DF9390E0FC01EB55FE4F2491FC01D4
:101C9000EA57FE4F8491882361F190E0880F991FE5
:101CA000FC01E45AFE4FC591D491FC01E659FE4F68
:101CB000A591B491611109C09FB7F89488812095CE
:101CC00082238883EC912E230BC0623061F49FB78E
:101CD000F8948881322F309583238883EC912E2BC2
:101CE0002C939FBF06C08FB7F894E8812E2B2883D2
:101CF0008FBFDF91CF9108958F929F92AF92BF9245
:101D0000CF92DF92EF92FF926B017C010E94B60EA0
:101D10004B015C01C114D104E104F104F1F00E9413
:101D2000B60EDC01CB0188199909AA09BB09883EC6
:101D30009340A105B10570F321E0C21AD108E10872
:101D4000F10888EE880E83E0981EA11CB11CC11416
:101D5000D104E104F10419F7DDCFFF90EF90DF909B
:101D6000CF90BF90AF909F908F9008953FB7F89419
:101D70008091470490914804A0914904B0914A048D
:101D800026B5A89B05C02F3F19F00196A11DB11DD6
:101D90003FBFBA2FA92F982F8827820F911DA11D11
:101DA000B11DBC01CD0142E0660F771F881F991F4E
:101DB0004A95D1F708952FB7F89460914304709134
:101DC000440480914504909146042FBF08951F92CA
:101DD0000F920FB60F9211242F933F938F939F93DF
:101DE000AF93BF938091430490914404A091450424
:101DF000B09146043091420423E0230F2D3720F4A4
:101E00000196A11DB11D05C026E8230F0296A11D54
:101E1000B11D209342048093430490934404A09303
:101E20004504B09346048091470490914804A091E2
:101E30004904B0914A040196A11DB11D8093470445
:101E400090934804A0934904B0934A04BF91AF9182
:101E50009F918F913F912F910F900FBE0F901F90E8
:101E60001895DF92EF92FF920F931F93CF93DF931A
:101E7000D82EF92EE42E062F10E0C8010196880F07
:101E80000E941C0183E00E941C01CD2DDF2D0C0F50
:101E90001D1FC017D10789F0E7FE03C0FE01849122
:101EA00001C088810E941C01F82E80E00E941C0164
:101EB0008F2121968111EDCF01C081E0DF91CF917B
:101EC0001F910F91FF90EF90DF900895CF93DF93D4
:101ED000CDB7DEB7A1970FB6F894DEBF0FBECDBF6A
:101EE000789484B5826084BD84B5816084BD85B5F5
:101EF000826085BD85B5816085BD80916E00816001
:101F000080936E00109281008091810082608093A6
:101F100081008091810081608093810080918000A8
:101F20008160809380008091910082608093910015
:101F300080919100816080939100809190008160F8
:101F4000809390008091C10084608093C100809153
:101F5000C10082608093C1008091C1008160809344
:101F6000C1008091C30081608093C3008091C00054
:101F700082608093C0008091C20081608093C20023
:101F800080917A00846080937A0080917A008260E8
:101F900080937A0080917A00816080937A008091AA
:101FA0007A00806880937A0010920C031092FC02F1
:101FB0001092FB028091D70081608093D70080EA65
:101FC0008093D80089B5806189BD89B5826089BD5B
:101FD00009B400FEFDCF61E070E080E090E00E9477
:101FE0007C0E8091D8008F7C80618093D800809196
:101FF000E000807F8093E0008091E1008E7E8093FE
:10200000E1008DE08093E200559A209A80EF93E002
:102010000E942F0889E891E00E944B0A86ED93E028
:102020000E942F0885EA91E00E944B0A60E088E058
:102030000E94400E60E087E00E94400E60E084E075
:102040000E94400E61E085E00E94400E60E083E067
:102050000E94400E60E082E00E94400E60E080E15D
:102060000E94400E61E08EE00E94400E61E085E03B
:102070000E94110E8FEB91E00E944B0A10920E030A
:1020800010920D031092570310927903109255038A
:1020900081E08093540310922F0361E082E00E945C
:1020A000110E61E083E00E94110E8091B9008E7FD5
:1020B0008093B9008091B9008D7F8093B90088E446
:1020C0008093B80085E48093BC0085E192E0909312
:1020D00000038093FF0286E192E09093FE028093DA
:1020E000FD0289E80E94F30B682F616089E80E9475
:1020F000330B60E088E80E94330B61E080E80E94C7
:10210000330B61E08FEF0E94330B60E080E00E94B0
:10211000330B81E90E94F30B8093110461E080E0AE
:102120000E94330B60E08FEF0E94330B60E080E889
:102130000E94330B80E60E94F30B682F626180E6F9
:102140000E94330B60E270E084E40E94550B6FEF55
:1021500081E00E94330B61E080E80E94330B61E074
:102160008FEF0E94330B60E080E00E94330B66E04B
:102170008FEF0E94330B83E80E94F30B682F64609B
:1021800083E80E94330B67E08FEF0E94330B61E01E
:1021900081E80E94330B61E080E80E94330B6BE61C
:1021A00084E90E94330B60E083E80E94330B0E94B5
:1021B000DB0E7093100460930F0483E80E94F30B0E
:1021C000811116C080910C0490910D04892BA9F304
:1021D0000E94DB0E20910F0430911004621B730BE0
:1021E00080910C0490910D048617970730F74BC32C
:1021F00061E083E80E94330B82E90E94F30BD82E42
:10220000082F0F7760E081E80E94330B66E08FEFC4
:102210000E94330B83E80E94F30B682F6B7F83E8E7
:102220000E94330B61E08FEF0E94330B61E080E08E
:102230000E94330B60E08FEF0E94330B60E080E878
:102240000E94330B80910B0491E09093560380938E
:102250007803109257031092790360EB8AEC93E0B5
:102260000E94700281E00E94D70A80930A0466E00F
:1022700080910B040E947F0B7E0127E1E20EF11C8E
:10228000570117E0115041F08AEC93E00E942702B9
:10229000F50181935F01F6CF61E08FEF0E94330B70
:1022A00060E08FE40E94330B6CE28EE40E94330BFB
:1022B00060E08FEF0E94330B64EB86EB0E94330BE0
:1022C000D7FE02C06CE001C060E090E080E041E039
:1022D00050E0282F269526952695782F7770F701C0
:1022E000E20FF11D861710F009130AC09A0101C010
:1022F000220F7A95EAF7209530812323208309C0A5
:10230000208130E002C0359527957A95E2F720FDCF
:102310009F5F8F5F8033E9F680910B0491E090938B
:10232000560380937803109257031092790360EB61
:102330008AEC93E00E94700217E0115041F0F7011F
:1023400061917F018AEC93E00E947002F6CF81E0F8
:102350000E94D70A80930A0461E08FEF0E94330B3A
:1023600060E080E00E94330B60E08FEF0E94330B4F
:1023700060E089E00E94330B60E080E10E94330B53
:1023800060E081E10E94330B61E084E20E94330B44
:102390006FEF85E20E94330B60E085E70E94330B0C
:1023A00061E08FEF0E94330B6CE28EE40E94330BEE
:1023B00060E088E40E94330B60E280E30E94330B0C
:1023C00060E08FEF0E94330B69E080E30E94330BE3
:1023D00060E084E50E94330B64E081E30E94330BEC
:1023E00063E082E30E94330B63E880E40E94330BD6
:1023F00065E286E40E94330B60E080E60E94330BC6
:1024000060E087E20E94330B66E080E50E94330BB8
:1024100060E081E50E94330B66E982E50E94330BA0
:1024200068E086E50E94330B60E387E50E94330B8A
:1024300060E081E60E94330B60E082E60E94330B8D
:1024400060E084E60E94330B60E085E60E94330B77
:1024500060EA86E60E94330B61E08FEF0E94330B47
:1024600062E382E20E94330B64E187E40E94330B53
:102470006FEF89E40E94330B60E08AE40E94330B23
:1024800060E08FEF0E94330B6AE08AE70E94330B13
:1024900060E08BE70E94330B61E288E70E94330B18
:1024A00061E08FEF0E94330B64E383E20E94330B01
:1024B00060E082E40E94330B6FEF84E40E94330BF0
:1024C00066E285E40E94330B65E086E40E94330BEC
:1024D00060E480E40E94330B66E08EE00E94330BE0
:1024E0006AE180E20E94330B60E483E40E94330BD4
:1024F00060E08FEF0E94330B63E084E30E94330BB4
:1025000064E485E30E94330B61E08FEF0E94330B9C
:1025100064E081E30E94330B69E08BE40E94330B9B
:1025200065E08CE40E94330B64E08DE40E94330B81
:1025300060E08FEF0E94330B60E084E40E94330B75
:1025400060E285E40E94330B68E087E40E94330B6D
:1025500068E288E40E94330B60E087E60E94330B58
:1025600064E080E70E94330B61E081E70E94330B57
:102570006EEF82E70E94330B60E086E70E94330B28
:1025800060E087E70E94330B61E08FEF0E94330B1E
:1025900061E08DE00E94330B60E08FEF0E94330B0F
:1025A00061E080E80E94330B68EF81E00E94330B0A
:1025B00061E08FEF0E94330B61E08EE80E94330BE5
:1025C00061E080E00E94330B60E08FEF0E94330BEC
:1025D00060E080E80E94330B64E08AE00E94330BE5
:1025E00084E80E94F30B682F6F7E84E80E94330B0F
:1025F00061E08BE00E94330BCE014D960E94150CDA
:10260000BE016F5F7F4FCE014D960E94630C8D8D92
:10261000882349F08B859C85AD85BE858C57924F6C
:10262000AF4FBF4F04C086E39BE0A0E0B0E02F8D2A
:10263000222369F04B855C856D857E854E545D4F08
:102640006F4F7F4F440F551F661F771F0BC02E8D96
:10265000222361F04B855C856D857E854C565D4FF0
:102660006F4F7F4F840F951FA61FB71F28A12223EE
:1026700061F04F85588969897A894C565D4F6F4F53
:102680007F4F840F951FA61FB71F29A1222361F03A
:102690004B895C896D897E894A5D5D4F6F4F7F4FA5
:1026A000840F951FA61FB71F8093120490931304E5
:1026B000A0931404B093150468EE81E00E94330BDC
:1026C000C0901204D0901304E0901404F09015040C
:1026D000F0E2CF16FEE4DF06E104F10408F4BDC029
:1026E000CE014D960E94150CBE016F5F7F4FCE014B
:1026F0004D960E94630C8D8D882349F08B859C85B7
:10270000AD85BE858A5C944FAF4FBF4F04C088EE45
:1027100098E0A0E0B0E02F8D222369F04B855C8526
:102720006D857E854E545D4F6F4F7F4F440F551F13
:10273000661F771F0BC02E8D222361F04B855C85B1
:102740006D857E854C565D4F6F4F7F4F840F951F73
:10275000A61FB71F18A1112361F04F8558896989F9
:102760007A894C565D4F6F4F7F4F840F951FA61F80
:10277000B71F29A1222309F470C02C013D0126E2D4
:10278000420E22E0521E611C711CC414D504E604E2
:10279000F70408F462C0AB81B0E020E03FE24AE316
:1027A00050E00E9452164B015C01E4EF8E0EE1E016
:1027B0009E1EA11CB11CA7019601241935094609CA
:1027C0005709A8EEB3E00E9452162B013C01C50147
:1027D000B40120ED37E040E050E00E942A16420E9E
:1027E000531E641E751EC501B40128EE33E040E09F
:1027F00050E00E942A16C301B2010E942A16C901A4
:10280000112321F08F819885820F931F0097C1F0CB
:102810000197A0E0B0E060E070E08C019D0100272E
:10282000012B022B032B39F0B695A7959795879529
:102830006F5F7F4FF2CF762F6627682B792B02C010
:1028400060E070E081E70E94550BC0921204D092C4
:102850001304E0921404F092150461E081E00E94F8
:10286000330B80E40E94320C882369F062E081E03F
:102870000E94330B80E00E94320C882321F068EE26
:1028800081E00E94330B84EF91E090930D048093DC
:102890000C0461E080E80E94330B61E08FEF0E943E
:1028A000330B60E080E00E94330B6091110481E9FA
:1028B0000E94330B61E080E00E94330B60E08FEFF9
:1028C0000E94330B60E080E80E94330B62E080E0FE
:1028D0000E94330B81EE91E00E944B0A0E94DB0EB6
:1028E000609303037093040380930503909306039E
:1028F00010920A0310920903109208031092070322
:1029000010920203109201038FEF91E00E944B0A94
:1029100080E0C82E80E0D82E01E010E092E0E92EA1
:10292000F12C8091010390910203892B09F0EFC0F3
:1029300087E00E94E80D892B29F484E00E94E80DCD
:10294000892B71F187E00E94E80D892B39F0F09214
:102950000803E09207038FE292E00BC084E00E943C
:10296000E80D892B41F0109308030093070385E3DA
:1029700092E00E94D50A88E00E94E80D892B39F088
:1029800010930A030093090388E192E006C01092B5
:102990000A031092090383E292E00E94D50AB7C0AD
:1029A000109208031092070386EA92E00E94D50A6B
:1029B00088E00E94E80D892B19F710920A03109203
:1029C000090383E292E00E94D50A80E10E94E80DAB
:1029D000892B99F08CE392E00E94D50A61E08EE0A9
:1029E0000E94110E0E94DB0E609303037093040398
:1029F00080930503909306032AC060E08EE00E9456
:102A0000110E0E94DB0E8090030390900403A090AF
:102A10000503B0900603DC01CB0188199909AA09C6
:102A2000BB0981319742A105B10568F086E492E0C7
:102A30000E94D50A10930A03009309031093080318
:102A40000093070308C08BE592E00E94D50AF0923C
:102A50000803E09207038091070390910803009711
:102A600081F082309105A1F483E00E94E80D892B6A
:102A700059F081E892E00E94D50A10920803109262
:102A8000070340E050E002C046E950E060E011C0BA
:102A9000019799F482E00E94E80D892B39F08EE8C5
:102AA00092E00E94D50A4AEF50E002C046E950E0A9
:102AB00061E086ED93E00E94770880910903909190
:102AC0000A03892B19F440E050E00BC082E00E9419
:102AD000E80D892BC1F385E992E00E94D50A4AEFFF
:102AE00050E061E080EF93E00E94770883EA92E093
:102AF0000E94390A6AE070E080E090E00E947C0E5B
:102B0000C114D10409F40DCF0E9400000ACF60E087
:102B10008EE00E94110E9FCFFF920F931F93CF93D1
:102B2000DF93EAE7F3E01382128288EE93E0A0E0FD
:102B3000B0E084839583A683B78327E131E03183B6
:102B400020832FEF3FEF35872487EAECF3E01382F1
:102B5000128284839583A683B78389E291E091836F
:102B60008083EAE0F4E089E2818313821282148296
:102B7000C0EFD3E08AE090E0998388831B821A82B9
:102B80009D838C831F821E82198618861B861A8657
:102B9000FF24F394FC8605E010E01E870D870E9459
:102BA000B60E688B798B8A8B9B8B1C8A1D8A1E8A3A
:102BB0001F8AC6EDD3E089E090E09983888326E000
:102BC00030E03B832A839D838C831F821E8219867B
:102BD00018861B861A86FC861E870D870E94B60EF5
:102BE000688B798B8A8B9B8B1C8A1D8A1E8A1F8A15
:102BF000E2E3F4E0108211821282138214821582C1
:102C0000168217821186108622E430E033872287ED
:102C10008AEB99E09587848742E150E057874687A1
:102C2000E2E2F4E010821182128213821482158291
:102C300016821782118610863387228795878487AC
:102C400085E190E097878687DF91CF911F910F9163
:102C5000FF900895A1E21A2EAA1BBB1BFD010DC017
:102C6000AA1FBB1FEE1FFF1FA217B307E407F5073C
:102C700020F0A21BB30BE40BF50B661F771F881F18
:102C8000991F1A9469F760957095809590959B01AE
:102C9000AC01BD01CF010895EE0FFF1F0590F49127
:102CA000E02D09940E946516A59F900DB49F900D8C
:102CB000A49F800D911D11240895B7FF0C94521606
:102CC0000E945216821B930B0895A29FB001B39FDE
:102CD000C001A39F700D811D1124911DB29F700D25
:102CE000811D1124911D089581E090E0F8940C94C9
:062CF0007916F894FFCFF5
:102CF600FFFFFFFF00E100000000000000C180812F
:102D060000000000000000A801D7025D03BE01C953
:102D160001850361030000000070024302A0021750
:102D2600023B02270218024572726F723A206163F3
:102D36007469766550574D50696E206973207A65BF
:102D4600726F0073657475702066696E6973686565
:102D56006400446972656374696F6E206973206EDE
:102D66006F773A0041637469766550574D70696EA6
:102D7600206973206E6F773A0056616375756D2012
:102D86006D6F746F7220736574757020636F6D70EC
:102D96006C657465004C756B65206D6F746F722081
:102DA600736574757020636F6D706C65746500492A
:102DB6006E7075747320616E64206F7574707574AF
:102DC6007320736574757020636F6D706C657465C0
:102DD6000046756C6E6573732073656E736F722033
:102DE600736574757020636F6D706C6574650053E0
:102DF60074617274757020726F7574696E65206384
:102E06006F6D706C6574650076616375756D206FA6
:102E16006E200076616375756D206F666620006FA3
:102E260070656E2000636C6F736520006D6F76654C
:102E36006D656E7420006E6F206D6F76656D656EC4
:102E46007420726F7574696E6520006E6F206D6FE9
:102E560076656D656E7420746F6F2073686F72741B
:102E66002074696D6520696E74657276656C6C2078
:102E76000053746F7020617420746F702000426F6D
:102E86006F7374200076616375756D20626567697E
:102E96006E20000D0A006E6F20627574746F6E737B
:022EA60020000A
:00000001FF
