:100000000C94F2000C941A010C941A010C941A012D
:100010000C941A010C941A010C941A010C941A01F4
:100020000C941A010C941A010C94CD030C943F0407
:100030000C941A010C941A010C941A010C941A01D4
:100040000C941A010C946F060C941A010C941A016A
:100050000C941A010C941A010C941A010C94830349
:100060000C941A010C941A010C941A010C941A01A4
:100070000C941A010C941A010C941A010C941A0194
:100080000C941A010C941A010C941A010C941A0184
:100090000C941A010C941A010C941A010C941A0174
:1000A0000C941A010C941A010C941A0148074B077E
:1000B0003A073E0744076C076C076C074F07530766
:1000C00057075D0761076C076707B409B909BE09DF
:1000D000C809D2091C0A1C0A1C0ADC09E609F00935
:1000E000FA09070A1C0A0F0A080B000202020100A3
:1000F000090400000102020000052400100105248B
:1001000001010104240206052406000107058103FC
:1001100010004009040100020A0000000705020265
:100120004000000705830240000004030904120197
:100130000002EF0201404F1B039200010102030184
:10014000537061726B46756E00537061726B4675C9
:100150006E2050726F204D6963726F0000000000C6
:10016000240027002A002D00300000000000250098
:1001700028002B002E003100000000002300260084
:1001800029002C002F0004040404040304050202C7
:100190000202040302020202060606060606040420
:1001A00002020204040408020110408040102040B2
:1001B000804080080204018040201002011080105D
:1001C000204040200000000200090F00000304014D
:1001D000000C000000000000000000000000000013
:1001E00000007B0C11241FBECFEFDAE0DEBFCDBFD5
:1001F00011E0A0E0B1E0ECEAFAE102C005900D9256
:10020000A63CB107D9F722E0A6ECB1E001C01D92EF
:10021000AE36B207E1F710E0C2EFD0E004C021979C
:10022000FE010E94490DC13FD107C9F70E94C70ACC
:100230000C94540D0C9400003FB7F8948091D401B5
:100240009091D501A091D601B091D70126B5A89B78
:1002500005C02F3F19F00196A11DB11D3FBFBA2F58
:10026000A92F982F8827820F911DA11DB11DBC01B8
:10027000CD0142E0660F771F881F991F4A95D1F77D
:1002800008954091C9015091CA012091C701309150
:10029000C80142175307B4F49091E8009570E1F358
:1002A0009091E80092FD19C08093F1008091C901FE
:1002B0009091CA0101968F739927892B19F48EEFBB
:1002C0008093E8008091C9019091CA0101969093B2
:1002D000CA018093C90181E0089580E00895CF921A
:1002E000DF92EF92FF920F931F93CF93DF931F92B2
:1002F000CDB7DEB7182F062FE42E862F880F8E5F1E
:1003000099830E94410183E00E944101F12EC12E98
:100310009981D92E8C2D8F19801798F4F601E7FE5C
:1003200002C0849101C080810E944101182F80E0A9
:100330000E9441018123FFEFCF1ADF0A8111EACF2A
:1003400001C081E00F90DF91CF911F910F91FF903D
:10035000EF90DF90CF900895DF92EF92FF920F938E
:100360001F93CF93DF93D82E8A017B01E40EF51EF5
:10037000EB01CE15DF0571F0D7FE03C0FE018491BD
:1003800001C088810E94410121968111F2CF8FEF37
:100390009FEF01C0C801DF91CF911F910F91FF9096
:1003A000EF90DF900895615030F02091F100FC0152
:1003B00020830196F8CF289884E68093D801089589
:1003C000CF92DF92EF92FF920F931F93CF93DF9321
:1003D0006C017A018B01C0E0D0E0CE15DF0589F019
:1003E000D8016D918D01D601ED91FC910190F081C4
:1003F000E02DC6010995892B11F47E0102C02196DA
:10040000ECCFC701DF91CF911F910F91FF90EF903B
:10041000DF90CF900895CF93DF931F92CDB7DEB7D3
:100420006983DC01ED91FC910280F381E02D41E0D4
:1004300050E0BE016F5F7F4F09950F90DF91CF9124
:10044000089583E08093E9008091F200882319F0F9
:100450008AE38093E8000895FC018485958597FDE3
:100460000BC09FB7F89482E08093E9008091F2007E
:100470009FBF90E0019608959FB7F89482E0809323
:10048000E9008091F2009FBF90E00895089580E018
:1004900090E008950E944F0D0F931F93CF93DF9329
:1004A0001F92CDB7DEB782E0898342E450E068EE68
:1004B00070E080E80E94AC010E94D408DC01129632
:1004C0000D911C9113970115110569F0D801ED915B
:1004D000FC910280F381E02DBE016F5F7F4FC80168
:1004E000099597FF07C089810F90DF91CF911F91E8
:1004F0000F910895F80100851185E5CF0E94C3088A
:1005000090E00895CF93DF931F92CDB7DEB7FC0143
:100510008485958597FD05C02FEF3FEF35872487AC
:100520000BC0CE0101960E949908019719F48981A8
:1005300090E002C08FEF9FEF0F90DF91CF91089571
:100540000F931F93CF93DF931F92CDB7DEB78C012C
:10055000FC018485958597FF0EC0CE0101960E940F
:100560009908019719F4298130E002C02FEF3FEF7D
:10057000F80135872487F801848595850F90DF91F0
:10058000CF911F910F9108958F929F92AF92BF923A
:10059000CF92DF92EF92FF926B017C010E941C01CF
:1005A0004B015C01C114D104E104F104F1F00E949B
:1005B0001C01DC01CB0188199909AA09BB09883EF5
:1005C0009340A105B10570F321E0C21AD108E108FA
:1005D000F10888EE880E83E0981EA11CB11CC1149E
:1005E000D104E104F10419F7DDCFFF90EF90DF9023
:1005F000CF90BF90AF909F908F9008958F929F92D1
:10060000AF92BF92CF92DF92EF92FF920F931F9320
:10061000CF93DF935C016B017A0180910B018823FA
:1006200009F45BC08091D901882309F456C08091F8
:10063000CD0180FF05C08091E00082608093E000E2
:10064000E70110E00AEF83E0882E9AE3992E2097C5
:10065000D9F10E94C30881110AC0015009F43DC0BC
:1006600061E070E080E090E00E94C402F0CF282FAB
:1006700030E0C217D3070CF48C2F4FB7F894809258
:10068000E9009091E80095FF1DC0282F30E0C21BC3
:10069000D30BF601982F915020F081918093F100B7
:1006A000FACFC20ED31E112319F09092E80009C0B0
:1006B0008091E80085FD06C09092E80011E0209747
:1006C00009F010E04FBFC3CF1111C3CF5D9884E68E
:1006D0008093CB011E141F0444F081E090E0F501EB
:1006E0009383828380E090E001C0C701DF91CF91C6
:1006F0001F910F91FF90EF90DF90CF90BF90AF9040
:100700009F908F9008951F920F920FB60F92112411
:100710002F933F938F939F93AF93BF938091D0017B
:100720009091D101A091D201B091D3013091CF012C
:1007300023E0230F2D3720F40196A11DB11D05C024
:1007400026E8230F0296A11DB11D2093CF018093AF
:10075000D0019093D101A093D201B093D3018091A5
:10076000D4019091D501A091D601B091D701019605
:10077000A11DB11D8093D4019093D501A093D60102
:10078000B093D701BF91AF919F918F913F912F91DE
:100790000F900FBE0F901F9018951F920F920FB6DB
:1007A0000F9211248F939F938091E1009091E1002B
:1007B000937F9093E10083FF0FC01092E90091E0D6
:1007C0009093EB001092EC0092E39093ED00109266
:1007D000D90198E09093F00082FF20C093E09093BD
:1007E000E9009091F200992319F09AE39093E800C0
:1007F0009091CB01992339F09091CB019150909336
:10080000CB01992389F19091D801992339F09091E6
:10081000D80191509093D801992341F184FF10C0E1
:100820008091E2008E7E81608093E2008091E10001
:100830008F7E8093E1008091CD018E7E806111C01A
:1008400080FF16C08091E2008E7E80618093E2007E
:100850008091E1008E7E8093E1008091CD018E7EBB
:1008600081608093CD0104C05D9ACDCF289AD6CF08
:100870009F918F910F900FBE0F901F9018951F9210
:100880000F920FB60F921124CF92DF92EF92FF9248
:100890000F931F932F933F934F935F936F937F9388
:1008A0008F939F93AF93BF93EF93FF93CF93DF9378
:1008B000CDB7DEB76C97DEBFCDBF1092E900809157
:1008C000E80083FFEDC168E0CE0145960E94D301A8
:1008D00082EF8093E8008D8987FF05C09091E80042
:1008E00090FFFCCF03C09EEF9093E800982F907686
:1008F00009F0C6C09E892F89188D91110CC08038CF
:1009000029F48091CE018093F10002C01092F10091
:100910001092F10048C1422F50E0512B913051F418
:10092000811141C14130510509F03DC18091CE0195
:100930008D7F0BC0933061F4811135C14130510579
:1009400009F031C18091CE0182608093CE012BC12C
:10095000953041F48091E80080FFFCCF206820931F
:10096000E30021C1963009F05FC0EB8CFC8C109243
:10097000E9001092CA011092C901123091F510924B
:10098000C8011092C7010E944C0299E0BE016F5F3E
:100990007F4FDB01E92F1D92EA95E9F799831A83CE
:1009A00091E09E8390EA98879AEF99872091C901F8
:1009B0003091CA01275F3F4F3C832B838D83109278
:1009C000E9001092CA011092C901F092C801E092A8
:1009D000C70149E050E080E00E94AC010E944C0257
:1009E000E2C0F092C801E092C7010E94D408DC0185
:1009F0001296ED90FC901397E114F10409F4C0C035
:100A0000D701ED91FC910480F581E02DBE016B5E74
:100A10007F4FC7010995009719F00CF0C4C0C7C0FB
:100A2000F701E084F184E8CF973009F4C0C0983032
:100A300021F481E08093F100B6C0993009F0B3C091
:100A4000837009F0B4C0EFE0F1E081E021E036E32B
:100A50009081992361F08093E9002093EB009191BC
:100A60009093EC003093ED008F5F873089F78EE72D
:100A70008093EA001092EA008F898093D90193C095
:100A80008B8D9C8D1092E9001092CA011092C901C1
:100A90009093C8018093C701898D811156C08E89BA
:100AA0009D89913A59F4813209F081C047E050E0C4
:100AB00064E071E080E00E94AC0175C0913209F001
:100AC00076C0833289F4888D90E0982F88272F890B
:100AD000822BA0E0B0E08093000190930101A093ED
:100AE0000201B09303015FC0803269F48091E80095
:100AF00082FFFCCF67E084E091E00E94D3018BEF9E
:100B00008093E80006C0823209F04DC08F8980933F
:100B10000B018091CC01882319F0EEEFFAE002C0BE
:100B2000E0E0F8E08091040190910501A0910601B8
:100B3000B0910701803B9440A105B10509F07BC04D
:100B400080910B0180FF93C076C00E94D408DC0125
:100B500012960D911C9113970115110541F1D801C1
:100B6000ED91FC910190F081E02DBE016B5E7F4F15
:100B7000C8010995811117C0F80100851185ECCFD6
:100B8000113009F44EC0133091F48F89882309F491
:100B900045C0823081F440E862E189E491E00E943E
:100BA0006F01882321F08EEF8093E80079C081E205
:100BB0008093EB0075C0813029F440E868E080E460
:100BC00091E0EDCF833099F70E94D408DC011296B2
:100BD000ED90FC9013978E010F5F1F4F6801E11499
:100BE000F10479F0D701ED91FC910680F781E02DB9
:100BF000B801C7010995080F111DF701E084F184C0
:100C0000EECFD8011C92F60101900020E9F7319750
:100C1000BF016C197D0940E0C601C1CF6AE271E0F5
:100C200002C06EE271E06115710509F2FB014491A9
:100C300050E080E840CF0FB6F894A895809160000E
:100C4000886180936000109260000FBEA895EE3F0F
:100C50002AE0F20739F08091FE0A9091FF0A918311
:100C60008083A1CF1092FF0A1092FE0A9CCFEE3F24
:100C70008AE0F80731F0808191819093FF0A809398
:100C8000FE0A87E797E7918380839BE088E10FB6B0
:100C9000F894A895809360000FBE9093600083CF76
:100CA0006C960FB6F894DEBF0FBECDBFDF91CF912B
:100CB000FF91EF91BF91AF919F918F917F916F9134
:100CC0005F914F913F912F911F910F91FF90EF9066
:100CD000DF90CF900F900FBE0F901F9018951F922E
:100CE0000F920FB60F9211242F933F934F935F9360
:100CF0006F937F938F939F93AF93BF93EF93FF93E4
:100D00008091C60187FF05C0109285001092840073
:100D10001BC02091C601022E000C330B80914E02A5
:100D200090E02817390784F48091C601082E000C42
:100D3000990BFC01EE0FFF1F8E0F9F1FFC01E65D5C
:100D4000FD4F808186FD15C08091C6018F5F809325
:100D5000C6012091C601022E000C330B80914E0279
:100D600090E028173907C4F48091C6018C3064F1F3
:100D700013C08091C601082E000C990BFC01EE0FE8
:100D8000FF1F8E0F9F1FFC01E65DFD4F808160E01D
:100D90008F730E941109D8CF8091840090918500B3
:100DA000049680349C4918F480E49CE905C0809145
:100DB0008400909185000496909389008093880028
:100DC0008FEF8093C6013BC0209184003091850055
:100DD0008091C601082E000C990BFC01EE0FFF1F3D
:100DE0008E0F9F1FFC01E65DFD4F81819281820F76
:100DF000931F90938900809388008091C601082EEC
:100E0000000C990BFC01EE0FFF1F8E0F9F1FFC01C2
:100E1000E65DFD4F808186FF12C08091C601082EDD
:100E2000000C990BFC01EE0FFF1F8E0F9F1FFC01A2
:100E3000E65DFD4F808161E08F730E941109FF9193
:100E4000EF91BF91AF919F918F917F916F915F9142
:100E50004F913F912F910F900FBE0F901F901895BB
:100E600090E0FC013197EF30F105B0F5EA5AFF4F01
:100E70000C94490D809180008F7703C08091800091
:100E80008F7D80938000089580918000877FF9CFC7
:100E900084B58F7702C084B58F7D84BD089580911D
:100EA00090008F7707C0809190008F7D03C0809164
:100EB0009000877F8093900008958091C0008F7785
:100EC00003C08091C0008F7D8093C0000895809101
:100ED000C200877F8093C2000895BC01009791F003
:100EE000FC0101900020E9F73197AF01481B590B35
:100EF000E091DA01F091DB010280F381E02D8AEDCF
:100F000091E0099480E090E008958F929F92AF92D3
:100F1000BF92CF92DF92EF92FF920F931F93CF93E6
:100F2000DF93CDB7DEB7A1970FB6F894DEBF0FBE43
:100F3000CDBF6C01990FEE08FF08F7FE31C0E091BC
:100F4000DA01F091DB010190F081E02D6DE28AED94
:100F500091E009958C0122273327A9012C193D091D
:100F60004E095F0919A2CE0181967C019AE0892E73
:100F7000912CA12CB12CCA01B901A50194010E94A8
:100F80000C0D605DF70162937F012115310541056C
:100F9000510589F7CF010E946D07080F191F1EC068
:100FA000A701960119A28E010F5D1F4F8AE0C82E7E
:100FB000D12CE12CF12CCA01B901A70196010E94A4
:100FC0000C0D605DF80162938F012115310541051B
:100FD000510589F7CF010E946D078C0180E891E0EF
:100FE0000E946D07800F911FA1960FB6F894DEBF87
:100FF0000FBECDBFDF91CF911F910F91FF90EF906A
:10100000DF90CF90BF90AF909F908F900895CF9337
:10101000DF930E946D07EC0180E891E00E946D076C
:101020008C0F9D1FDF91CF910895CF92DF92EF92A9
:10103000FF92DC01A03282E0B8070CF03EC0B7FDA1
:1010400006C0A53BB1052CF0A4EBB0E002C0A0E0C7
:10105000B0E08091600228E830E06901C81AD10848
:1010600087FDD394CC0CDD1CCC0CDD1C0D2C000CAE
:10107000EE08FF088091610228E532E0281B310963
:1010800087FD3395220F331F220F331FA901330F22
:10109000660B770B9A01AB012C193D094E095F09CC
:1010A0000E94040D24EB30E040E050E00E94DA0C96
:1010B000C20ED31EE41EF51ED60190915F029C3035
:1010C00098F58091600248E850E0481B510987FD7F
:1010D0005395440F551F440F551FA417B5078CF0A7
:1010E0008091610228E532E0281B310987FD3395A4
:1010F000220F331F220F331FAD012A173B070CF4B9
:10110000A90142505109440F551F2FB7F894892F58
:1011100090E0FC01EE0FFF1F8E0F9F1FFC01E65DAC
:10112000FD4F528341832FBFFF90EF90DF90CF9010
:101130000895FC018091D901811103C08FEF9FEFC9
:1011400008959FB7F89482E08093E9002091F2001F
:1011500030E01216130614F421E030E021153105B9
:1011600059F0289884E68093D8018091F10080831B
:101170008091F200882319F09FBFC90108958BE682
:101180008093E800F9CF2FB7F89483E08093E900CB
:101190009091E800892F807295FF04C09091F20031
:1011A00080E4891B2FBF08958091660281110DC0D4
:1011B00082E08093620284E0809363021092650271
:1011C0001092640281E08093660282E692E00895C4
:1011D000CF93DF93282F30E0F901EC53FE4F849139
:1011E000F901EB55FE4FD491F901EA57FE4FC49136
:1011F000CC2391F081110E943007EC2FF0E0EE0F2C
:10120000FF1FE858FE4FA591B491EC91ED2381E0CA
:1012100090E021F480E002C080E090E0DF91CF9187
:1012200008951F93CF93DF93282F30E0F901EC53FB
:10123000FE4F8491F901EB55FE4FD491F901EA5725
:10124000FE4FC491CC23C9F0162F81110E943007A4
:10125000EC2FF0E0EE0FFF1FE659FE4FA591B49181
:101260008FB7F894111105C09C91ED2FE095E923FB
:1012700002C0EC91ED2BEC938FBFDF91CF911F91CA
:101280000895CF93DF9390E0FC01EB55FE4F24913E
:10129000FC01EA57FE4F8491882361F190E0880FAA
:1012A000991FFC01E45AFE4FC591D491FC01E65907
:1012B000FE4FA591B491611109C09FB7F894888140
:1012C000209582238883EC912E230BC0623061F439
:1012D0009FB7F8943881822F809583238883EC917F
:1012E0002E2B2C939FBF06C08FB7F894E8812E2B2E
:1012F00028838FBFDF91CF9108950F931F93CF93D2
:10130000DF9300915302109154020115110561F40D
:1013100080915E02882341F083E891E0DF91CF91D4
:101320001F910F910C940708C0915902D0915A0255
:1013300061E0802F0E944109209709F480C0CF3FCF
:10134000D10509F47EC0F801FF27EC53FE4FE4916C
:101350004E2F50E0FA013197EF30F10508F06CC0E4
:10136000EB59FF4F0C94490D84B5806884BDC7BD0F
:1013700070C084B5806284BDC8BD6BC080918000A0
:10138000806880938000D0938900C093880061C0FA
:1013900080918000806280938000D0938B00C09306
:1013A0008A0057C080918000886080938000D0932D
:1013B0008D00C0938C004DC0809190008068809318
:1013C0009000D0939900C093980043C08091900002
:1013D000806280939000D0939B00C0939A0039C0A4
:1013E00080919000886080939000D0939D00C0937E
:1013F0009C002FC08091C00080688093C0008091C5
:10140000C0008F7B8093C000C093CF0022C080912A
:10141000C00080628093C000C093D0001AC0809149
:10142000C20088608093C2008091C2008B7F80934D
:10143000C200C093D2000DC0C038D10514F460E0E2
:1014400001C061E0802FDF91CF911F910F910C942B
:101450001109DF91CF911F910F910895CF93DF93E1
:10146000EC0180915B02813009F444C02091590263
:1014700030915A0290915E0212161306DCF4992301
:1014800019F0C9010E9485078091590290915A0272
:10149000049790935A02809359020E947D096091AB
:1014A0005C0270915D02072E000C880B990B0E9464
:1014B000C402DCCF81E080935B0220914F02309127
:1014C00050023093540220935302992399F08FE9EC
:1014D00091E00E94070880915B0290E00E948507DE
:1014E00081EB91E00E940708809153029091540291
:1014F0000E9485078091590290915A02C817D90716
:10150000E4F58091590290915A02C817D907E4F581
:1015100020915E0221110E948507809159029091CD
:101520005A02049790935A02809359020E947D09AF
:1015300060915C0270915D02072E000C880B990B84
:101540000E94C402DECF20915E0221110E94850715
:101550008091590290915A02049690935A02809376
:1015600059020E947D0960915C0270915D02072E14
:10157000000C880B990B0E94C40280915902909133
:101580005A028C179D07FCF2DF91CF910895789451
:1015900084B5826084BD84B5816084BD85B5826078
:1015A00085BD85B5816085BD80916E008160809329
:1015B0006E00109281008091810082608093810092
:1015C00080918100816080938100809180008160A2
:1015D000809380008091910082608093910080913F
:1015E0009100816080939100809190008160809350
:1015F00090008091C10084608093C1008091C100FF
:1016000082608093C1008091C10081608093C1009D
:101610008091C30081608093C3008091C00082608C
:101620008093C0008091C20081608093C20080914D
:101630007A00846080937A0080917A00826080933F
:101640007A0080917A00816080937A0080917A009C
:10165000806880937A001092D9011092CE01109286
:10166000CD018091D70081608093D70080EA80937C
:10167000D80089B5806189BD89B5826089BD09B40A
:1016800000FEFDCF61E070E080E090E00E94C402C7
:101690008091D8008F7C80618093D8008091E00099
:1016A000807F8093E0008091E1008E7E8093E10056
:1016B0008DE08093E200559A209AEEEFFFE7859146
:1016C00094918B3F9C4D19F481E08093CC018FEF76
:1016D0009FEF9093E7018093E60180914F029091F4
:1016E0005002009769F061E00E944109C0914F02E9
:1016F00061E08C2F0E94410960E08C2F0E9411094B
:101700008091510290915202009769F061E00E942D
:101710004109C091510261E08C2F0E94410960E0B3
:101720008C2F0E94110980915502909156020097CA
:1017300041F061E00E94410961E0809155020E9400
:1017400011098091570290915802009741F061E091
:101750000E94410961E0809157020E941109809125
:101760005E02882321F087E291E00E94070881E071
:1017700080935E0286E391E00E94070860E088E0C3
:101780000E94410960E087E00E94410960E086E034
:101790000E94410961E085E00E94410961E085E025
:1017A0000E94110980915F028C3008F051C061E005
:1017B00089E00E94410980915F02E82FF0E09F01DB
:1017C000220F331FE20FF31FE65DFD4F9081907CE7
:1017D0009960908310926002109261026CE00E9406
:1017E0003D0D9CE0899FB001112440E050E09A013A
:1017F000260F371FF901EE0FFF1F2E0F3F1FF901B4
:10180000E65DFD4F908196FD16C04F5F5F4F4C30F7
:10181000510569F781110FC01092800082E080931A
:1018200081001092850010928400B19A80916F001F
:10183000826080936F00E0915F02F0E0CF01880F3B
:10184000991FE80FF91FE65DFD4F8081806480835A
:10185000C0E0D0E088E00E94E808019739F48AEF00
:1018600090E00E942E0A89E491E006C080E090E0BA
:101870000E942E0A81E591E00E94070887E00E94FD
:10188000E808019761F580910C0190910D01843B6E
:10189000910589F480E090E00E94150868EE73E0FD
:1018A00080E090E00E94C40210920D0110920C01A1
:1018B0008AE591E012C084EB90E00E94150868EE82
:1018C00073E080E090E00E94C40284EB90E090938B
:1018D0000D0180930C018CE691E00E94070868ECF2
:1018E00070E080E090E00E94C402209709F4B2CF3B
:1018F0000E940000AFCF1092DD011092DC0188EE53
:1019000093E0A0E0B0E08093DE019093DF01A0932C
:10191000E001B093E10189E191E09093DB018093D4
:10192000DA018FEF9FEF9093E7018093E6018091BA
:101930004E028C30A0F491E0980F90934E02809369
:101940005F0290E0FC01EE0FFF1F8E0F9F1FFC0156
:10195000E65DFD4F88EB9BE09283818303C08FEFB0
:1019600080935F0283E090E09093500280934F0257
:10197000109252021092510290935402809353029B
:1019800080E190E090935602809355028EE090E0C3
:10199000909358028093570210925A021092590263
:1019A00081E080935B0285E090E090935D028093FC
:1019B0005C020895052E97FB1EF400940E94F10C22
:1019C00057FD07D00E940C0D07FC03D04EF40C9479
:1019D000F10C50954095309521953F4F4F4F5F4FFB
:1019E000089590958095709561957F4F8F4F9F4F8B
:1019F00008950E942E0DA59F900DB49F900DA49F59
:101A0000800D911D11240895B7FF0C94F90C0E94CC
:101A1000F90C821B930B0895A1E21A2EAA1BBB1B83
:101A2000FD010DC0AA1FBB1FEE1FFF1FA217B307AA
:101A3000E407F50720F0A21BB30BE40BF50B661FC0
:101A4000771F881F991F1A9469F760957095809584
:101A500090959B01AC01BD01CF010895A29FB001FB
:101A6000B39FC001A39F700D811D1124911DB29FD2
:101A7000700D811D1124911D0895991B79E004C0FA
:101A8000991F961708F0961B881F7A95C9F78095BD
:101A90000895EE0FFF1F0590F491E02D099481E069
:0C1AA00090E0F8940C94540DF894FFCFE3
:101AAC00FFFFFFFF00E1000000000000B40000C1D8
:101ABC008081000000000000000B02FE027E02216B
:101ACC00022C028202A00273657475702066696E26
:101ADC00697368656400646562756767696E672021
:101AEC00656E6162656C65640050756D70206F6E1B
:101AFC000050756D70206F6666004368616E676597
:101B0C0020736572766F20746F2030004368616EAD
:101B1C00676520736572766F20746F2031383000E2
:101B2C000D0A004572726F723A20616374697665B2
:101B3C0050574D50696E206973207A65726F00445E
:101B4C006972656374696F6E206973206E6F773A82
:101B5C000041637469766550574D70696E206973E6
:061B6C00206E6F773A00C5
:00000001FF
