:100000000C94F8000C9420010C9420010C94200115
:100010000C9420010C9420010C9420010C942001DC
:100020000C9420010C9420010C94D8030C944A04E5
:100030000C9420010C9420010C9420010C942001BC
:100040000C9420010C9420010C9420010C942001AC
:100050000C9420010C9420010C9420010C94DC09D8
:100060000C9420010C9420010C9420010C9420018C
:100070000C9420010C9420010C9420010C9420017C
:100080000C9420010C9420010C9420010C9420016C
:100090000C9420010C9420010C9420010C9420015C
:1000A0000C9420010C9420010C9420015E03630346
:1000B000680372037C03C603C603C603860390036A
:1000C0009A03A403B103C603B903DC07DF07CE0715
:1000D000D207D807000800080008E307E707EB0786
:1000E000F107F5070008FB07070605040100080AE9
:1000F0000B0C0D09080B00020202010009040000AC
:100100000102020000052400100105240101010480
:10011000240206052406000107058103100040099A
:10012000040100020A000000070502024000000767
:100130000583024000000403090412010002EF02DB
:1001400001404F1B039200010102030153706172D1
:100150006B46756E00537061726B46756E205072FF
:100160006F204D6963726F000000000024002700BB
:100170002A002D00300000000000250028002B0080
:100180002E003100000000002300260029002C0072
:100190002F00040404040403040502020202040301
:1001A0000202020206060606060604040202020411
:1001B0000404080201104080401020408040800864
:1001C00002040180402010020110801020404020D5
:1001D0000000000200090F0000030401000C0000F1
:1001E0000000000000000000000000000000260ADF
:1001F00011241FBECFEFDAE0DEBFCDBF11E0A0E0DB
:10020000B1E0E0E6FFE102C005900D92A43BB1072A
:10021000D9F722E0A4EBB1E001C01D92A337B207E9
:10022000E1F710E0C8EFD0E004C02197FE010E9482
:10023000670DC73FD107C9F70E94960A0C94AE0F0D
:100240000C9400004091B6015091B7012091B40187
:100250003091B50142175307B4F49091E8009570BE
:10026000E1F39091E80092FD19C08093F100809134
:10027000B6019091B70101968F739927892B19F4D4
:100280008EEF8093E8008091B6019091B7010196BE
:100290009093B7018093B60181E0089580E00895BE
:1002A000CF92DF92EF92FF920F931F93CF93DF9342
:1002B0001F92CDB7DEB7182F062FE42E862F880F9A
:1002C0008E5F99830E94220183E00E942201F12E19
:1002D000C12E9981D92E8C2D8F19801798F4F60193
:1002E000E7FE02C0849101C080810E942201182F84
:1002F00080E00E9422018123FFEFCF1ADF0A8111E3
:10030000EACF01C081E00F90DF91CF911F910F9153
:10031000FF90EF90DF90CF900895DF92EF92FF92E1
:100320000F931F93CF93DF93D82E8A017B01E40EA6
:10033000F51EEB01CE15DF0571F0D7FE03C0FE01FF
:10034000849101C088810E94220121968111F2CFFF
:100350008FEF9FEF01C0C801DF91CF911F910F91E7
:10036000FF90EF90DF900895615030F02091F10000
:10037000FC0120830196F8CF289884E68093BC0185
:100380000895CF92DF92EF92FF920F931F93CF9336
:10039000DF936C017A018B01C0E0D0E0CE15DF0560
:1003A00089F0D8016D918D01D601ED91FC910190FC
:1003B000F081E02DC6010995892B11F47E0102C060
:1003C0002196ECCFC701DF91CF911F910F91FF9044
:1003D000EF90DF90CF900895CF93DF931F92CDB72A
:1003E000DEB76983DC01ED91FC910280F381E02DA1
:1003F00041E050E0BE016F5F7F4F09950F90DF91A4
:10040000CF91089583E08093E9008091F2008823E2
:1004100019F08AE38093E8000895FC0184859585AE
:1004200097FD0BC09FB7F89482E08093E90080911C
:10043000F2009FBF90E0019608959FB7F89482E084
:100440008093E9008091F2009FBF90E008950895A5
:1004500080E090E008950E94A90F0F931F93CF931F
:10046000DF931F92CDB7DEB782E0898342E450E08C
:1004700064EF70E080E80E948D010E942209DC0197
:1004800012960D911C9113970115110569F0D80171
:10049000ED91FC910280F381E02DBE016F5F7F4FF3
:1004A000C801099597FF07C089810F90DF91CF910F
:1004B0001F910F910895F80100851185E5CF8F9266
:1004C0009F92AF92BF92CF92DF92EF92FF920F93E3
:1004D0001F93CF93DF935C016B017A0180910B0135
:1004E000882309F45BC08091BD01882309F456C0BC
:1004F0008091BA0180FF05C08091E0008260809306
:10050000E000E70110E00AEF83E0882E9AE3992EDD
:100510002097D9F10E94110981110AC0015009F4F4
:100520003DC061E070E080E090E00E94A209F0CF61
:10053000282F30E0C217D3070CF48C2F4FB7F89454
:100540008092E9009091E80095FF1DC0282F30E0CF
:10055000C21BD30BF601982F915020F0819180930C
:10056000F100FACFC20ED31E112319F09092E800C9
:1005700009C08091E80085FD06C09092E80011E076
:10058000209709F010E04FBFC3CF1111C3CF5D9882
:1005900084E68093B8011E141F0444F081E090E0CB
:1005A000F5019383828380E090E001C0C701DF9171
:1005B000CF911F910F91FF90EF90DF90CF90BF9060
:1005C000AF909F908F9008950E94110990E0089538
:1005D0000F931F93CF93DF931F92CDB7DEB78C019C
:1005E000FC018485958597FF0EC0CE0101960E947F
:1005F000E708019719F4298130E002C02FEF3FEF9F
:10060000F80135872487F801848595850F90DF915F
:10061000CF911F910F910895CF93DF931F92CDB784
:10062000DEB7FC018485958597FD05C02FEF3FEF70
:10063000358724870BC0CE0101960E94E7080197F9
:1006400019F4898190E002C08FEF9FEF0F90DF9146
:10065000CF9108950F931F93CF93DF93FC010481F3
:1006600015810115110559F42785222341F081E3F5
:1006700091E0DF91CF911F910F910C94A808FC019C
:10068000C285D38561E0802F0E946609209709F416
:1006900080C0CF3FD10509F47EC0F801FF27E053A9
:1006A000FE4FE4914E2F50E0FA013197EF30F10503
:1006B00008F06CC0EA5AFF4F0C94670D84B580684F
:1006C00084BDC7BD70C084B5806284BDC8BD6BC029
:1006D00080918000806880938000D0938900C093CF
:1006E000880061C080918000806280938000D093F8
:1006F0008B00C0938A0057C08091800088608093EF
:100700008000D0938D00C0938C004DC080919000EC
:10071000806880939000D0939900C093980043C064
:1007200080919000806280939000D0939B00C09352
:100730009A0039C080919000886080939000D09397
:100740009D00C0939C002FC08091C0008068809362
:10075000C0008091C0008F7B8093C000C093CF0009
:1007600022C08091C00080628093C000C093D000FE
:100770001AC08091C20088608093C2008091C2003C
:100780008B7F8093C200C093D2000DC0C038D105CA
:1007900014F460E001C061E0802FDF91CF911F91E0
:1007A0000F910C943609DF91CF911F910F9108950D
:1007B0001F920F920FB60F9211248F939F938091E7
:1007C000E1009091E100937F9093E10083FF0FC0DF
:1007D0001092E90091E09093EB001092EC0092E30C
:1007E0009093ED001092BD0198E09093F00082FF8D
:1007F00020C093E09093E9009091F200992319F0C2
:100800009AE39093E8009091B801992339F0909180
:10081000B80191509093B801992389F19091BC014E
:10082000992339F09091BC0191509093BC01992388
:1008300041F184FF10C08091E2008E7E8160809340
:10084000E2008091E1008F7E8093E1008091BA0107
:100850008E7E806111C080FF16C08091E2008E7E86
:1008600080618093E2008091E1008E7E8093E100C0
:100870008091BA018E7E81608093BA0104C05D9A36
:10088000CDCF289AD6CF9F918F910F900FBE0F900A
:100890001F9018951F920F920FB60F921124CF92AE
:1008A000DF92EF92FF920F931F932F933F934F93FB
:1008B0005F936F937F938F939F93AF93BF93EF93C8
:1008C000FF93CF93DF93CDB7DEB76C97DEBFCDBF7D
:1008D0001092E9008091E80083FFEDC168E0CE014D
:1008E00045960E94B40182EF8093E8008D8987FFCE
:1008F00005C09091E80090FFFCCF03C09EEF90935D
:10090000E800982F907609F0C6C09E892F89188D2F
:1009100091110CC0803829F48091BB018093F100C3
:1009200002C01092F1001092F10048C1422F50E035
:10093000512B913051F4811141C14130510509F0E1
:100940003DC18091BB018D7F0BC0933061F481115B
:1009500035C14130510509F031C18091BB01826040
:100960008093BB012BC1953041F48091E80080FF5A
:10097000FCCF20682093E30021C1963009F05FC0CE
:10098000EB8CFC8C1092E9001092B7011092B6012A
:10099000123091F51092B5011092B4010E942D020F
:1009A00099E0BE016F5F7F4FDB01E92F1D92EA9551
:1009B000E9F799831A8391E09E8390EA98879AEFEA
:1009C00099872091B6013091B701275F3F4F3C8353
:1009D0002B838D831092E9001092B7011092B6011B
:1009E000F092B501E092B40149E050E080E00E944D
:1009F0008D010E942D02E2C0F092B501E092B40197
:100A00000E942209DC011296ED90FC901397E114EC
:100A1000F10409F4C0C0D701ED91FC910480F58187
:100A2000E02DBE016B5E7F4FC7010995009719F05D
:100A30000CF0C4C0C7C0F701E084F184E8CF973060
:100A400009F4C0C0983021F481E08093F100B6C071
:100A5000993009F0B3C0837009F0B4C0EDE0F1E063
:100A600081E021E036E39081992361F08093E900F1
:100A70002093EB0091919093EC003093ED008F5F09
:100A8000873089F78EE78093EA001092EA008F8919
:100A90008093BD0193C08B8D9C8D1092E9001092C4
:100AA000B7011092B6019093B5018093B401898D7E
:100AB000811156C08E899D89913A59F4813209F08D
:100AC00081C047E050E064E071E080E00E948D0169
:100AD00075C0913209F076C0833289F4888D90E038
:100AE000982F88272F89822BA0E0B0E08093000107
:100AF00090930101A0930201B09303015FC0803283
:100B000069F48091E80082FFFCCF67E084E091E027
:100B10000E94B4018BEF8093E80006C0823209F096
:100B20004DC08F8980930B018091B901882319F002
:100B3000EEEFFAE002C0E0E0F8E08091040190916D
:100B40000501A0910601B0910701803B9440A105E9
:100B5000B10509F07BC080910B0180FF93C076C086
:100B60000E942209DC0112960D911C911397011528
:100B7000110541F1D801ED91FC910190F081E02D3A
:100B8000BE016B5E7F4FC8010995811117C0F80146
:100B900000851185ECCF113009F44EC0133091F46B
:100BA0008F89882309F445C0823081F440E862E1EE
:100BB00085E591E00E945001882321F08EEF80931B
:100BC000E80079C081E28093EB0075C0813029F4A0
:100BD00040E868E08CE491E0EDCF833099F70E9423
:100BE0002209DC011296ED90FC9013978E010F5FA5
:100BF0001F4F6801E114F10479F0D701ED91FC91E8
:100C00000680F781E02DB801C7010995080F111D75
:100C1000F701E084F184EECFD8011C92F601019037
:100C20000020E9F73197BF016C197D0940E0C6014A
:100C3000C1CF66E371E002C06AE371E0611571053E
:100C400009F2FB01449150E080E840CF0FB6F894E0
:100C5000A895809160008861809360001092600088
:100C60000FBEA895EE3F2AE0F20739F08091FE0A08
:100C70009091FF0A91838083A1CF1092FF0A109276
:100C8000FE0A9CCFEE3F8AE0F80731F08081918127
:100C90009093FF0A8093FE0A87E797E7918380830A
:100CA0009BE088E10FB6F894A895809360000FBE92
:100CB0009093600083CF6C960FB6F894DEBF0FBEA2
:100CC000CDBFDF91CF91FF91EF91BF91AF919F91F8
:100CD0008F917F916F915F914F913F912F911F91D4
:100CE0000F91FF90EF90DF90CF900F900FBE0F907D
:100CF0001F9018951F93CF93DF93EC018881998102
:100D0000009761F061E00E946609188161E0812F1F
:100D10000E94660960E0812F0E9436098A819B81CA
:100D2000009761F061E00E9466091A8161E0812FFD
:100D30000E94660960E0812F0E9436098E819F81A2
:100D4000009739F061E00E94660961E08E810E949F
:100D5000360988859985009739F061E00E94660917
:100D600061E088850E9436098F85882339F08DE4FB
:100D700091E0DF91CF911F910C94A808DF91CF9162
:100D80001F910895FF920F931F93CF93DF93EC0170
:100D9000F62E8A018C856817B1F12A853B859F85DF
:100DA00012161306B4F4992319F0C9010E94B6086B
:100DB0008A859B8504979B878A87CE010E942A0398
:100DC0006D857E85072E000C880B990B0E94A20969
:100DD000E4CFFC86FF2009F44FC0288139813D8390
:100DE0002C83992381F08CE591E00E94A8088C85E2
:100DF00090E00E94B6088EE691E00E94A8088C81DF
:100E00009D810E94B6088A859B850817190774F58D
:100E10008A859B850817190794F52F8521110E9453
:100E2000B6088A859B8504979B878A87CE010E9496
:100E30002A036D857E85072E000C880B990B0E9476
:100E4000A209E6CF2F8521110E94B6088A859B85CD
:100E500004969B878A87CE010E942A036D857E8532
:100E6000072E000C880B990B0E94A2098A859B858E
:100E7000801791073CF303C02A813B81B0CFDF91FB
:100E8000CF911F910F91FF900895CF92DF92EF9233
:100E9000FF92CF93DF93EC01EE85E23108F0E2514F
:100EA000F0E0E851FF4FE49180917B00E3FB2227C3
:100EB00020F930E095E0220F331F9A95E1F78F7DFE
:100EC000282B20937B00E770E064E0937C00809106
:100ED0007A00806480937A0080917A0086FDFCCF4E
:100EE000609178008091790070E0782B798768872D
:100EF000072E000C880B990B0E94820E20E030E038
:100F000040E85AE30E94370F20E030E44CE955E412
:100F10000E94370F6B017C016C837D838E839F83DE
:100F20008C859D85BC01990F880B990B0E94820EC0
:100F30009B01AC01C701B6010E946D0D6B017C01E4
:100F40008A859B85BC01990F880B990B0E94820EA4
:100F50009B01AC01C701B6010E94DF0D6883798354
:100F60008A839B83DF91CF91FF90EF90DF90CF90AA
:100F70000895E091BE01F091BF010190F081E02D54
:100F8000682F8EEB91E0099490E0FC013197EF30EF
:100F9000F105B0F5EB59FF4F0C94670D809180007F
:100FA0008F7703C0809180008F7D809380000895AB
:100FB00080918000877FF9CF84B58F7702C084B598
:100FC0008F7D84BD0895809190008F7707C08091B8
:100FD00090008F7D03C080919000877F8093900068
:100FE00008958091C0008F7703C08091C0008F7DED
:100FF0008093C00008958091C200877F8093C200D3
:101000000895CF93DF93282F30E0F901E053FE4F8E
:101010008491F901EF54FE4FD491F901EE56FE4F41
:10102000C491CC2391F081110E94C407EC2FF0E011
:10103000EE0FFF1FEC57FE4FA591B491EC91ED23FD
:1010400081E090E021F480E002C080E090E0DF9158
:10105000CF9108953FB7F894809163029091640214
:10106000A0916502B091660226B5A89B05C02F3FEE
:1010700019F00196A11DB11D3FBFBA2FA92F982FBE
:101080008827820F911DA11DB11DBC01CD0142E039
:10109000660F771F881F991F4A95D1F70895BC01E5
:1010A000009791F0FC0101900020E9F73197AF0122
:1010B000481B590BE091BE01F091BF010280F38102
:1010C000E02D8EEB91E0099480E090E008958F92FE
:1010D0009F92AF92BF920F931F93CF93DF93CDB7A1
:1010E000DEB7A1970FB6F894DEBF0FBECDBF19A231
:1010F000423008F44AE08E010F5D1F4F842E912C80
:10110000A12CB12CA50194010E94450DE62FB90137
:10111000CA0101501109EA3014F4E05D01C0E95C34
:10112000D801EC93232B242B252B61F7C8010E94B7
:101130004F08A1960FB6F894DEBF0FBECDBFDF916A
:10114000CF911F910F91BF90AF909F908F90089576
:10115000CF93DF930E944F08EC0183E891E00E9457
:101160004F088C0F9D1FDF91CF910895CF92DF9292
:10117000EF92FF92CF93DF936C01990FEE08FF0877
:10118000F7FE12C08DE20E94B907EC0166277727AF
:10119000CB016C197D098E099F094AE00E946708FE
:1011A0007C01EC0EFD1E06C04AE0C701B6010E949C
:1011B00067087C0183E891E00E944F088E0D9F1D17
:1011C000DF91CF91FF90EF90DF90CF900895FC01D9
:1011D0008091BD01811103C08FEF9FEF08959FB7EC
:1011E000F89482E08093E9002091F20030E012163A
:1011F000130614F421E030E02115310559F0289848
:1012000084E68093BC018091F10080838091F2009C
:10121000882319F09FBFC90108958BE68093E800E9
:10122000F9CF2FB7F89483E08093E9009091E8001C
:10123000892F807295FF04C09091F20080E4891B91
:101240002FBF089580916B0281110DC082E08093C1
:10125000670284E08093680210926A021092690229
:1012600081E080936B0287E692E008951F93CF930D
:10127000DF93282F30E0F901E053FE4F8491F9010C
:10128000EF54FE4FD491F901EE56FE4FC491CC239A
:10129000C9F0162F81110E94C407EC2FF0E0EE0F69
:1012A000FF1FEA58FE4FA591B4918FB7F894111122
:1012B00005C09C91ED2FE095E92302C0EC91ED2B48
:1012C000EC938FBFDF91CF911F910895CF93DF9360
:1012D00090E0FC01EF54FE4F2491FC01EE56FE4FCE
:1012E0008491882361F190E0880F991FFC01E859EF
:1012F000FE4FC591D491FC01EA58FE4FA591B491DF
:10130000611109C09FB7F894888120958223888352
:10131000EC912E230BC0623061F49FB7F8943881B2
:10132000822F809583238883EC912E2B2C939FBF53
:1013300006C08FB7F894E8812E2B28838FBFDF91EA
:10134000CF9108958F929F92AF92BF92CF92DF92EA
:10135000EF92FF926B017C010E942A084B015C0115
:10136000C114D104E104F104F1F00E942A08DC0167
:10137000CB0188199909AA09BB09883E9340A105A8
:10138000B10570F321E0C21AD108E108F10888EE36
:10139000880E83E0981EA11CB11CC114D104E10485
:1013A000F10419F7DDCFFF90EF90DF90CF90BF9061
:1013B000AF909F908F9008951F920F920FB60F924B
:1013C00011242F933F938F939F93AF93BF9380915B
:1013D0005F0290916002A0916102B091620230912F
:1013E0005E0223E0230F2D3720F40196A11DB11DCD
:1013F00005C026E8230F0296A11DB11D20935E02B1
:1014000080935F0290936002A0936102B0936202A6
:101410008091630290916402A0916502B09166028E
:101420000196A11DB11D8093630290936402A09365
:101430006502B0936602BF91AF919F918F913F91EA
:101440002F910F900FBE0F901F901895EEEBF1E0CB
:101450001382128288EE93E0A0E0B0E0848395834B
:10146000A683B78387E191E0918380838FEF9FEF1D
:1014700095878487EEE3F2E083E090E091838083B8
:10148000138212829583848380E190E09783868320
:101490008EE090E0918780871386128621E0248772
:1014A00085E090E096878587EEE2F2E049E050E043
:1014B0005183408366E070E0738362835583448385
:1014C00017821682118610861386128624879687C5
:1014D0008587EEE1F2E0108211821282138214827B
:1014E0001582168217821186108622E430E0338737
:1014F00022878AEB99E09587848742E150E05787FD
:101500004687EEE0F2E0108211821282138214828A
:101510001582168217821186108633872287958757
:10152000848785E190E0978786870895789484B5CD
:10153000826084BD84B5816084BD85B5826085BDCF
:1015400085B5816085BD80916E00816080936E005D
:10155000109281008091810082608093810080914F
:101560008100816080938100809180008160809300
:101570008000809191008260809391008091910021
:1015800081608093910080919000816080939000B1
:101590008091C10084608093C1008091C10082600D
:1015A0008093C1008091C10081608093C1008091CF
:1015B000C30081608093C3008091C00082608093EB
:1015C000C0008091C20081608093C20080917A0047
:1015D000846080937A0080917A00826080937A00A0
:1015E00080917A00816080937A0080917A0080688F
:1015F00080937A001092BD011092BB011092BA0143
:101600008091D70081608093D70080EA8093D800D2
:1016100089B5806189BD89B5826089BD09B400FE44
:10162000FDCF61E070E080E090E00E94A20980912F
:10163000D8008F7C80618093D8008091E000807F0B
:101640008093E0008091E1008E7E8093E1008DE048
:101650008093E200559A209AEEEFFFE785919491EE
:101660008B3F9C4D19F481E08093B9018FEF9FEF80
:101670009093CB018093CA018EE392E00E947A0698
:101680008EE292E00E947A0660E088E00E9466099D
:1016900060E087E00E94660960E084E00E946609DD
:1016A00061E085E00E94660961E085E00E943609FC
:1016B00000E010E0C1E0D0E088E00E9401087C0179
:1016C00081E0E816F10409F0D4C180915C029091A8
:1016D0005D02892B09F0CDC18CEA91E00E94A80837
:1016E0004AEF50E061E08EE392E00E94C206F09281
:1016F0005B02E0925A0287E00E940108019769F5B7
:1017000086E891E00E94A8082DEC3CEC4CE45FE3F5
:10171000609156027091570280915802909159023F
:101720000E94DA0D87FF09C0809154029091550202
:10173000892B19F44AEF50E03FC040E050E060E0F0
:101740008EE292E00E94C206D0935502C0935402EA
:1017500010925D0210925C0234C084E00E94010885
:10176000019741F58FE891E00E94A8081092550278
:101770001092540226E636E646EE5EE3609156028B
:101780007091570280915802909159020E94320F35
:10179000181664F44AEF50E061E08EE292E00E9495
:1017A000C20689E991E00E94A8080BC044E650E017
:1017B00061E003C040E050E060E08EE292E00E9411
:1017C000C20623E333E343E75FE36091560270917F
:1017D000570280915802909159020E94370F6B0175
:1017E0007C018EE192E00E9445072DEC3CEC4CE43C
:1017F0005DE30E94370F9B01AC01C701B6010E9457
:101800006E0D609356027093570280935802909326
:10181000590223E333E343E75FE3609150027091A1
:10182000510280915202909153020E94370F6B0136
:101830007C018EE092E00E9445072DEC3CEC4CE4EC
:101840005DE30E94370F9B01AC01C701B6010E9406
:101850006E0D6B017C016093500270935102809376
:1018600052029093530220E030E0A9010E94320F0F
:10187000A0905A02B0905B0218165CF42AE939E98C
:1018800049EB5FE3C701B6010E94320F18165CF006
:1018900017C02AE939E949EB5FEBC701B6010E949D
:1018A000DA0D87FF0DC080914E0290914F02892B77
:1018B00039F4A114B10421F0D0934F02C0934E0229
:1018C000AB2821F410924F0210924E0220E030E03B
:1018D000A901C701B6010E94320F18165CF426E672
:1018E00036E646EA5FE3C701B6010E94DA0D87FFDC
:1018F00015C00AC026E636E646EA5FEBC701B60128
:101900000E94320F181654F480914E0290914F02AB
:10191000892B21F0D0935D02C0935C02A701960150
:10192000C701B6010E94A40F882319F080EA91E054
:101930001AC046015701E894B7F82FEF3FEF4FE781
:101940005FE7C501B4010E94A40F81110FC02FEF02
:101950003FEF4FE75FE7C501B4010E94DA0D1816AB
:101960002CF484EA91E00E944F0872C02FEF3FEF01
:101970004FE75FE4C701B6010E94320F18161CF44E
:1019800088EA91E0F0CF2FEF3FEF4FE75FECC70120
:10199000B6010E94DA0D87FDF3CF20E030E0A90107
:1019A000C701B6010E94DA0D87FF07C08DE20E94D1
:1019B000B907F7FAF094F7F8F0942AE037ED43EA24
:1019C0005BE3C701B6010E946E0D4B015C010E94F2
:1019D000510E6B017C010E94800E9B01AC01C50180
:1019E000B4010E946D0D4B015C014AE0C701B601D4
:1019F0000E9467088EE20E94B90720E030E040E2D2
:101A000051E4C501B4010E94370F4B015C010E94F3
:101A1000510E6B01E12CF12C4AE0C701B6010E9486
:101A20006708C701B6010E94800E9B01AC01C50189
:101A3000B4010E946D0D20E030E040E251E40E94CC
:101A4000370F0E94510E80E090E04AE00E94670844
:101A500083E891E00E944F086AE070E080E090E047
:101A60000E94A2090115110509F426CE0E9400006A
:101A700023CE40E050E061E08EE392E00E94C20697
:101A800010925B0210925A0236CEA1E21A2EAA1BC5
:101A9000BB1BFD010DC0AA1FBB1FEE1FFF1FA2171E
:101AA000B307E407F50720F0A21BB30BE40BF50B1B
:101AB000661F771F881F991F1A9469F760957095A4
:101AC000809590959B01AC01BD01CF010895EE0F6B
:101AD000FF1F0590F491E02D09945058BB27AA27C9
:101AE0000E94850D0C94F80E0E94EA0E38F00E94B8
:101AF000F10E20F039F49F3F19F426F40C94E70E10
:101B00000EF4E095E7FB0C94E10EE92F0E94090F1B
:101B100058F3BA17620773078407950720F079F422
:101B2000A6F50C942B0F0EF4E0950B2EBA2FA02DDA
:101B30000B01B90190010C01CA01A0011124FF277A
:101B4000591B99F0593F50F4503E68F11A16F04075
:101B5000A22F232F342F4427585FF3CF4695379574
:101B60002795A795F0405395C9F77EF41F16BA0B39
:101B7000620B730B840BBAF09150A1F0FF0FBB1FE7
:101B8000661F771F881FC2F70EC0BA0F621F731F30
:101B9000841F48F4879577956795B795F7959E3F8D
:101BA00008F0B0CF9395880F08F09927EE0F97951E
:101BB000879508950E94BD0E08F481E008950E9463
:101BC000F30D0C94F80E0E94F10E58F00E94EA0EEC
:101BD00040F029F45F3F29F00C94E10E51110C9470
:101BE0002C0F0C94E70E0E94090F68F39923B1F3B0
:101BF000552391F3951B550BBB27AA276217730733
:101C0000840738F09F5F5F4F220F331F441FAA1FC6
:101C1000A9F335D00E2E3AF0E0E832D09150504082
:101C2000E695001CCAF72BD0FE2F29D0660F771F30
:101C3000881FBB1F261737074807AB07B0E809F016
:101C4000BB0B802DBF01FF2793585F4F3AF09E3F9B
:101C5000510578F00C94E10E0C942C0F5F3FE4F3E7
:101C6000983ED4F3869577956795B795F7959F5FDE
:101C7000C9F7880F911D9695879597F90895E1E02A
:101C8000660F771F881FBB1F621773078407BA0789
:101C900020F0621B730B840BBA0BEE1F88F7E095E4
:101CA00008950E94110F88F09F5798F0B92F992737
:101CB000B751B0F0E1F0660F771F881F991F1AF037
:101CC000BA95C9F714C0B13091F00E942B0FB1E062
:101CD00008950C942B0F672F782F8827B85F39F061
:101CE000B93FCCF3869577956795B395D9F73EF4D0
:101CF00090958095709561957F4F8F4F9F4F089578
:101D0000E89409C097FB3EF4909580957095619595
:101D10007F4F8F4F9F4F9923A9F0F92F96E9BB274B
:101D20009395F695879577956795B795F111F8CFC7
:101D3000FAF4BB0F11F460FF1BC06F5F7F4F8F4F32
:101D40009F4F16C0882311F096E911C0772321F028
:101D50009EE8872F762F05C0662371F096E8862FC0
:101D600070E060E02AF09A95660F771F881FDAF717
:101D7000880F9695879597F90895990F0008550F44
:101D8000AA0BE0E8FEEF16161706E807F907C0F001
:101D900012161306E407F50798F0621B730B840B09
:101DA000950B39F40A2661F0232B242B252B21F4E3
:101DB00008950A2609F4A140A6958FEF811D811D83
:101DC000089597F99F6780E870E060E008959FEFBD
:101DD00080EC089500240A941616170618060906C2
:101DE000089500240A941216130614060506089591
:101DF000092E0394000C11F4882352F0BB0F40F419
:101E0000BF2B11F460FF04C06F5F7F4F8F4F9F4F58
:101E1000089557FD9058440F551F59F05F3F71F0DA
:101E20004795880F97FB991F61F09F3F79F0879541
:101E30000895121613061406551FF2CF4695F1DFCA
:101E400008C0161617061806991FF1CF869571055A
:101E5000610508940895E894BB2766277727CB018E
:101E600097F908950E94BD0E08F48FEF08950E941F
:101E70004A0F0C94F80E0E94EA0E38F00E94F10E00
:101E800020F0952311F00C94E10E0C94E70E112430
:101E90000C942C0F0E94090F70F3959FC1F3950FBE
:101EA00050E0551F629FF001729FBB27F00DB11DDE
:101EB000639FAA27F00DB11DAA1F649F6627B00D6E
:101EC000A11D661F829F2227B00DA11D621F739F57
:101ED000B00DA11D621F839FA00D611D221F749F65
:101EE0003327A00D611D231F849F600D211D822FAC
:101EF000762F6A2F11249F5750409AF0F1F08823D3
:101F00004AF0EE0FFF1FBB1F661F771F881F9150FF
:101F10005040A9F79E3F510580F00C94E10E0C94BF
:101F20002C0F5F3FE4F3983ED4F386957795679541
:101F3000B795F795E7959F5FC1F7FE2B880F911D29
:101F40009695879597F908950E94BD0E880B990B79
:101F5000089581E090E0F8940C94AE0FF894FFCFD0
:101F6000FFFFFFFF00E100000000000000C18081D2
:101F700000000000000000EC015F02E40202020D1C
:101F8000020C03E80215001200090006000300100D
:101F9000004572726F723A206163746976655057BA
:101FA0004D50696E206973207A65726F0073657495
:101FB00075702066696E697368656400446972654E
:101FC0006374696F6E206973206E6F773A004163A6
:101FD0007469766550574D70696E206973206E6F15
:101FE000773A000D0A004F70656E206C69640043FB
:101FF0006C6F7365206C696400426F6F73742100AD
:102000006E616E00696E66006F76660050756D7069
:04201000206F6E00CF
:00000001FF
