:100000000C94F8000C9420010C9420010C94200115
:100010000C9420010C9420010C9420010C942001DC
:100020000C9420010C9420010C94D8030C944A04E5
:100030000C9420010C9420010C9420010C942001BC
:100040000C9420010C9420010C9420010C942001AC
:100050000C9420010C9420010C9420010C9468094C
:100060000C9420010C9420010C9420010C9420018C
:100070000C9420010C9420010C9420010C9420017C
:100080000C9420010C9420010C9420010C9420016C
:100090000C9420010C9420010C9420010C9420015C
:1000A0000C9420010C9420010C9420015E03630346
:1000B000680372037C03C603C603C603860390036A
:1000C0009A03A403B103C603B90368076B075A0771
:1000D0005E0764078C078C078C076F077307770729
:1000E0007D0781078C078707080B000202020100C9
:1000F000090400000102020000052400100105248B
:1001000001010104240206052406000107058103FC
:1001100010004009040100020A0000000705020265
:100120004000000705830240000004030904120197
:100130000002EF0201404F1B039200010102030184
:10014000537061726B46756E00537061726B4675C9
:100150006E2050726F204D6963726F0007060504B0
:100160000100080A0B0C0D09000000002400270004
:100170002A002D00300000000000250028002B0080
:100180002E003100000000002300260029002C0072
:100190002F00040404040403040502020202040301
:1001A0000202020206060606060604040202020411
:1001B0000404080201104080401020408040800864
:1001C00002040180402010020110801020404020D5
:1001D0000000000200090F0000030401000C0000F1
:1001E0000000000000000000000000000000B20954
:1001F00011241FBECFEFDAE0DEBFCDBF11E0A0E0DB
:10020000B1E0ECEFFDE102C005900D92A23BB10719
:10021000D9F722E0A2EBB1E001C01D92A735B207E9
:10022000E1F710E0C8EFD0E004C02197FE010E9482
:10023000B50CC73FD107C9F70E940E0A0C94FC0EFB
:100240000C9400004091B4015091B5012091B2018D
:100250003091B30142175307B4F49091E8009570C0
:10026000E1F39091E80092FD19C08093F100809134
:10027000B4019091B50101968F739927892B19F4D8
:100280008EEF8093E8008091B4019091B5010196C2
:100290009093B5018093B40181E0089580E00895C2
:1002A000CF92DF92EF92FF920F931F93CF93DF9342
:1002B0001F92CDB7DEB7182F062FE42E862F880F9A
:1002C0008E5F99830E94220183E00E942201F12E19
:1002D000C12E9981D92E8C2D8F19801798F4F60193
:1002E000E7FE02C0849101C080810E942201182F84
:1002F00080E00E9422018123FFEFCF1ADF0A8111E3
:10030000EACF01C081E00F90DF91CF911F910F9153
:10031000FF90EF90DF90CF900895DF92EF92FF92E1
:100320000F931F93CF93DF93D82E8A017B01E40EA6
:10033000F51EEB01CE15DF0571F0D7FE03C0FE01FF
:10034000849101C088810E94220121968111F2CFFF
:100350008FEF9FEF01C0C801DF91CF911F910F91E7
:10036000FF90EF90DF900895615030F02091F10000
:10037000FC0120830196F8CF289884E68093BA0187
:100380000895CF92DF92EF92FF920F931F93CF9336
:10039000DF936C017A018B01C0E0D0E0CE15DF0560
:1003A00089F0D8016D918D01D601ED91FC910190FC
:1003B000F081E02DC6010995892B11F47E0102C060
:1003C0002196ECCFC701DF91CF911F910F91FF9044
:1003D000EF90DF90CF900895CF93DF931F92CDB72A
:1003E000DEB76983DC01ED91FC910280F381E02DA1
:1003F00041E050E0BE016F5F7F4F09950F90DF91A4
:10040000CF91089583E08093E9008091F2008823E2
:1004100019F08AE38093E8000895FC0184859585AE
:1004200097FD0BC09FB7F89482E08093E90080911C
:10043000F2009FBF90E0019608959FB7F89482E084
:100440008093E9008091F2009FBF90E008950895A5
:1004500080E090E008950E94F70E0F931F93CF93D2
:10046000DF931F92CDB7DEB782E0898342E450E08C
:1004700068EE70E080E80E948D010E94AE08DC0109
:1004800012960D911C9113970115110569F0D80171
:10049000ED91FC910280F381E02DBE016F5F7F4FF3
:1004A000C801099597FF07C089810F90DF91CF910F
:1004B0001F910F910895F80100851185E5CF8F9266
:1004C0009F92AF92BF92CF92DF92EF92FF920F93E3
:1004D0001F93CF93DF935C016B017A0180910B0135
:1004E000882309F45BC08091BB01882309F456C0BE
:1004F0008091B80180FF05C08091E0008260809308
:10050000E000E70110E00AEF83E0882E9AE3992EDD
:100510002097D9F10E949D0881110AC0015009F469
:100520003DC061E070E080E090E00E942E09F0CFD5
:10053000282F30E0C217D3070CF48C2F4FB7F89454
:100540008092E9009091E80095FF1DC0282F30E0CF
:10055000C21BD30BF601982F915020F0819180930C
:10056000F100FACFC20ED31E112319F09092E800C9
:1005700009C08091E80085FD06C09092E80011E076
:10058000209709F010E04FBFC3CF1111C3CF5D9882
:1005900084E68093B6011E141F0444F081E090E0CD
:1005A000F5019383828380E090E001C0C701DF9171
:1005B000CF911F910F91FF90EF90DF90CF90BF9060
:1005C000AF909F908F9008950E949D0890E00895AD
:1005D0000F931F93CF93DF931F92CDB7DEB78C019C
:1005E000FC018485958597FF0EC0CE0101960E947F
:1005F0007308019719F4298130E002C02FEF3FEF13
:10060000F80135872487F801848595850F90DF915F
:10061000CF911F910F910895CF93DF931F92CDB784
:10062000DEB7FC018485958597FD05C02FEF3FEF70
:10063000358724870BC0CE0101960E94730801976D
:1006400019F4898190E002C08FEF9FEF0F90DF9146
:10065000CF9108950F931F93CF93DF93FC010481F3
:1006600015810115110559F42785222341F08FE2E8
:1006700091E0DF91CF911F910F910C943408FC0110
:10068000C285D38561E0802F0E94F208209709F48B
:1006900080C0CF3FD10509F47EC0F801FF27E053A9
:1006A000FE4FE4914E2F50E0FA013197EF30F10503
:1006B00008F06CC0EA5AFF4F0C94B50C84B5806802
:1006C00084BDC7BD70C084B5806284BDC8BD6BC029
:1006D00080918000806880938000D0938900C093CF
:1006E000880061C080918000806280938000D093F8
:1006F0008B00C0938A0057C08091800088608093EF
:100700008000D0938D00C0938C004DC080919000EC
:10071000806880939000D0939900C093980043C064
:1007200080919000806280939000D0939B00C09352
:100730009A0039C080919000886080939000D09397
:100740009D00C0939C002FC08091C0008068809362
:10075000C0008091C0008F7B8093C000C093CF0009
:1007600022C08091C00080628093C000C093D000FE
:100770001AC08091C20088608093C2008091C2003C
:100780008B7F8093C200C093D2000DC0C038D105CA
:1007900014F460E001C061E0802FDF91CF911F91E0
:1007A0000F910C94C208DF91CF911F910F91089582
:1007B0001F920F920FB60F9211248F939F938091E7
:1007C000E1009091E100937F9093E10083FF0FC0DF
:1007D0001092E90091E09093EB001092EC0092E30C
:1007E0009093ED001092BB0198E09093F00082FF8F
:1007F00020C093E09093E9009091F200992319F0C2
:100800009AE39093E8009091B601992339F0909182
:10081000B60191509093B601992389F19091BA0154
:10082000992339F09091BA0191509093BA0199238C
:1008300041F184FF10C08091E2008E7E8160809340
:10084000E2008091E1008F7E8093E1008091B80109
:100850008E7E806111C080FF16C08091E2008E7E86
:1008600080618093E2008091E1008E7E8093E100C0
:100870008091B8018E7E81608093B80104C05D9A3A
:10088000CDCF289AD6CF9F918F910F900FBE0F900A
:100890001F9018951F920F920FB60F921124CF92AE
:1008A000DF92EF92FF920F931F932F933F934F93FB
:1008B0005F936F937F938F939F93AF93BF93EF93C8
:1008C000FF93CF93DF93CDB7DEB76C97DEBFCDBF7D
:1008D0001092E9008091E80083FFEDC168E0CE014D
:1008E00045960E94B40182EF8093E8008D8987FFCE
:1008F00005C09091E80090FFFCCF03C09EEF90935D
:10090000E800982F907609F0C6C09E892F89188D2F
:1009100091110CC0803829F48091B9018093F100C5
:1009200002C01092F1001092F10048C1422F50E035
:10093000512B913051F4811141C14130510509F0E1
:100940003DC18091B9018D7F0BC0933061F481115D
:1009500035C14130510509F031C18091B901826042
:100960008093B9012BC1953041F48091E80080FF5C
:10097000FCCF20682093E30021C1963009F05FC0CE
:10098000EB8CFC8C1092E9001092B5011092B4012E
:10099000123091F51092B3011092B2010E942D0213
:1009A00099E0BE016F5F7F4FDB01E92F1D92EA9551
:1009B000E9F799831A8391E09E8390EA98879AEFEA
:1009C00099872091B4013091B501275F3F4F3C8357
:1009D0002B838D831092E9001092B5011092B4011F
:1009E000F092B301E092B20149E050E080E00E9451
:1009F0008D010E942D02E2C0F092B301E092B2019B
:100A00000E94AE08DC011296ED90FC901397E11461
:100A1000F10409F4C0C0D701ED91FC910480F58187
:100A2000E02DBE016B5E7F4FC7010995009719F05D
:100A30000CF0C4C0C7C0F701E084F184E8CF973060
:100A400009F4C0C0983021F481E08093F100B6C071
:100A5000993009F0B3C0837009F0B4C0EDE0F1E063
:100A600081E021E036E39081992361F08093E900F1
:100A70002093EB0091919093EC003093ED008F5F09
:100A8000873089F78EE78093EA001092EA008F8919
:100A90008093BB0193C08B8D9C8D1092E9001092C6
:100AA000B5011092B4019093B3018093B201898D86
:100AB000811156C08E899D89913A59F4813209F08D
:100AC00081C047E050E064E071E080E00E948D0169
:100AD00075C0913209F076C0833289F4888D90E038
:100AE000982F88272F89822BA0E0B0E08093000107
:100AF00090930101A0930201B09303015FC0803283
:100B000069F48091E80082FFFCCF67E084E091E027
:100B10000E94B4018BEF8093E80006C0823209F096
:100B20004DC08F8980930B018091B701882319F004
:100B3000EEEFFAE002C0E0E0F8E08091040190916D
:100B40000501A0910601B0910701803B9440A105E9
:100B5000B10509F07BC080910B0180FF93C076C086
:100B60000E94AE08DC0112960D911C91139701159D
:100B7000110541F1D801ED91FC910190F081E02D3A
:100B8000BE016B5E7F4FC8010995811117C0F80146
:100B900000851185ECCF113009F44EC0133091F46B
:100BA0008F89882309F445C0823081F440E862E1EE
:100BB00089E491E00E945001882321F08EEF809318
:100BC000E80079C081E28093EB0075C0813029F4A0
:100BD00040E868E080E491E0EDCF833099F70E942F
:100BE000AE08DC011296ED90FC9013978E010F5F1A
:100BF0001F4F6801E114F10479F0D701ED91FC91E8
:100C00000680F781E02DB801C7010995080F111D75
:100C1000F701E084F184EECFD8011C92F601019037
:100C20000020E9F73197BF016C197D0940E0C6014A
:100C3000C1CF6AE271E002C06EE271E06115710538
:100C400009F2FB01449150E080E840CF0FB6F894E0
:100C5000A895809160008861809360001092600088
:100C60000FBEA895EE3F2AE0F20739F08091FE0A08
:100C70009091FF0A91838083A1CF1092FF0A109276
:100C8000FE0A9CCFEE3F8AE0F80731F08081918127
:100C90009093FF0A8093FE0A87E797E7918380830A
:100CA0009BE088E10FB6F894A895809360000FBE92
:100CB0009093600083CF6C960FB6F894DEBF0FBEA2
:100CC000CDBFDF91CF91FF91EF91BF91AF919F91F8
:100CD0008F917F916F915F914F913F912F911F91D4
:100CE0000F91FF90EF90DF90CF900F900FBE0F907D
:100CF0001F9018951F93CF93DF93EC018881998102
:100D0000009761F061E00E94F208188161E0812F94
:100D10000E94F20860E0812F0E94C2088A819B81B4
:100D2000009761F061E00E94F2081A8161E0812F72
:100D30000E94F20860E0812F0E94C2088E819F818C
:100D4000009739F061E00E94F20861E08E810E9414
:100D5000C20888859985009739F061E00E94F20801
:100D600061E088850E94C2088F85882339F08BE472
:100D700091E0DF91CF911F910C943408DF91CF91D6
:100D80001F910895FF920F931F93CF93DF93EC0170
:100D9000F62E8A018C856817B1F12A853B859F85DF
:100DA00012161306B4F4992319F0C9010E944208DF
:100DB0008A859B8504979B878A87CE010E942A0398
:100DC0006D857E85072E000C880B990B0E942E09DD
:100DD000E4CFFC86FF2009F44FC0288139813D8390
:100DE0002C83992381F08AE591E00E9434088C8558
:100DF00090E00E9442088CE691E00E9434088C81C9
:100E00009D810E9442088A859B850817190774F501
:100E10008A859B850817190794F52F8521110E9453
:100E200042088A859B8504979B878A87CE010E940A
:100E30002A036D857E85072E000C880B990B0E9476
:100E40002E09E6CF2F8521110E9442088A859B85B5
:100E500004969B878A87CE010E942A036D857E8532
:100E6000072E000C880B990B0E942E098A859B8502
:100E7000801791073CF303C02A813B81B0CFDF91FB
:100E8000CF911F910F91FF900895E091BC01F091D7
:100E9000BD010190F081E02D682F8CEB91E0099469
:100EA00090E0FC013197EF30F105B0F5EB59FF4FC1
:100EB0000C94B50C809180008F7703C080918000E6
:100EC0008F7D80938000089580918000877FF9CF87
:100ED00084B58F7702C084B58F7D84BD08958091DD
:100EE00090008F7707C0809190008F7D03C0809124
:100EF0009000877F8093900008958091C0008F7745
:100F000003C08091C0008F7D8093C00008958091C0
:100F1000C200877F8093C2000895CF93DF93282F6C
:100F200030E0F901E053FE4F8491F901EF54FE4F98
:100F3000D491F901EE56FE4FC491CC2391F081116A
:100F40000E945007EC2FF0E0EE0FFF1FEC57FE4F12
:100F5000A591B491EC91ED2381E090E021F480E043
:100F600002C080E090E0DF91CF9108953FB7F89400
:100F70008091470290914802A0914902B0914A02A3
:100F800026B5A89B05C02F3F19F00196A11DB11DE4
:100F90003FBFBA2FA92F982F8827820F911DA11D1F
:100FA000B11DBC01CD0142E0660F771F881F991F5C
:100FB0004A95D1F70895BC01009791F0FC0101908A
:100FC0000020E9F73197AF01481B590BE091BC01B4
:100FD000F091BD010280F381E02D8CEB91E009944A
:100FE00080E090E008958F929F92AF92BF920F930E
:100FF0001F93CF93DF93CDB7DEB7A1970FB6F894C9
:10100000DEBF0FBECDBF19A2423008F44AE08E0108
:101010000F5D1F4F842E912CA12CB12CA5019401A2
:101020000E94930CE62FB901CA0101501109EA3060
:1010300014F4E05D01C0E95CD801EC93232B242B70
:10104000252B61F7C8010E94DB07A1960FB6F89423
:10105000DEBF0FBECDBFDF91CF911F910F91BF902B
:10106000AF909F908F900895CF93DF930E94DB07FE
:10107000EC0181E891E00E94DB078C0F9D1FDF915E
:10108000CF910895CF92DF92EF92FF92CF93DF93AB
:101090006C01990FEE08FF08F7FE12C08DE20E9466
:1010A0004507EC0166277727CB016C197D098E096E
:1010B0009F094AE00E94F3077C01EC0EFD1E06C06A
:1010C0004AE0C701B6010E94F3077C0181E891E084
:1010D0000E94DB078E0D9F1DDF91CF91FF90EF9057
:1010E000DF90CF900895FC018091BB01811103C076
:1010F0008FEF9FEF08959FB7F89482E08093E90007
:101100002091F20030E01216130614F421E030E0D2
:101110002115310559F0289884E68093BA01809111
:10112000F10080838091F200882319F09FBFC901EC
:1011300008958BE68093E800F9CF2FB7F89483E009
:101140008093E9009091E800892F807295FF04C098
:101150009091F20080E4891B2FBF089580914F0287
:1011600081110DC082E080934B0284E080934C0299
:1011700010924E0210924D0281E080934F028BE458
:1011800092E008951F93CF93DF93282F30E0F90169
:10119000E053FE4F8491F901EF54FE4FD491F901D1
:1011A000EE56FE4FC491CC23C9F0162F81110E9438
:1011B0005007EC2FF0E0EE0FFF1FEA58FE4FA5910D
:1011C000B4918FB7F894111105C09C91ED2FE09563
:1011D000E92302C0EC91ED2BEC938FBFDF91CF910F
:1011E0001F910895CF93DF9390E0FC01EF54FE4FE1
:1011F0002491FC01EE56FE4F8491882361F190E02A
:10120000880F991FFC01E859FE4FC591D491FC014C
:10121000EA58FE4FA591B491611109C09FB7F894A7
:101220008881209582238883EC912E230BC0623025
:1012300061F49FB7F8943881822F80958323888347
:10124000EC912E2B2C939FBF06C08FB7F894E881AA
:101250002E2B28838FBFDF91CF9108958F929F927D
:10126000AF92BF92CF92DF92EF92FF926B017C011F
:101270000E94B6074B015C01C114D104E104F104E2
:10128000F1F00E94B607DC01CB0188199909AA097F
:10129000BB09883E9340A105B10570F321E0C21A55
:1012A000D108E108F10888EE880E83E0981EA11CA1
:1012B000B11CC114D104E104F10419F7DDCFFF9092
:1012C000EF90DF90CF90BF90AF909F908F90089558
:1012D0001F920F920FB60F9211242F933F938F936B
:1012E0009F93AF93BF938091430290914402A0914A
:1012F0004502B09146023091420223E0230F2D3780
:1013000020F40196A11DB11D05C026E8230F029609
:10131000A11DB11D20934202809343029093440289
:10132000A0934502B09346028091470290914802F3
:10133000A0914902B0914A020196A11DB11D80936E
:10134000470290934802A0934902B0934A02BF918A
:10135000AF919F918F913F912F910F900FBE0F9062
:101360001F901895ECEBF1E01382128288EE93E067
:10137000A0E0B0E084839583A683B78387E191E002
:10138000918380838FEF9FEF95878487ECE2F2E073
:1013900083E090E09183808313821282958384831B
:1013A00080E190E0978386838EE090E0918780874C
:1013B0001386128621E0248785E090E09687858752
:1013C000ECE1F2E049E050E05183408366E070E0F8
:1013D0007383628355834483178216821186108635
:1013E00013861286248796878587ECE0F2E01082C8
:1013F000118212821382148215821682178211863C
:10140000108682E490E0938782878AEB99E0958743
:10141000848782E190E0978786870895789484B5E1
:10142000826084BD84B5816084BD85B5826085BDE0
:1014300085B5816085BD80916E00816080936E006E
:101440001092810080918100826080938100809160
:101450008100816080938100809180008160809311
:101460008000809191008260809391008091910032
:1014700081608093910080919000816080939000C2
:101480008091C10084608093C1008091C10082601E
:101490008093C1008091C10081608093C1008091E0
:1014A000C30081608093C3008091C00082608093FC
:1014B000C0008091C20081608093C20080917A0058
:1014C000846080937A0080917A00826080937A00B1
:1014D00080917A00816080937A0080917A008068A0
:1014E00080937A001092BB011092B9011092B8015A
:1014F0008091D70081608093D70080EA8093D800E4
:1015000089B5806189BD89B5826089BD09B400FE55
:10151000FDCF61E070E080E090E00E942E098091B4
:10152000D8008F7C80618093D8008091E000807F1C
:101530008093E0008091E1008E7E8093E1008DE059
:101540008093E200559A209AEEEFFFE785919491FF
:101550008B3F9C4D19F481E08093B7018FEF9FEF93
:101560009093C9018093C8018CE292E00E947A06B0
:101570008CE192E00E947A0660E088E00E94F20826
:1015800060E087E00E94F20860E084E00E94F208D8
:1015900061E085E00E94F20861E085E00E94C208F7
:1015A00000E010E0C1E0D0E088E00E948D070197E4
:1015B00039F484E891E00E9434084AEF50E002C018
:1015C00040E050E061E08CE292E00E94C20687E0D9
:1015D0000E948D07019749F58CE891E00E9434083C
:1015E0002CEE31E548EB5EE360913E0270913F02E4
:1015F00080914002909141020E94280D87FF09C00E
:1016000080913C0290913D02892B19F44AEF50E001
:101610003BC040E050E060E08CE192E00E94C206F6
:10162000D0933D02C0933C0234C084E00E948D07F9
:10163000019741F585E991E00E94340810923D023E
:1016400010923C022DEC3CEC4CEC5DE360913E02D0
:1016500070913F0280914002909141020E94800E61
:10166000181664F44AEF50E061E08CE192E00E94C9
:10167000C2068FE991E00E9434080BC044E650E0B6
:1016800061E003C040E050E060E08CE192E00E9445
:10169000C20623E333E343E75FE360913E027091C8
:1016A0003F0280914002909141020E94850E6B01A1
:1016B0007C01E0911A02E23108F0E251F0E0E45AD4
:1016C000FE4FE49120917B00E3FB222420F8312C93
:1016D000C10135E0880F991F3A95E1F7922F9F7D60
:1016E000892B80937B00E770E064E0937C0080911D
:1016F0007A00806480937A0080917A0086FDFCCF26
:10170000609178008091790070E0782B70931502D9
:1017100060931402072E000C880B990B0E94D00DC9
:1017200020E030E040E85AE30E94850E20E030E4FB
:101730004CE955E40E94850E4B015C016093100258
:101740007093110280931202909313026091180219
:1017500070911902072E000C880B990B0E94D00D76
:101760009B01AC01C501B4010E94BB0C4B015C01A3
:101770006091160270911702072E000C880B990BCE
:101780000E94D00D9B01AC01C501B4010E942D0D3A
:1017900060930C0270930D0280930E0290930F02DF
:1017A0002DEC3CEC4CE45DE30E94850E9B01AC010A
:1017B000C701B6010E94BC0C6B017C014B015C01AE
:1017C00060933E0270933F028093400290934102E7
:1017D0009B01AC010E94F20E882319F086EA91E089
:1017E0001AC026013701E89477F82FEF3FEF4FE753
:1017F0005FE7C301B2010E94F20E81110FC02FEF0B
:101800003FEF4FE75FE7C301B2010E94280D1816B2
:101810002CF48AEA91E00E94DB0774C02FEF3FEFBF
:101820004FE75FE4C701B6010E94800E18161CF452
:101830008EEA91E0F0CF2FEF3FEF4FE75FECC7016B
:10184000B6010E94280D87FDF3CF20E030E0A9010A
:10185000C701B6010E94280D87FF09C08DE20E94D2
:10186000450746015701B7FAB094B7F8B0942AE09B
:1018700037ED43EA5BE3C501B4010E94BC0C4B01A8
:101880005C010E949F0D6B017C010E94CE0D9B01AB
:10189000AC01C501B4010E94BB0C4B015C014AE0E4
:1018A000C701B6010E94F3078EE20E94450720E0BF
:1018B00030E040E251E4C501B4010E94850E4B01C5
:1018C0005C010E949F0D6B01E12CF12C4AE0C701E5
:1018D000B6010E94F307C701B6010E94CE0D9B011D
:1018E000AC01C501B4010E94BB0C20E030E040E235
:1018F00051E40E94850E0E949F0D80E090E04AE036
:101900000E94F30781E891E00E94DB076AE070E043
:1019100080E090E00E942E090115110509F444CEE3
:101920000E94000041CEA1E21A2EAA1BBB1BFD01A2
:101930000DC0AA1FBB1FEE1FFF1FA217B307E407AE
:10194000F50720F0A21BB30BE40BF50B661F771F06
:10195000881F991F1A9469F76095709580959095E6
:101960009B01AC01BD01CF010895EE0FFF1F059053
:10197000F491E02D09945058BB27AA270E94D30C5C
:101980000C94460E0E94380E38F00E943F0E20F054
:1019900039F49F3F19F426F40C94350E0EF4E095BB
:1019A000E7FB0C942F0EE92F0E94570E58F3BA173D
:1019B000620773078407950720F079F4A6F50C9465
:1019C000790E0EF4E0950B2EBA2FA02D0B01B90164
:1019D00090010C01CA01A0011124FF27591B99F0A5
:1019E000593F50F4503E68F11A16F040A22F232FB1
:1019F000342F4427585FF3CF469537952795A79501
:101A0000F0405395C9F77EF41F16BA0B620B730BA7
:101A1000840BBAF09150A1F0FF0FBB1F661F771F18
:101A2000881FC2F70EC0BA0F621F731F841F48F4CD
:101A3000879577956795B795F7959E3F08F0B0CF56
:101A40009395880F08F09927EE0F9795879508953D
:101A50000E940B0E08F481E008950E94410D0C9441
:101A6000460E0E943F0E58F00E94380E40F029F4B6
:101A70005F3F29F00C942F0E51110C947A0E0C94A8
:101A8000350E0E94570E68F39923B1F3552391F355
:101A9000951B550BBB27AA2762177307840738F0DD
:101AA0009F5F5F4F220F331F441FAA1FA9F335D03A
:101AB0000E2E3AF0E0E832D091505040E695001CEE
:101AC000CAF72BD0FE2F29D0660F771F881FBB1FA8
:101AD000261737074807AB07B0E809F0BB0B802D86
:101AE000BF01FF2793585F4F3AF09E3F510578F0B2
:101AF0000C942F0E0C947A0E5F3FE4F3983ED4F3CF
:101B0000869577956795B795F7959F5FC9F7880F85
:101B1000911D9695879597F90895E1E0660F771FD7
:101B2000881FBB1F621773078407BA0720F0621B68
:101B3000730B840BBA0BEE1F88F7E09508950E9493
:101B40005F0E88F09F5798F0B92F9927B751B0F0E2
:101B5000E1F0660F771F881F991F1AF0BA95C9F731
:101B600014C0B13091F00E94790EB1E008950C9448
:101B7000790E672F782F8827B85F39F0B93FCCF3FB
:101B8000869577956795B395D9F73EF490958095AE
:101B9000709561957F4F8F4F9F4F0895E89409C0CE
:101BA00097FB3EF490958095709561957F4F8F4F90
:101BB0009F4F9923A9F0F92F96E9BB279395F695A6
:101BC000879577956795B795F111F8CFFAF4BB0F24
:101BD00011F460FF1BC06F5F7F4F8F4F9F4F16C088
:101BE000882311F096E911C0772321F09EE8872F12
:101BF000762F05C0662371F096E8862F70E060E0CE
:101C00002AF09A95660F771F881FDAF7880F969546
:101C1000879597F90895990F0008550FAA0BE0E8EA
:101C2000FEEF16161706E807F907C0F0121613069E
:101C3000E407F50798F0621B730B840B950B39F4DE
:101C40000A2661F0232B242B252B21F408950A2644
:101C500009F4A140A6958FEF811D811D089597F984
:101C60009F6780E870E060E008959FEF80EC089542
:101C700000240A941616170618060906089500246B
:101C80000A9412161306140605060895092E0394E5
:101C9000000C11F4882352F0BB0F40F4BF2B11F459
:101CA00060FF04C06F5F7F4F8F4F9F4F089557FDB8
:101CB0009058440F551F59F05F3F71F04795880FBA
:101CC00097FB991F61F09F3F79F087950895121651
:101CD00013061406551FF2CF4695F1DF08C01616FD
:101CE00017061806991FF1CF8695710561050894AE
:101CF0000895E894BB2766277727CB0197F90895C5
:101D00000E940B0E08F48FEF08950E94980E0C9419
:101D1000460E0E94380E38F00E943F0E20F09523A8
:101D200011F00C942F0E0C94350E11240C947A0E95
:101D30000E94570E70F3959FC1F3950F50E0551F09
:101D4000629FF001729FBB27F00DB11D639FAA2710
:101D5000F00DB11DAA1F649F6627B00DA11D661F5F
:101D6000829F2227B00DA11D621F739FB00DA11D80
:101D7000621F839FA00D611D221F749F3327A00D3A
:101D8000611D231F849F600D211D822F762F6A2FD6
:101D900011249F5750409AF0F1F088234AF0EE0F3B
:101DA000FF1FBB1F661F771F881F91505040A9F768
:101DB0009E3F510580F00C942F0E0C947A0E5F3FDD
:101DC000E4F3983ED4F3869577956795B795F795A4
:101DD000E7959F5FC1F7FE2B880F911D969587951C
:101DE00097F908950E940B0E880B990B089581E0D6
:0C1DF00090E0F8940C94FC0EF894FFCFE7
:101DFC00FFFFFFFF00E100000000000000C1808138
:101E0C0000000000000000EC015F02E40202020D81
:101E1C00020C03E802120009000600030010004542
:101E2C0072726F723A2061637469766550574D50C7
:101E3C00696E206973207A65726F007365747570B2
:101E4C002066696E697368656400446972656374C1
:101E5C00696F6E206973206E6F773A004163746905
:101E6C00766550574D70696E206973206E6F773AA6
:101E7C00000D0A0050756D70206F6E004F70656E0E
:101E8C00206C696400436C6F7365206C696400425C
:101E9C006F6F737421006E616E00696E66006F76F1
:021EAC006600CE
:00000001FF
