:100000000C94EB000C9413010C9413010C94130149
:100010000C9413010C9413010C9413010C94130110
:100020000C9413010C9413010C9439030C94AB033E
:100030000C9413010C9413010C9413010C941301F0
:100040000C9413010C9413010C9413010C941301E0
:100050000C9413010C9413010C9413010C94EF02F3
:100060000C9413010C9413010C9413010C941301C0
:100070000C9413010C9413010C9413010C941301B0
:100080000C9413010C9413010C9413010C941301A0
:100090000C9413010C9413010C9413010C94130190
:1000A0000C9413010C9413010C9413017D02800233
:1000B0006F0273027702A102A102A10284028802E8
:1000C0008C0292029602A1029C02710776077B07BE
:1000D00085078F07D907D907D9079907A307AD0760
:1000E000B707C407D907CC070403090412010002AB
:1000F000EF0201404F1B0392000101020301537004
:1001000061726B46756E00537061726B46756E203E
:1001100050726F204D6963726F0000000002000989
:100120000F0000030401000C0000000000000000AC
:100130000000000000000000000000002500280072
:100140002B002E00310000000000240027002A00B0
:100150002D0030000404040404030405020202021A
:100160000403020202020606060606060404020250
:100170000204040408020110408040102040804026
:1001800080080204018040201002011080102040ED
:100190004020080B000202020100090400000102D5
:1001A00002000005240010010524010101042402BD
:1001B000060524060001070581031000400904011B
:1001C00000020A0000000705020240000007058344
:1001D00002400000530911241FBECFEFDAE0DEBF5A
:1001E000CDBF11E0A0E0B1E0E8EEF5E102C005907E
:1001F0000D92AE38B107D9F722E0AEE8B1E001C008
:100200001D92AD32B207E1F710E0CBEED0E004C0B2
:100210002197FE010E94E70ACA3ED107C9F70E9452
:10022000AA090C94F20A0C9400003FB7F89480914C
:10023000ED019091EE01A091EF01B091F00126B592
:10024000A89B05C02F3F19F00196A11DB11D3FBF0E
:10025000BA2FA92F982F8827820F911DA11DB11D9C
:10026000BC01CD0142E0660F771F881F991F4A9598
:10027000D1F70895BC01009791F0FC010190002096
:10028000E9F73197AF01481B590BE0919601F091C6
:1002900097010280F381E02D86E991E0099480E0E6
:1002A00090E008950E94ED0ACF93DF930E943A01F7
:1002B000EC0185E291E00E943A018C0F9D1FDF91D5
:1002C000CF91089590E0FC01ED58FE4F2491FC0180
:1002D000EC5AFE4F8491882399F090E0880F991F83
:1002E000FC01EA5BFE4FA591B491FC01E85CFE4F76
:1002F000859194918FB7F894EC91E22BEC938FBF9A
:1003000008958F929F92AF92BF92CF92DF92EF9219
:10031000FF920F931F93CF93DF93CDB7DEB7A197D3
:100320000FB6F894DEBF0FBECDBF6C01990FEE087B
:10033000FF08F7FE31C0E0919601F091970101901E
:10034000F081E02D6DE286E991E009958C0122278C
:100350003327A9012C193D094E095F0919A2CE01C5
:1003600081967C019AE0892E912CA12CB12CCA0196
:10037000B901A50194010E94C50A605DF70162936D
:100380007F01211531054105510589F7CF010E94F3
:100390003A01080F191F1EC0A701960119A28E016C
:1003A0000F5D1F4F8AE0C82ED12CE12CF12CCA0121
:1003B000B901A70196010E94C50A605DF801629328
:1003C0008F01211531054105510589F7CF010E94A3
:1003D0003A018C0185E291E00E943A01800F911F61
:1003E000A1960FB6F894DEBF0FBECDBFDF91CF91BF
:1003F0001F910F91FF90EF90DF90CF90BF90AF9043
:100400009F908F900895FC0180919501811103C008
:100410008FEF9FEF08959FB7F89482E08093E900F3
:100420002091F20030E01216130614F421E030E0BF
:100430002115310559F0289884E680939401809124
:10044000F10080838091F200882319F09FBFC901D9
:1004500008958BE68093E800F9CF2FB7F89483E0F6
:100460008093E9009091E800892F807295FF04C085
:100470009091F20080E4891B2FBF08958091F501CF
:1004800081110DC082E08093F10184E08093F2013C
:100490001092F4011092F30181E08093F50181EF55
:1004A00091E00895362F90E0FC01E65EFE4F449106
:1004B000FC01ED58FE4F2491FC01EC5AFE4F849153
:1004C000882309F451C04423E1F150E0FA01319747
:1004D000EF30F105B0F5EA5AFF4F0C94E70A90911E
:1004E00080009F7707C0909180009F7D03C090910E
:1004F0008000977F9093800024C094B59F7702C0BE
:1005000094B59F7D94BD1DC0909190009F7707C0CA
:10051000909190009F7D03C090919000977F909361
:1005200090000FC09091C0009F7703C09091C000D1
:100530009F7D9093C00005C09091C200977F9093DB
:10054000C200E82FF0E0EE0FFF1FE85CFE4FA59120
:10055000B4918FB7F894EC91311103C020952E23FC
:1005600001C02E2B2C938FBF08958F929F92AF9234
:10057000BF92CF92DF92EF92FF926B017C010E94BB
:1005800015014B015C01C114D104E104F104F1F047
:100590000E941501DC01CB0188199909AA09BB0940
:1005A000883E9340A105B10570F321E0C21AD1083D
:1005B000E108F10888EE880E83E0981EA11CB11CAA
:1005C000C114D104E104F10419F7DDCFFF90EF90DD
:1005D000DF90CF90BF90AF909F908F9008951F9223
:1005E0000F920FB60F9211242F933F938F939F93E7
:1005F000AF93BF938091E9019091EA01A091EB0143
:10060000B091EC013091E80123E0230F2D3720F465
:100610000196A11DB11D05C026E8230F0296A11D5C
:10062000B11D2093E8018093E9019093EA01A09322
:10063000EB01B093EC018091ED019091EE01A0915E
:10064000EF01B091F0010196A11DB11D8093ED0164
:100650009093EE01A093EF01B093F001BF91AF91A1
:100660009F918F913F912F910F900FBE0F901F90F0
:1006700018951F920F920FB60F9211248F939F938C
:100680008091E1009091E100937F9093E10083FFDE
:100690000FC01092E90091E09093EB001092EC00F3
:1006A00092E39093ED001092950198E09093F00002
:1006B00082FF20C093E09093E9009091F20099238B
:1006C00019F09AE39093E80090919201992339F000
:1006D00090919201915090939201992389F1909178
:1006E0009401992339F09091940191509093940141
:1006F000992341F184FF10C08091E2008E7E8160D9
:100700008093E2008091E1008F7E8093E1008091F0
:1007100093018E7E806111C080FF16C08091E2003F
:100720008E7E80618093E2008091E1008E7E8093D6
:10073000E100809193018E7E81608093930104C0DB
:100740005D9ACDCF289AD6CF9F918F910F900FBEF3
:100750000F901F9018951F920F920FB60F921124B1
:10076000CF92DF92EF92FF920F931F932F933F93BD
:100770004F935F936F937F938F939F93AF93BF93A9
:10078000EF93FF93CF93DF93CDB7DEB76C97DEBFC8
:10079000CDBF1092E9008091E80083FFEDC168E0D1
:1007A000CE0145960E94810882EF8093E8008D89F2
:1007B00087FF05C09091E80090FFFCCF03C09EEF3B
:1007C0009093E800982F907609F0C6C09E892F89F3
:1007D000188D91110CC0803829F48091E701809325
:1007E000F10002C01092F1001092F10048C1422FB6
:1007F00050E0512B913051F4811141C141305105EC
:1008000009F03DC18091E7018D7F0BC0933061F409
:10081000811135C14130510509F031C18091E701A5
:1008200082608093E7012BC1953041F48091E8000C
:1008300080FFFCCF20682093E30021C1963009F0AF
:100840005FC0EB8CFC8C1092E90010929101109229
:100850009001123091F510928F0110928E010E943A
:100860004F0899E0BE016F5F7F4FDB01E92F1D92BA
:10087000EA95E9F799831A8391E09E8390EA988735
:100880009AEF99872091900130919101275F3F4F16
:100890003C832B838D831092E9001092910110927A
:1008A0009001F0928F01E0928E0149E050E080E0EB
:1008B0000E9428080E944F08E2C0F0928F01E09247
:1008C0008E010E943E02DC011296ED90FC9013977F
:1008D000E114F10409F4C0C0D701ED91FC9104804A
:1008E000F581E02DBE016B5E7F4FC7010995009732
:1008F00019F00CF0C4C0C7C0F701E084F184E8CF60
:10090000973009F4C0C0983021F481E08093F10061
:10091000B6C0993009F0B3C0837009F0B4C0EDE0FF
:10092000F1E081E021E036E39081992361F080934A
:10093000E9002093EB0091919093EC003093ED004F
:100940008F5F873089F78EE78093EA001092EA0084
:100950008F898093950193C08B8D9C8D1092E900B7
:10096000109291011092900190938F0180938E01CB
:10097000898D811156C08E899D89913A59F48132B1
:1009800009F081C047E050E064E071E080E00E943F
:10099000280875C0913209F076C0833289F4888DB9
:1009A00090E0982F88272F89822BA0E0B0E08093D9
:1009B000000190930101A0930201B09303015FC075
:1009C000803269F48091E80082FFFCCF67E084E028
:1009D00091E00E9481088BEF8093E80006C082328C
:1009E00009F04DC08F8980930B018091E601882327
:1009F00019F0EEEFFAE002C0E0E0F8E080910401C7
:100A000090910501A0910601B0910701803B9440AF
:100A1000A105B10509F07BC080910B0180FF93C057
:100A200076C00E943E02DC0112960D911C91139734
:100A30000115110541F1D801ED91FC910190F08172
:100A4000E02DBE016B5E7F4FC8010995811117C073
:100A5000F80100851185ECCF113009F44EC0133038
:100A600091F48F89882309F445C0823081F440E8ED
:100A700062E187E091E00E94EB07882321F08EEF8E
:100A80008093E80079C081E28093EB0075C08130EB
:100A900029F440E868E08EEF90E0EDCF833099F7DD
:100AA0000E943E02DC011296ED90FC9013978E019D
:100AB0000F5F1F4F6801E114F10479F0D701ED9148
:100AC000FC910680F781E02DB801C7010995080F58
:100AD000111DF701E084F184EECFD8011C92F601DC
:100AE00001900020E9F73197BF016C197D0940E0C2
:100AF000C601C1CF68EE70E002C06CEE70E0611517
:100B0000710509F2FB01449150E080E840CF0FB637
:100B1000F894A8958091600088618093600010929D
:100B200060000FBEA895EE3F2AE0F20739F08091F1
:100B3000FE0A9091FF0A91838083A1CF1092FF0A51
:100B40001092FE0A9CCFEE3F8AE0F80731F08081D8
:100B500091819093FF0A8093FE0A87E797E791833C
:100B600080839BE088E10FB6F894A895809360009D
:100B70000FBE9093600083CF6C960FB6F894DEBFE3
:100B80000FBECDBFDF91CF91FF91EF91BF91AF919C
:100B90009F918F917F916F915F914F913F912F9195
:100BA0001F910F91FF90EF90DF90CF900F900FBEAD
:100BB0000F901F90189540919001509191012091B4
:100BC0008E0130918F0142175307B4F49091E800E1
:100BD0009570E1F39091E80092FD19C08093F100C7
:100BE000809190019091910101968F739927892BA3
:100BF00019F48EEF8093E80080919001909191011B
:100C00000196909391018093900181E0089580E096
:100C10000895CF92DF92EF92FF920F931F93CF939D
:100C2000DF936C017A018B01C0E0D0E0CE15DF05C7
:100C300089F0D8016D918D01D601ED91FC91019063
:100C4000F081E02DC6010995892B11F47E0102C0C7
:100C50002196ECCFC701DF91CF911F910F91FF90AB
:100C6000EF90DF90CF900895CF93DF931F92CDB791
:100C7000DEB76983DC01ED91FC910280F381E02D08
:100C800041E050E0BE016F5F7F4F09950F90DF910B
:100C9000CF91089583E08093E9008091F20088234A
:100CA00019F08AE38093E8000895FC018485958516
:100CB00097FD0BC09FB7F89482E08093E900809184
:100CC000F2009FBF90E0019608959FB7F89482E0EC
:100CD0008093E9008091F2009FBF90E0089508950D
:100CE00080E090E008958F929F92AF92BF92CF9252
:100CF000DF92EF92FF920F931F93CF93DF935C01EC
:100D00006B017A0180910B01882309F45BC080910B
:100D10009501882309F456C08091930180FF05C096
:100D20008091E00082608093E000E70110E00AEF2C
:100D300083E0882E9AE3992E2097D9F10E942D0204
:100D400081110AC0015009F43DC061E070E080E00B
:100D500090E00E94B502F0CF282F30E0C217D307F1
:100D60000CF48C2F4FB7F8948092E9009091E80032
:100D700095FF1DC0282F30E0C21BD30BF601982F22
:100D8000915020F081918093F100FACFC20ED31ED2
:100D9000112319F09092E80009C08091E80085FDC8
:100DA00006C09092E80011E0209709F010E04FBFD4
:100DB000C3CF1111C3CF5D9884E6809392011E14B6
:100DC0001F0444F081E090E0F5019383828380E08A
:100DD00090E001C0C701DF91CF911F910F91FF906B
:100DE000EF90DF90CF90BF90AF909F908F9008953D
:100DF0000E942D0290E008950F931F93CF93DF93ED
:100E00001F92CDB7DEB78C01FC018485958597FFD5
:100E10000EC0CE0101960E940302019719F42981A8
:100E200030E002C02FEF3FEFF80135872487F8014B
:100E3000848595850F90DF91CF911F910F91089533
:100E4000CF93DF931F92CDB7DEB7FC0184859585E4
:100E500097FD05C02FEF3FEF358724870BC0CE01EC
:100E600001960E940302019719F4898190E002C063
:100E70008FEF9FEF0F90DF91CF9108950F931F9306
:100E8000CF93DF93FC01048115810115110559F4FD
:100E90002785222341F08BE391E0DF91CF911F91D1
:100EA0000F910C945401FC01C285D385802F0E94C0
:100EB0006201209709F480C0CF3FD10509F47EC0BC
:100EC000F801FF27E65EFE4FE4914E2F50E0FA0155
:100ED0003197EF30F10508F06CC0EB59FF4F0C94DF
:100EE000E70A84B5806884BDC7BD70C084B58062E0
:100EF00084BDC8BD6BC080918000806880938000F5
:100F0000D0938900C093880061C080918000806286
:100F100080938000D0938B00C0938A0057C080914B
:100F20008000886080938000D0938D00C0938C00F7
:100F30004DC080919000806880939000D09399007C
:100F4000C093980043C0809190008062809390008D
:100F5000D0939B00C0939A0039C080919000886024
:100F600080939000D0939D00C0939C002FC08091EF
:100F7000C00080688093C0008091C0008F7B809308
:100F8000C000C093CF0022C08091C00080628093D7
:100F9000C000C093D0001AC08091C20088608093C6
:100FA000C2008091C2008B7F8093C200C093D200A8
:100FB0000DC0C038D10514F460E001C061E0802F9D
:100FC000DF91CF911F910F910C945202DF91CF913D
:100FD0001F910F910895CF92DF92EF92FF920F939E
:100FE0001F93CF93DF931F92CDB7DEB7182F062F35
:100FF000E42E862F880F8E5F99830E94DB0583E0A5
:101000000E94DB05F12EC12E9981D92E8C2D8F19CE
:10101000801798F4F601E7FE02C0849101C0808138
:101020000E94DB05182F80E00E94DB058123FFEF83
:10103000CF1ADF0A8111EACF01C081E00F90DF9162
:10104000CF911F910F91FF90EF90DF90CF90089577
:10105000DF92EF92FF920F931F93CF93DF93D82EDF
:101060008A017B01E40EF51EEB01CE15DF0571F060
:10107000D7FE03C0FE01849101C088810E94DB0578
:1010800021968111F2CF8FEF9FEF01C0C801DF9150
:10109000CF911F910F91FF90EF90DF9008950F93E4
:1010A0001F93CF93DF931F92CDB7DEB782E0898382
:1010B00042E450E062E971E080E80E9428080E9462
:1010C0003E02DC0112960D911C911397011511053A
:1010D00069F0D801ED91FC910280F381E02DBE0111
:1010E0006F5F7F4FC801099597FF07C089810F90F7
:1010F000DF91CF911F910F910895F801008511851F
:10110000E5CF615030F02091F100FC012083019681
:10111000F8CF289884E68093940108951F93CF9385
:10112000DF93EC0188819981009751F00E94620160
:101130001881812F0E94620160E0812F0E9452027B
:101140008A819B81009751F00E9462011A81812F50
:101150000E94620160E0812F0E9452028E819F8175
:10116000009731F00E94620161E08E810E9452027C
:1011700088859985009731F00E94620161E0888539
:101180000E9452028F85882339F087E591E0DF9134
:10119000CF911F910C945401DF91CF911F9108952D
:1011A000FF920F931F93CF93DF93EC01F62E8A01EA
:1011B0008C856817B1F12A853B859F851216130629
:1011C000B4F4992319F0C9010E9481018A859B8595
:1011D00004979B878A87CE010E943E076D857E8596
:1011E000072E000C880B990B0E94B502E4CFFC86F9
:1011F000FF2009F44FC0288139813D832C83992336
:1012000081F086E691E00E9454018C8590E00E9476
:10121000810188E791E00E9454018C819D810E94A8
:1012200081018A859B850817190774F58A859B8536
:101230000817190794F52F8521110E9481018A85CD
:101240009B8504979B878A87CE010E943E076D8508
:101250007E85072E000C880B990B0E94B502E6CF05
:101260002F8521110E9481018A859B8504969B8789
:101270008A87CE010E943E076D857E85072E000C71
:10128000880B990B0E94B5028A859B858017910770
:101290003CF303C02A813B81B0CFDF91CF911F91F6
:1012A0000F91FF900895E6E9F1E01382128288EE33
:1012B00093E0A0E0B0E084839583A683B78387E1C1
:1012C00091E0918380838FEF9FEF95878487EDE195
:1012D000F2E08AE090E0918380831382128295830A
:1012E000848380E190E0978386838EE090E091870D
:1012F00080871386128621E0248785E090E0968718
:101300008587EDE0F2E09183808343E050E05383F2
:1013100042839583848317821682118610861386F2
:101320001286248796878587EDEFF1E049E050E04B
:101330005183408366E070E0738362835583448306
:101340001782168211861086138612862487968746
:1013500085870895789484B5826084BD84B5816062
:1013600084BD85B5826085BD85B5816085BD809170
:101370006E00816080936E001092810080918100E8
:1013800082608093810080918100816080938100E0
:1013900080918000816080938000809191008260C4
:1013A0008093910080919100816080939100809161
:1013B00090008160809390008091C1008460809350
:1013C000C1008091C10082608093C1008091C10002
:1013D00081608093C1008091C30081608093C300CD
:1013E0008091C00082608093C0008091C2008160C3
:1013F0008093C20080917A00846080937A0080910B
:101400007A00826080937A0080917A008160809374
:101410007A0080917A00806880937A00109295011A
:101420001092E701109293018091D7008160809320
:10143000D70080EA8093D80089B5806189BD89B5DD
:10144000826089BD09B400FEFDCF61E070E080E0FC
:1014500090E00E94B5028091D8008F7C80618093DB
:10146000D8008091E000807F8093E0008091E100CF
:101470008E7E8093E1008DE08093E200559A209A61
:10148000EEEFFFE7859194918B3F9C4D19F481E03D
:101490008093E6018FEF9FEF9093A3018093A201C9
:1014A0008DE192E00E948E088DE092E00E948E080D
:1014B0008DEF91E00E948E0881E080932C0288E2FB
:1014C00091E00E94540185E090E090932B0280937C
:1014D0002A028AE090E090930B0280930A02909394
:1014E0001B0280931A02C0E0D0E04AEF50E061E0B6
:1014F0008DE192E00E94D00868EE73E080E090E019
:101500000E94B50240E050E061E08DE192E00E946F
:10151000D0084AEF50E061E08DE092E00E94D008F0
:101520004AEF50E060E08DE092E00E94D00868EE63
:1015300073E080E090E00E94B50240E050E061E09E
:101540008DE092E00E94D0084AEF50E061E08DEF1C
:1015500091E00E94D0084AEF50E060E08DEF91E00A
:101560000E94D00868EE73E080E090E00E94B5022F
:1015700040E050E061E08DEF91E00E94D0082097BC
:1015800009F4B3CF0E940000B0CFA1E21A2EAA1B2B
:10159000BB1BFD010DC0AA1FBB1FEE1FFF1FA21723
:1015A000B307E407F50720F0A21BB30BE40BF50B20
:1015B000661F771F881F991F1A9469F760957095A9
:1015C000809590959B01AC01BD01CF010895EE0F70
:1015D000FF1F0590F491E02D099481E090E0F894CC
:0815E0000C94F20AF894FFCF0D
:1015E800FFFFFFFF00E100000000000000C1808154
:1015F8000000000000000034067306F8064A06558D
:10160800062007FC060D0A00646562756767696E47
:101618006720656E6162656C6564004572726F7201
:101628003A2061637469766550574D50696E206938
:1016380073207A65726F0073657475702066696EC1
:10164800697368656400446972656374696F6E20C4
:101658006973206E6F773A004163746976655057F5
:0E1668004D70696E206973206E6F773A000036
:00000001FF
