:100000000C94F2000C941A010C941A010C941A012D
:100010000C941A010C941A010C941A010C941A01F4
:100020000C941A010C941A010C9490070C94020879
:100030000C941A010C941A010C941A010C941A01D4
:100040000C941A010C941A010C941A010C941A01C4
:100050000C941A010C941A010C941A010C94460782
:100060000C941A010C941A010C941A010C941A01A4
:100070000C941A010C941A010C941A010C941A0194
:100080000C941A010C941A010C941A010C941A0184
:100090000C94F4030C941A010C941A010C941A0198
:1000A0000C941A010C941A010C941A013F03440396
:1000B000490353035D03A703A703A7036703710362
:1000C0007B0385039203A7039A03F60AF90AE80A59
:1000D000EC0AF20A1A0B1A0B1A0BFD0A010B050B9C
:1000E0000B0B0F0B1A0B150B080B00020202010081
:1000F000090400000102020000052400100105248B
:1001000001010104240206052406000107058103FC
:1001100010004009040100020A0000000705020265
:100120004000000705830240000004030904120197
:100130000002EF0201404F1B039200010102030184
:10014000537061726B46756E00537061726B4675C9
:100150006E2050726F204D6963726F0000000000C6
:10016000240027002A002D00300000000000250098
:1001700028002B002E003100000000002300260084
:1001800029002C002F0004040404040304050202C7
:100190000202040302020202060606060606040420
:1001A00002020204040408020110408040102040B2
:1001B000804080080204018040201002011080105D
:1001C000204040200000000200090F00000304014D
:1001D000000C000000000000000000000000000013
:1001E0000000E00F11241FBECFEFDAE0DEBFCDBF6D
:1001F00012E0A0E0B1E0E0E9F4E202C005900D9267
:10020000AA37B107D9F724E0AAE7B2E001C01D92EE
:10021000AF30B207E1F710E0C2EFD0E004C02197A1
:10022000FE010E94A410C13FD107C9F70E94D20D60
:100230000C9446120C940000CF92DF92EF92FF9242
:100240000F931F93CF93DF936C017A018B01C0E072
:10025000D0E0CE15DF0581F0D8016D918D01D6017A
:10026000ED91FC910190F081E02DC6010995892B5B
:1002700011F02196EECF7E01C701DF91CF911F9142
:100280000F91FF90EF90DF90CF900895CF93DF9381
:100290001F92CDB7DEB76983DC01ED91FC9102803E
:1002A000F381E02D41E050E0BE016F5F7F4F099583
:1002B0000F90DF91CF91089583E08093E9008091C2
:1002C000F200882319F08AE38093E8000895FC0186
:1002D0008485958597FD0BC09FB7F89482E0809345
:1002E000E9008091F2009FBF90E0019608959FB7CA
:1002F000F89482E08093E9008091F2009FBF90E043
:10030000089585ED8093BC008091BC0084FDFCCFF6
:1003100010924503089540919A02262F30E0240F51
:10032000311D21323105DCF4209145032430C9F41C
:10033000FC0180E090E0861758F430919A022191F8
:10034000DC01A658BD4FA30FB11D2C930196F3CF2E
:1003500080919A02680F60939A0280E0089581E08C
:10036000089582E008950895E091DB028091DA0219
:10037000E81730F4F0E0E150FD4F808190E00895FF
:100380008FEF9FEF08959091DB028091DA0298172A
:1003900050F4E92FF0E0E150FD4F208130E09F5F05
:1003A0009093DB0202C02FEF3FEFC90108958091C7
:1003B000DA0290E02091DB02821B91090895CF922E
:1003C000DF92EF92FF920F931F93CF93DF937C0105
:1003D000CB018A012091DC02222389F0EB016B0121
:1003E000C40ED51ECC15DD0569F06991D701ED91DC
:1003F000FC910190F081E02DC7010995F3CF642FA6
:100400000E948B01C801DF91CF911F910F91FF9046
:10041000EF90DF90CF900895CF93DF931F92CDB7E9
:10042000DEB769832091DC022223D1F02091FE0205
:10043000203240F021E030E0FC013383228380E071
:1004400090E015C08091DD02E82FF0E0E252FD4F10
:10045000998190838F5F8093DD028093FE0205C0B7
:1004600061E0CE0101960E948B0181E090E00F9047
:10047000DF91CF910895089580E090E008958F92E4
:100480009F92AF92BF92CF92DF92EF92FF920F9323
:100490001F93CF93DF936C017B018A0180910B0145
:1004A000882309F45CC08091D902882309F457C0DD
:1004B0008091C20280FF05C08091E000826080933D
:1004C000E000E801B12C8AEFA82E93E0892E2AE300
:1004D000922E209711F4BB20D9F10E94E70B8111D5
:1004E0000AC0AA94AA20D9F161E070E080E090E00F
:1004F0000E94C50CEECF282F30E0C217D3070CF4B2
:100500008C2F9FB7F8948092E9002091E80025FF96
:100510001DC0282F30E0C21BD30BF701815020F003
:1005200041914093F100FACFE20EF31EBB2019F087
:100530009092E8000AC08091E80085FD07C0909283
:10054000E800BB24B394209709F0B12C9FBFC1CF22
:100550005D9884E68093C1021016110644F081E094
:1005600090E0F6019383828380E090E001C0C801AF
:10057000DF91CF911F910F91FF90EF90DF90CF907F
:10058000BF90AF909F908F9008950E94E70B90E0EE
:1005900008950F931F93CF93DF931F92CDB7DEB7CC
:1005A0008C01FC018485958597FF0EC0CE010196D4
:1005B0000E94B90B019719F4898190E002C08FEF76
:1005C0009FEFF80195878487F801848595850F90C2
:1005D000DF91CF911F910F910895CF93DF931F92D9
:1005E000CDB7DEB7FC018485958597FD05C02FEF5B
:1005F0003FEF358724870BC0CE0101960E94B90BCF
:10060000019719F4898190E002C08FEF9FEF0F905E
:10061000DF91CF9108950F931F93CF93DF93FC0148
:10062000048115810115110559F42785222341F014
:1006300087E391E0DF91CF911F910F910C942D0BE7
:10064000FC01C285D38561E0802F0E94640C209755
:1006500009F480C0CF3FD10509F47EC0F801FF271F
:10066000EC53FE4FE4918E2F90E0FC013197EF3078
:10067000F10508F06CC0EA5AFF4F0C94A41084B541
:10068000806884BDC7BD70C084B5806284BDC8BDAC
:100690006BC080918000806880938000D093890037
:1006A000C093880061C08091800080628093800048
:1006B000D0938B00C0938A0057C0809180008860DF
:1006C00080938000D0938D00C0938C004DC08091AA
:1006D0009000806880939000D0939900C093980018
:1006E00043C080919000806280939000D0939B00E3
:1006F000C0939A0039C080919000886080939000E8
:10070000D0939D00C0939C002FC08091C000806852
:100710008093C0008091C0008F7B8093C000C09305
:10072000CF0022C08091C00080628093C000C0933F
:10073000D0001AC08091C20088608093C20080916E
:10074000C2008B7F8093C200C093D2000DC0C0381E
:10075000D10514F460E001C061E0802FDF91CF91FA
:100760001F910F910C94350CDF91CF911F910F9138
:1007700008954091BF025091C0022091BD02309176
:10078000BE0242175307B4F49091E8009570E1F36C
:100790009091E80092FD19C08093F1008091BF0212
:1007A0009091C00201968F739927892B19F48EEFCF
:1007B0008093E8008091BF029091C00201969093CF
:1007C000C0028093BF0281E0089580E008956150E7
:1007D00030F02091F100FC0120830196F8CF289899
:1007E00084E68093D80208951F920F920FB60F925D
:1007F00011242F933F934F935F936F937F938F9326
:100800009F93AF93BF93EF93FF938091B900887F3D
:10081000803609F49CC068F5883209F45BC090F416
:10082000803109F454C038F4882309F4F2C08830C8
:1008300009F44DC0F2C0883109F44CC0803209F48B
:100840005DC0EBC0803409F468C048F4803309F41B
:1008500055C0883309F0E1C080934303D4C080358C
:1008600009F44FC0883509F45DC0883409F0D5C05B
:10087000D2C0883909F4C3C0A8F4883709F467C026
:1008800038F4883609F463C0803709F460C0C5C005
:10089000883809F4B4C0803909F45FC0803809F0A1
:1008A000BCC05BC0803B09F484C038F4803A09F4D2
:1008B00066C0883A09F47DC0B0C0803C09F4A3C08A
:1008C000883C09F4A0C0883B09F486C0A6C080918A
:1008D000400310C09091420380914103981770F536
:1008E000E091420381E08E0F80934203F0E0E15EED
:1008F000FC4F80818093BB0085EC82C080934303D2
:100900008AC0E091420381E08E0F80934203809180
:10091000BB00F0E0E15EFC4F808390914203809148
:1009200041036AC0E091420381E08E0F809342034D
:100930008091BB00F0E0E15EFC4F80838091440336
:10094000811169C081E080933F0384EA5DC083E048
:10095000809345031092BC02CFCF8091BC028032BD
:1009600008F04DC0E091BC0281E08E0F8093BC0284
:100970008091BB00F0E0E456FD4F8083BDCF85EC55
:100980008093BC00109245038091BC02803230F409
:10099000E091BC02F0E0E456FD4F10826091BC0291
:1009A00070E08CE992E0E0E0F0E009951092BC0282
:1009B00034C084E08093450310929B0210929A0207
:1009C000E0E0F0E0099580919A02811105C081E094
:1009D00080939A0210927A02E0919B0281E08E0F3E
:1009E00080939B02F0E0E658FD4F80818093BB002E
:1009F00090919B0280919A02981708F47DCF85E828
:100A00008093BC000AC085EC8093BC001092450323
:100A100004C0109243030E948101FF91EF91BF91A6
:100A2000AF919F918F917F916F915F914F913F9186
:100A30002F910F900FBE0F901F9018951F93CF937B
:100A4000DF93EC0188819981009761F061E00E9459
:100A5000640C188161E0812F0E94640C60E0812F9A
:100A60000E94350C8A819B81009761F061E00E94B1
:100A7000640C1A8161E0812F0E94640C60E0812F78
:100A80000E94350C8E819F81009739F061E00E94B1
:100A9000640C61E08E810E94350C888599850097F1
:100AA00039F061E00E94640C61E088850E94350C99
:100AB0008F85882339F083E591E0DF91CF911F91F5
:100AC0000C942D0BDF91CF911F9108954F925F925F
:100AD0006F927F928F929F92AF92BF92CF92DF924E
:100AE000EF92FF920F931F93CF93DF93EC01B62EFB
:100AF0008A018C85861305C0888D998D892B09F410
:100B000084C081E090E0998F888F0E94A00C6B01D7
:100B10007C0188899989AA89BB89A7019601281B2C
:100B2000390B4A0B5B0BCA01B9012C8B3D8B4E8BE9
:100B30005F8B29013A0131E0431A510861087108BD
:100B400047EE441643E0540661047104A0F12B0102
:100B50003C0158EE451A53E0550A6108710828E334
:100B600042162AE4520661047104B8F428EE33E018
:100B700040E050E00E9482102930310514F028E056
:100B800030E08A859B85821B930B97FD03C09B8772
:100B90008A870DC01B861A860AC0611571058105FA
:100BA000910529F060327E448105910521F0C88AC3
:100BB000D98AEA8AFB8ACE010E940B038A859B852B
:100BC0001816190614F11B861A86CE010E940B0313
:100BD000198E188EBC86BB2009F4E9C088819981E2
:100BE0009D838C838F85882381F082E691E00E942B
:100BF0002D0B8C8590E00E943B0B84E791E00E94D6
:100C00002D0B8C819D810E943B0B8A859B858017D3
:100C1000910709F4CFC00A3F110529F48A3F9105D5
:100C20000CF457C0C7C0081719070CF052C0288D24
:100C3000398D232B09F04DC02F8521110E943B0BCC
:100C40000E94A00C6B017C0188899989AA89BB89C3
:100C5000A7019601281B390B4A0B5B0BCA01B9018E
:100C60002C8B3D8B4E8B5F8B49015A0131E0831AEF
:100C70009108A108B10847EE841643E09406A10448
:100C8000B10408F469C04B015C0158EE851A53E0C9
:100C9000950AA108B10828E382162AE49206A10465
:100CA000B10408F050C028EE33E040E050E00E946C
:100CB00082102930310514F028E030E08A859B85C8
:100CC000821B930B801791070CF46EC09B878A8759
:100CD0003FC0288D398D232B09F06CC02F85211141
:100CE0000E943B0B0E94A00C6B017C0188899989B2
:100CF000AA89BB89A7019601281B390B4A0B5B0BFC
:100D0000CA01B9012C8B3D8B4E8B5F8B49015A0177
:100D100031E0831A9108A108B10847EE841643E038
:100D20009406A104B104C0F04B015C0158EE851A91
:100D300053E0950AA108B10828E382162AE4920636
:100D4000A104B104E0F061327E448105910520F0F8
:100D5000C88AD98AEA8AFB8ACE01DF91CF911F9196
:100D60000F91FF90EF90DF90CF90BF90AF909F904A
:100D70008F907F906F905F904F900C940B0328EEB4
:100D800033E040E050E00E9482102930310514F039
:100D900028E030E08A859B85280F391F021713074A
:100DA0001CF03B872A87D4CF1B870A87D1CF8A8143
:100DB0009B8116CFDF91CF911F910F91FF90EF9004
:100DC000DF90CF90BF90AF909F908F907F906F906B
:100DD0005F904F9008950E944112DF92EF92FF9230
:100DE0000F931F93CF93DF93D82E8A017B01E40EDC
:100DF000F51EEB01CE15DF0571F0D7FE03C0FE0135
:100E0000849101C088810E94B90321968111F2CF9B
:100E10008FEF9FEF01C0C801DF91CF911F910F911C
:100E2000FF90EF90DF9008950F931F93CF93DF9380
:100E30001F92CDB7DEB782E0898342E450E068EECE
:100E400070E080E80E94ED060E94F80BDC0112962B
:100E50000D911C9113970115110589F0D801ED91A1
:100E6000FC910280F381E02DBE016F5F7F4FC801CE
:100E7000099597FD04C0F80100851185ECCF8981A3
:100E80000F90DF91CF911F910F9108951F920F92B4
:100E90000FB60F9211242F933F938F939F93AF938D
:100EA000BF938091D0029091D102A091D202B091D3
:100EB000D3023091CF0223E0230F2D3720F4019687
:100EC000A11DB11D05C026E8230F0296A11DB11D6D
:100ED0002093CF028093D0029093D102A093D202AC
:100EE000B093D3028091D4029091D502A091D60202
:100EF000B091D7020196A11DB11D8093D4029093A9
:100F0000D502A093D602B093D702BF91AF919F9123
:100F10008F913F912F910F900FBE0F901F901895BA
:100F20001F920F920FB60F9211248F939F9380916F
:100F3000E1009091E100937F9093E10083FF0FC067
:100F40001092E90091E09093EB001092EC0092E394
:100F50009093ED001092D90298E09093F00082FFF8
:100F600020C093E09093E9009091F200992319F04A
:100F70009AE39093E8009091C102992339F09091FF
:100F8000C10291509093C102992389F19091D802A6
:100F9000992339F09091D80291509093D8029923D7
:100FA00041F184FF10C08091E2008E7E81608093C9
:100FB000E2008091E1008F7E8093E1008091C20287
:100FC0008E7E806111C080FF16C08091E2008E7E0F
:100FD00080618093E2008091E1008E7E8093E10049
:100FE0008091C2028E7E81608093C20204C05D9AAD
:100FF000CDCF289AD6CF9F918F910F900FBE0F9093
:101000001F9018951F920F920FB60F921124CF9236
:10101000DF92EF92FF920F931F932F933F934F9383
:101020005F936F937F938F939F93AF93BF93EF9350
:10103000FF93CF93DF93CDB7DEB76C97DEBFCDBF05
:101040001092E9008091E80083FFFBC168E0CE01C7
:1010500045960E94E70382EF8093E8008D8987FF21
:1010600005C09091E80090FFFCCF03C09EEF9093E5
:10107000E800982F907609F0C6C09E894F89588D58
:101080002F89F88C91110CC0803829F48091C4020A
:101090008093F10002C01092F1001092F10045C15E
:1010A000913051F4811141C14130510509F03DC1E8
:1010B0008091C4028D7F0BC0933061F4811135C1E2
:1010C0004130510509F031C18091C40282608093A2
:1010D000C4022BC1953049F48091E80080FFFCCF19
:1010E000822F80688093E30020C1963009F05EC0B3
:1010F0000B8D1C8D22E01092E9001092C00210921C
:10110000BF02F21232C01092BE021092BD020E94C3
:10111000140799E0BE016F5F7F4FDB01E92F1D923D
:10112000EA95E9F79983FA8291E09E8390EA98879D
:101130009AEF99872091BF023091C002275F3F4FFD
:101140003C832B838D831092E9001092C002109291
:10115000BF021093BE020093BD0249E050E080E060
:101160000E94ED060E941407E0C01093BE02009397
:10117000BD020E94F80BDC0112960D911C91139791
:101180000115110509F4BBC0D801ED91FC91048053
:10119000F581E02DBE016B5E7F4FC8010995009778
:1011A00009F0C7C0F80100851185EACF973009F42E
:1011B00045C1983021F481E08093F100B6C09930A8
:1011C00009F0B3C0837009F039C1EDE0F1E081E0CE
:1011D00031E096E32081211109C08EE78093EA0077
:1011E0001092EA008F898093D9029FC08093E90012
:1011F0003093EB0021912093EC009093ED008F5FF2
:10120000873041F7EACF8B8D9C8D1092E9001092C8
:10121000C0021092BF029093BE028093BD02898DDE
:10122000811153C08E899D89913A49F4813209F028
:1012300005C147E050E064E071E080E0BBC091325E
:1012400009F0FCC0833269F48F89988DA0E0B0E08A
:101250008093000190930101A0930201B0930301D8
:1012600064C0803269F48091E80082FFFCCF67E0BF
:1012700084E091E00E94E7038BEF8093E80055C083
:10128000823209F052C08F8980930B01EEEFFFE7A5
:10129000859194918B3F9C4D19F0E0E0F8E002C0FD
:1012A000EEEFFAE08091040190910501A091060112
:1012B000B0910701803B9440A105B10509F09EC0A3
:1012C00080910B0180FF79C099C00E94F80BFC014E
:1012D000028113810115110509F4B0C0D801ED9107
:1012E000FC910190F081E02DBE016B5E7F4FC80143
:1012F000099581111AC0F80100851185EBCFF1E045
:10130000FF1609F44EC0F3E0FF1298C08F898823BE
:1013100009F44AC0823089F440E862E189E491E04E
:101320000E949D0D882309F489C08EEF8093E80008
:1013300088C018161906CCF381C0813029F440E822
:1013400068E080E491E0ECCF833009F077C00E9440
:10135000F80BDC011296ED90FC9013978E010F5F55
:101360001F4F6801E114F10479F0D701ED91FC9170
:101370000680F781E02DB801C7010995080F111DFE
:10138000F701E084F184EECFD8011C92F6010190C0
:101390000020E9F73197BF016C197D0940E0C601D3
:1013A000BFCF6EE271E002C06AE271E0FB014491DE
:1013B00050E080E80E94ED06B8CFEE3F2AE0F20749
:1013C00051F0808191818737A7E79A0721F09093A8
:1013D000FF0A8093FE0A87E797E7918380838091D5
:1013E00060008093C3029BE088E10FB6F894A89553
:1013F000809360000FBE9093600097CF80819181B1
:101400008737974709F091CFA89580916000886150
:10141000809360008091C30280936000EE3FBAE049
:10142000FB0739F08091FE0A9091FF0A9183808337
:101430007CCF1092FF0A1092FE0A77CF81E2809350
:10144000EB006C960FB6F894DEBF0FBECDBFDF91F8
:10145000CF91FF91EF91BF91AF919F918F917F912C
:101460006F915F914F913F912F911F910F91FF903D
:10147000EF90DF90CF900F900FBE0F901F901895B8
:10148000909145039111FCCF91E090934503909387
:1014900044032FEF2093430310924203260F20931F
:1014A00041039093400390914003880F892B8093D0
:1014B000400380913F03813061F410923F0380919B
:1014C00040038093BB008091BC0083FDF8CF85EC86
:1014D00001C085EE8093BC00809145038130E1F32B
:1014E00080914203861710F460914203AFE1B3E0AC
:1014F000EFEFF2E080E0861721F09D9191938F5FEE
:10150000FACF0895282F3091FE02313208F04AC0F8
:10151000809145038111FCCF9091E20342E040931A
:101520004503209344032FEF20934303109242037B
:1015300030934103EEEDF2E0AFE1B3E020E032178B
:1015400021F041914D932F5FFACF109240032091EB
:101550004003990F922B9093400390913F03913059
:1015600061F410923F03909140039093BB009091DF
:10157000BC0093FDF8CF95EC01C095EE9093BC00B4
:10158000909145039230E1F3909143039F3F79F0AE
:1015900080914303803241F080914303803331F0E6
:1015A00084E005C081E003C082E001C083E01092C6
:1015B000DD021092FE021092DC02089590E0FC0120
:1015C0003197EF30F105B0F5EB59FF4F0C94A410B3
:1015D000809180008F7703C0809180008F7D809301
:1015E0008000089580918000877FF9CF84B58F7740
:1015F00002C084B58F7D84BD0895809190008F775F
:1016000007C0809190008F7D03C080919000877FFC
:101610008093900008958091C0008F7703C08091DF
:10162000C0008F7D8093C00008958091C200877FA5
:101630008093C2000895009769F0FC01019000209A
:10164000E9F73197AF01481B590BBC0186E493E0E1
:101650000C943F0280E090E00895CF93DF930E94C6
:101660001B0BEC018AE692E00E941B0B8C0F9D1F66
:10167000DF91CF9108958F929F92AF92BF92CF92B8
:10168000DF92EF92FF920F931F93CF93DF93CDB72B
:10169000DEB7A1970FB6F894DEBF0FBECDBF6C01C9
:1016A000990FEE08FF08F7FE2BC06DE286E493E089
:1016B0000E9446018C0122273327A9012C193D09DC
:1016C0004E095F0919A2CE0181967C019AE0892E0C
:1016D000912CA12CB12CCA01B901A50194010E9441
:1016E0008210605DF70162937F012115310541058C
:1016F000510589F7CF010E941B0B080F191F1EC04F
:10170000A701960119A28E010F5D1F4F8AE0C82E16
:10171000D12CE12CF12CCA01B901A70196010E943C
:101720008210605DF80162938F012115310541053A
:10173000510589F7CF010E941B0B8C018AE692E0CC
:101740000E941B0B800F911FA1960FB6F894DEBF6D
:101750000FBECDBFDF91CF911F910F91FF90EF9002
:10176000DF90CF90BF90AF909F908F9008950C9492
:101770001B0B2091D902211103C08FEF9FEF089519
:101780005FB7F89422E02093E9002091F20030E066
:101790001216130614F421E030E0422FFC0184E617
:1017A000415038F028988093D8029091F10091939D
:1017B000F7CF2115310521F08091F200882319F02F
:1017C0005FBFC90108958BE68093E800F9CF2FB77A
:1017D000F89483E08093E9009091E800892F80726B
:1017E00095FF04C09091F20080E4891B2FBF0895FB
:1017F0008091DA0381110DC082E08093D60384E0EA
:101800008093D7031092D9031092D80381E080937C
:10181000DA0386ED93E00895CF93DF93282F30E02D
:10182000F901EC53FE4F8491F901EB55FE4FD49131
:10183000F901EA57FE4FC491CC2391F081110E9427
:10184000DE0AEC2FF0E0EE0FFF1FE858FE4FA591E7
:10185000B491EC91ED2381E090E021F480E002C0AE
:1018600080E090E0DF91CF9108951F93CF93DF93B5
:10187000282F30E0F901EC53FE4F8491F901EB552C
:10188000FE4FD491F901EA57FE4FC491CC23C1F029
:10189000162F81110E94DE0AEC2FF0E0EE0FFF1FE1
:1018A000E659FE4FA591B4919FB7F894111104C069
:1018B0008C91D095D82302C0EC91DE2BDC939FBF96
:1018C000DF91CF911F910895CF93DF9390E0FC01BA
:1018D000EB55FE4F2491FC01EA57FE4F849188237B
:1018E00061F190E0880F991FFC01E45AFE4FC59109
:1018F000D491FC01E659FE4FA591B491611109C044
:101900009FB7F8948881209582238883EC912E23B9
:101910000BC0623061F49FB7F8948881322F309504
:1019200083238883EC912E2B2C939FBF06C08FB707
:10193000F894E8812E2B28838FBFDF91CF910895F3
:101940003FB7F8948091D4029091D502A091D6022D
:10195000B091D70226B5A89B05C02F3F19F001967C
:10196000A11DB11D3FBFBA2FA92F982F8827820F25
:10197000911DA11DB11DBC01CD0142E0660F771F75
:10198000881F991F4A95D1F708958F929F92AF9221
:10199000BF92CF92DF92EF92FF926B017C010E9487
:1019A000A00C4B015C01C114D104E104F104F1F07D
:1019B0000E94A00CDC01CB0188199909AA09BB0976
:1019C000883E9340A105B10570F321E0C21AD10809
:1019D000E108F10888EE880E83E0981EA11CB11C76
:1019E000C114D104E104F10419F7DDCFFF90EF90A9
:1019F000DF90CF90BF90AF909F908F9008952FB7BA
:101A0000F8946091D0027091D1028091D2029091AD
:101A1000D3022FBF08951F93CF93DF930E94FF0C33
:101A20007093D0036093CF03C1E08091CB0311E0AA
:101A3000C093DC028093E2031092DD021092FE025A
:101A400063E183EE93E00E940C0281E00E94820A2F
:101A50008093CA0361E08091CB030E94400A1092F8
:101A6000DB028093DA0283EE93E00E94C301877069
:101A7000D1F48091CC039091CD03892BB1F20E94D7
:101A8000FF0C2091CF033091D003621B730B809128
:101A9000CC039091CD038617970738F61093CE03A9
:101AA0008FEF9FEF46C08091CB031093DC028093B1
:101AB000E2031092DD021092FE026EE183EE93E0EB
:101AC0000E940C0281E00E94820A8093CA0362E0B5
:101AD0008091CB030E94400A1092DB028093DA02CD
:101AE00083EE93E00E94C301C82F83EE93E00E942F
:101AF000C30120E030E03C2FE901C82BD92B8091B5
:101B0000CB031093DC028093E2031092DD0210926B
:101B1000FE026BE083EE93E00E940C0261E083EE34
:101B200093E00E940C0281E00E94820A8093CA0323
:101B3000CE01DF91CF911F910895DF92EF92FF9236
:101B40000F931F93CF93DF93D82EF92EE42E062FF9
:101B500010E0C8010196880F0E94B90383E00E943B
:101B6000B903CD2DDF2D0C0F1D1FC017D10789F034
:101B7000E7FE03C0FE01849101C088810E94B90381
:101B8000F82E80E00E94B9038F2121968111EDCFBC
:101B900001C081E0DF91CF911F910F91FF90EF90F5
:101BA000DF900895789484B5826084BD84B58160A7
:101BB00084BD85B5826085BD85B5816085BD809118
:101BC0006E00816080936E00109281008091810090
:101BD0008260809381008091810081608093810088
:101BE000809180008160809380008091910082606C
:101BF0008093910080919100816080939100809109
:101C000090008160809390008091C10084608093F7
:101C1000C1008091C10082608093C1008091C100A9
:101C200081608093C1008091C30081608093C30074
:101C30008091C00082608093C0008091C20081606A
:101C40008093C20080917A00846080937A008091B2
:101C50007A00826080937A0080917A00816080931C
:101C60007A0080917A00806880937A001092D9027D
:101C70001092C4021092C2028091D70081608093BA
:101C8000D70080EA8093D80089B5806189BD89B585
:101C9000826089BD09B400FEFDCF61E070E080E0A4
:101CA00090E00E94C50C8091D8008F7C8061809369
:101CB000D8008091E000807F8093E0008091E10077
:101CC0008E7E8093E1008DE08093E200559A209A09
:101CD0008FEF9FEF909353038093520380EB93E039
:101CE0000E941E0589E891E00E942D0B86E993E091
:101CF0000E941E0585EA91E00E942D0B60E088E0BD
:101D00000E94640C60E087E00E94640C60E084E064
:101D10000E94640C61E085E00E94640C60E083E056
:101D20000E94640C60E082E00E94640C61E085E047
:101D30000E94350C8FEB91E00E942D0B81EE91E01B
:101D40000E942D0B0E94FF0C6093C7027093C80283
:101D50008093C9029093CA021092CE021092CD02D3
:101D60001092CC021092CB021092C6021092C502C1
:101D70008FEF91E00E942D0B80E0E82E80E0F82E9E
:101D8000C1E0D0E002E010E08091C5029091C6026F
:101D9000892B39F587E00E940C0C892B31F484E003
:101DA0000E940C0C892B09F48CC087E00E940C0C5B
:101DB000892B09F472C01093CC020093CB028EE2FF
:101DC00092E00E94B70B88E00E940C0C892B09F46A
:101DD00071C0D093CE02C093CD0288E192E00E9400
:101DE000B70B8091CB029091CC02009781F08230AA
:101DF0009105A1F483E00E940C0C892B59F087E433
:101E000092E00E94B70B1092CC021092CB0240E0FD
:101E100050E002C046E950E060E011C0019799F43B
:101E200082E00E940C0C892B39F084E592E00E943C
:101E3000B70B4AEF50E002C046E950E061E086E9A6
:101E400093E00E9466058091CD029091CE02892B8D
:101E500019F440E050E00BC082E00E940C0C892B8A
:101E6000C1F38CE592E00E94B70B4AEF50E061E0CD
:101E700080EB93E00E9466058AE692E00E941B0BCD
:101E80006AE070E080E090E00E94C50CE114F1048B
:101E900009F47ACF0E94000077CF84E00E940C0CF6
:101EA000892B09F490CFD093CC02C093CB0284E36A
:101EB00092E087CF1092CE021092CD028BE392E097
:101EC0008ECF1092CC021092CB028DE692E00E944F
:101ED000B70B88E00E940C0C892B49F0D093CE02FE
:101EE000C093CD0288E192E00E94B70B90CF109290
:101EF000CE021092CD0283E292E00E94B70B0E94C4
:101F0000FF0C4B015C0180E00E940C0C892B41F41A
:101F10000E94FF0C86169706A806B906A1F30BC00F
:101F20000E94FF0C6093C7027093C8028093C9029D
:101F30009093CA0256CF0E94FF0C8090C7029090E7
:101F4000C802A090C902B090CA02DC01CB01881976
:101F50009909AA09BB09813E9349A440B10508F437
:101F600056CF0E940B0D5C010E940B0D6C01B50158
:101F700080E090E00E94461126E636E646E65FE302
:101F80000E94D4114B015C01B60180E090E00E94F8
:101F900046112DEC3CEC4CEC5DE30E94D4119B010E
:101FA000AC01C501B4010E94AB100E941711663943
:101FB000710508F42CCF1093CC020093CB0211CF03
:101FC000FF920F931F93CF93DF93E6E4F3E0138226
:101FD000128288EE93E0A0E0B0E084839583A6832C
:101FE000B78327E131E0318320832FEF3FEF35873F
:101FF0002487E3EEF3E01382128284839583A68321
:10200000B78389E291E091838083EAECF3E089E28F
:102010008183138212821482C0EBD3E08AE090E0C5
:10202000998388831B821A829D838C8380E190E050
:102030009F838E838EE090E0998788871B861A861F
:10204000FF24F394FC8605E010E01E870D870E94B4
:10205000A00C688B798B8A8B9B8B1C8A1D8A1E8AAD
:102060001F8AC6E9D3E089E090E09983888326E05F
:1020700030E03B832A839D838C831F821E821986D6
:1020800018861B861A86FC861E870D870E94A00C68
:10209000688B798B8A8B9B8B1C8A1D8A1E8A1F8A70
:1020A000EFEFF3E010821182128213821482158204
:1020B000168217821186108622E430E03387228749
:1020C0008AEB99E09587848742E150E057874687FD
:1020D000EFEEF3E0108211821282138214821582D5
:1020E0001682178211861086338722879587848708
:1020F00085E190E097878687DF91CF911F910F91BF
:10210000FF900895A1E21A2EAA1BBB1BFD010DC072
:10211000AA1FBB1FEE1FFF1FA217B307E407F50797
:1021200020F0A21BB30BE40BF50B661F771F881F73
:10213000991F1A9469F760957095809590959B0109
:10214000AC01BD01CF010895EE0FFF1F0590F49182
:10215000E02D09945058BB27AA270E94C2100C9466
:102160009A110E948C1138F00E94931120F039F4DA
:102170009F3F19F426F40C9489110EF4E095E7FBC7
:102180000C948311E92F0E94AB1158F3BA17620720
:1021900073078407950720F079F4A6F50C94CD1108
:1021A0000EF4E0950B2EBA2FA02D0B01B901900172
:1021B0000C01CA01A0011124FF27591B99F0593FB6
:1021C00050F4503E68F11A16F040A22F232F342FFE
:1021D0004427585FF3CF469537952795A795F0404C
:1021E0005395C9F77EF41F16BA0B620B730B840B61
:1021F000BAF09150A1F0FF0FBB1F661F771F881F19
:10220000C2F70EC0BA0F621F731F841F48F4879570
:1022100077956795B795F7959E3F08F0B0CF939562
:10222000880F08F09927EE0F9795879508950E94DB
:10223000B31188F09F5798F0B92F9927B751B0F094
:10224000E1F0660F771F881F991F1AF0BA95C9F73A
:1022500014C0B13091F00E94CD11B1E008950C94FA
:10226000CD11672F782F8827B85F39F0B93FCCF3AD
:10227000869577956795B395D9F73EF490958095B7
:10228000709561957F4F8F4F9F4F0895E89409C0D7
:1022900097FB3EF490958095709561957F4F8F4F99
:1022A0009F4F9923A9F0F92F96E9BB279395F695AF
:1022B000879577956795B795F111F8CFFAF4BB0F2D
:1022C00011F460FF1BC06F5F7F4F8F4F9F4F16C091
:1022D000882311F096E911C0772321F09EE8872F1B
:1022E000762F05C0662371F096E8862F70E060E0D7
:1022F0002AF09A95660F771F881FDAF7880F969550
:10230000879597F9089597F99F6780E870E060E0F6
:1023100008959FEF80EC089500240A94161617067E
:1023200018060906089500240A94121613061406C6
:1023300005060895092E0394000C11F4882352F029
:10234000BB0F40F4BF2B11F460FF04C06F5F7F4FE1
:102350008F4F9F4F089557FD9058440F551F59F0C8
:102360005F3F71F04795880F97FB991F61F09F3F82
:1023700079F087950895121613061406551FF2CFAB
:102380004695F1DF08C0161617061806991FF1CFFB
:1023900086957105610508940895E894BB27662722
:1023A0007727CB0197F908950E94E7110C949A11B1
:1023B0000E948C1138F00E94931120F0952311F0A7
:1023C0000C9483110C94891111240C94CE110E9449
:1023D000AB1170F3959FC1F3950F50E0551F629FAD
:1023E000F001729FBB27F00DB11D639FAA27F00D6E
:1023F000B11DAA1F649F6627B00DA11D661F829F95
:102400002227B00DA11D621F739FB00DA11D621F79
:10241000839FA00D611D221F749F3327A00D611D96
:10242000231F849F600D211D822F762F6A2F112478
:102430009F5750409AF0F1F088234AF0EE0FFF1FAB
:10244000BB1F661F771F881F91505040A9F79E3F02
:10245000510580F00C9483110C94CE115F3FE4F38E
:10246000983ED4F3869577956795B795F795E79558
:102470009F5FC1F7FE2B880F911D9695879597F961
:10248000089581E090E0F8940C944612F894FFCF00
:10249000FFFFFFFF00E100000000000000C180819D
:1024A0000000000000000046013F02C5025C016719
:1024B00001ED02C902000000000C02DF013C02B382
:1024C00001D701C301B4014572726F723A20616392
:1024D0007469766550574D50696E206973207A652E
:1024E000726F0073657475702066696E69736865D4
:1024F0006400446972656374696F6E206973206E4D
:102500006F773A0041637469766550574D70696E14
:10251000206973206E6F773A0056616375756D2080
:102520006D6F746F7220736574757020636F6D705A
:102530006C657465004C756B65206D6F746F7220EF
:10254000736574757020636F6D706C657465004998
:102550006E7075747320616E64206F75747075741D
:102560007320736574757020636F6D706C6574652E
:102570000046756C6E6573732073656E736F7220A1
:10258000736574757020636F6D706C65746500534E
:1025900074617274757020726F7574696E652063F2
:1025A0006F6D706C6574650076616375756D206F15
:1025B0006E200076616375756D206F6666006F70C2
:1025C000656E2000636C6F736520007661637575BE
:1025D0006D206F6666200053746F702061742074E4
:1025E0006F70200020426F6F7374200076616375F6
:1025F000756D20626567696E20000D0A006E6F20A0
:0A260000627574746F6E73200000A1
:00000001FF
