:100000000C94F2000C941A010C941A010C941A012D
:100010000C941A010C941A010C941A010C941A01F4
:100020000C941A010C941A010C946E030C94E003C6
:100030000C941A010C941A010C941A010C941A01D4
:100040000C941A010C9410060C941A010C941A01C9
:100050000C941A010C941A010C941A010C942403A8
:100060000C941A010C941A010C941A010C941A01A4
:100070000C941A010C941A010C941A010C941A0194
:100080000C941A010C941A010C941A010C941A0184
:100090000C941A010C941A010C941A010C941A0174
:1000A0000C941A010C941A010C941A01E906EC063E
:1000B000DB06DF06E5060D070D070D07F006F40663
:1000C000F806FE0602070D0708077A097F0984096A
:1000D0008E099809E209E209E209A209AC09B60908
:1000E000C009CD09E209D509080B0002020201008E
:1000F000090400000102020000052400100105248B
:1001000001010104240206052406000107058103FC
:1001100010004009040100020A0000000705020265
:100120004000000705830240000004030904120197
:100130000002EF0201404F1B039200010102030184
:10014000537061726B46756E00537061726B4675C9
:100150006E2050726F204D6963726F0000000000C6
:10016000240027002A002D00300000000000250098
:1001700028002B002E003100000000002300260084
:1001800029002C002F0004040404040304050202C7
:100190000202040302020202060606060606040420
:1001A00002020204040408020110408040102040B2
:1001B000804080080204018040201002011080105D
:1001C000204040200000000200090F00000304014D
:1001D000000C000000000000000000000000000013
:1001E0000000660C11241FBECFEFDAE0DEBFCDBFEA
:1001F00011E0A0E0B1E0E2E8FAE102C005900D9262
:10020000A039B107D9F722E0A0E9B1E001C01D9201
:10021000A833B207E1F710E0C2EFD0E004C02197A5
:10022000FE010E94340DC13FD107C9F70E94C70AE1
:100230000C943F0D0C940000409193015091940157
:10024000209191013091920142175307B4F490919B
:10025000E8009570E1F39091E80092FD19C0809359
:10026000F100809193019091940101968F739927E9
:10027000892B19F48EEF8093E8008091930190917F
:1002800094010196909394018093930181E00895E5
:1002900080E00895CF92DF92EF92FF920F931F9329
:1002A000CF93DF931F92CDB7DEB7182F062FE42E22
:1002B000862F880F8E5F99830E941C0183E00E9425
:1002C0001C01F12EC12E9981D92E8C2D8F198017EA
:1002D00098F4F601E7FE02C0849101C080810E947B
:1002E0001C01182F80E00E941C018123FFEFCF1A10
:1002F000DF0A8111EACF01C081E00F90DF91CF9139
:100300001F910F91FF90EF90DF90CF900895DF92B3
:10031000EF92FF920F931F93CF93DF93D82E8A0112
:100320007B01E40EF51EEB01CE15DF0571F0D7FE63
:1003300003C0FE01849101C088810E941C012196A6
:100340008111F2CF8FEF9FEF01C0C801DF91CF91F4
:100350001F910F91FF90EF90DF900895615030F062
:100360002091F100FC0120830196F8CF289884E6C3
:100370008093A2010895CF92DF92EF92FF920F93A4
:100380001F93CF93DF936C017A018B01C0E0D0E023
:10039000CE15DF0589F0D8016D918D01D601ED9163
:1003A000FC910190F081E02DC6010995892B11F493
:1003B0007E0102C02196ECCFC701DF91CF911F9142
:1003C0000F91FF90EF90DF90CF900895CF93DF9340
:1003D0001F92CDB7DEB76983DC01ED91FC910280FD
:1003E000F381E02D41E050E0BE016F5F7F4F099542
:1003F0000F90DF91CF91089583E08093E900809181
:10040000F200882319F08AE38093E8000895FC0144
:100410008485958597FD0BC09FB7F89482E0809303
:10042000E9008091F2009FBF90E0019608959FB788
:10043000F89482E08093E9008091F2009FBF90E001
:100440000895089580E090E008950E943A0D0F937A
:100450001F93CF93DF931F92CDB7DEB782E08983DE
:1004600042E450E068EE70E080E80E9487010E945C
:100470009A08DC0112960D911C9113970115110534
:1004800069F0D801ED91FC910280F381E02DBE016D
:100490006F5F7F4FC801099597FF07C089810F9053
:1004A000DF91CF911F910F910895F801008511857B
:1004B000E5CF8F929F92AF92BF92CF92DF92EF9251
:1004C000FF920F931F93CF93DF935C016B017A012F
:1004D00080910B01882309F45BC08091A3018823DC
:1004E00009F456C08091970180FF05C08091E0001B
:1004F00082608093E000E70110E00AEF83E0882E3D
:100500009AE3992E2097D9F10E94890881110AC097
:10051000015009F43DC061E070E080E090E00E948D
:10052000F409F0CF282F30E0C217D3070CF48C2F3A
:100530004FB7F8948092E9009091E80095FF1DC0B4
:10054000282F30E0C21BD30BF601982F915020F0DA
:1005500081918093F100FACFC20ED31E112319F0BE
:100560009092E80009C08091E80085FD06C0909255
:10057000E80011E0209709F010E04FBFC3CF111140
:10058000C3CF5D9884E6809395011E141F0444F048
:1005900081E090E0F5019383828380E090E001C0E8
:1005A000C701DF91CF911F910F91FF90EF90DF90E6
:1005B000CF90BF90AF909F908F9008950E94890830
:1005C00090E008950F931F93CF93DF931F92CDB7C1
:1005D000DEB78C01FC018485958597FF0EC0CE01A6
:1005E00001960E945F08019719F4298130E002C04A
:1005F0002FEF3FEFF80135872487F8018485958533
:100600000F90DF91CF911F910F910895CF93DF93BA
:100610001F92CDB7DEB7FC018485958597FD05C097
:100620002FEF3FEF358724870BC0CE0101960E9444
:100630005F08019719F4898190E002C08FEF9FEF66
:100640000F90DF91CF9108951F920F920FB60F92E6
:1006500011242F933F938F939F93AF93BF938091D8
:100660009A0190919B01A0919C01B0919D013091C4
:10067000990123E0230F2D3720F40196A11DB11D10
:1006800005C026E8230F0296A11DB11D20939901F4
:1006900080939A0190939B01A0939C01B0939D013C
:1006A00080919E0190919F01A091A001B091A10124
:1006B0000196A11DB11D80939E0190939F01A0936F
:1006C000A001B093A101BF91AF919F918F913F91F4
:1006D0002F910F900FBE0F901F9018951F920F92A1
:1006E0000FB60F9211248F939F938091E100909108
:1006F000E100937F9093E10083FF0FC01092E90027
:1007000091E09093EB001092EC0092E39093ED0057
:100710001092A30198E09093F00082FF20C093E034
:100720009093E9009091F200992319F09AE3909345
:10073000E80090919501992339F09091950191509D
:1007400090939501992389F19091A201992339F011
:100750009091A20191509093A201992341F184FFBD
:1007600010C08091E2008E7E81608093E2008091D3
:10077000E1008F7E8093E100809197018E7E806101
:1007800011C080FF16C08091E2008E7E8061809350
:10079000E2008091E1008E7E8093E10080919701DC
:1007A0008E7E81608093970104C05D9ACDCF289A98
:1007B000D6CF9F918F910F900FBE0F901F901895DD
:1007C0001F920F920FB60F921124CF92DF92EF92E9
:1007D000FF920F931F932F933F934F935F936F93CA
:1007E0007F938F939F93AF93BF93EF93FF93CF9399
:1007F000DF93CDB7DEB76C97DEBFCDBF1092E900B7
:100800008091E80083FFEDC168E0CE0145960E942B
:10081000AE0182EF8093E8008D8987FF05C090913B
:10082000E80090FFFCCF03C09EEF9093E800982F64
:10083000907609F0C6C09E892F89188D91110CC041
:10084000803829F4809198018093F10002C01092C1
:10085000F1001092F10048C1422F50E0512B91302D
:1008600051F4811141C14130510509F03DC18091E0
:1008700098018D7F0BC0933061F4811135C14130F7
:10088000510509F031C180919801826080939801EF
:100890002BC1953041F48091E80080FFFCCF2068A7
:1008A0002093E30021C1963009F05FC0EB8CFC8CF3
:1008B0001092E9001092940110929301123091F578
:1008C00010929201109291010E94270299E0BE01BC
:1008D0006F5F7F4FDB01E92F1D92EA95E9F799835E
:1008E0001A8391E09E8390EA98879AEF99872091E6
:1008F000930130919401275F3F4F3C832B838D837D
:100900001092E9001092940110929301F0929201DA
:10091000E092910149E050E080E00E9487010E944E
:100920002702E2C0F0929201E09291010E949A089F
:10093000DC011296ED90FC901397E114F10409F498
:10094000C0C0D701ED91FC910480F581E02DBE017E
:100950006B5E7F4FC7010995009719F00CF0C4C07A
:10096000C7C0F701E084F184E8CF973009F4C0C034
:10097000983021F481E08093F100B6C0993009F0FD
:10098000B3C0837009F0B4C0EFE0F1E081E021E092
:1009900036E39081992361F08093E9002093EB0086
:1009A00091919093EC003093ED008F5F873089F741
:1009B0008EE78093EA001092EA008F898093A3016A
:1009C00093C08B8D9C8D1092E9001092940110922F
:1009D00093019093920180939101898D811156C06A
:1009E0008E899D89913A59F4813209F081C047E09E
:1009F00050E064E071E080E00E94870175C09132B0
:100A000009F076C0833289F4888D90E0982F88278A
:100A10002F89822BA0E0B0E0809300019093010128
:100A2000A0930201B09303015FC0803269F480910A
:100A3000E80082FFFCCF67E084E091E00E94AE0115
:100A40008BEF8093E80006C0823209F04DC08F8999
:100A500080930B0180919601882319F0EEEFFAE064
:100A600002C0E0E0F8E08091040190910501A091BE
:100A70000601B0910701803B9440A105B10509F042
:100A80007BC080910B0180FF93C076C00E949A08C2
:100A9000DC0112960D911C9113970115110541F17E
:100AA000D801ED91FC910190F081E02DBE016B5ECB
:100AB0007F4FC8010995811117C0F8010085118584
:100AC000ECCF113009F44EC0133091F48F89882394
:100AD00009F445C0823081F440E862E189E491E0A4
:100AE0000E944A01882321F08EEF8093E80079C0AC
:100AF00081E28093EB0075C0813029F440E868E022
:100B000080E491E0EDCF833099F70E949A08DC01F0
:100B10001296ED90FC9013978E010F5F1F4F6801A6
:100B2000E114F10479F0D701ED91FC910680F78191
:100B3000E02DB801C7010995080F111DF701E084E8
:100B4000F184EECFD8011C92F60101900020E9F764
:100B50003197BF016C197D0940E0C601C1CF6AE23F
:100B600071E002C06EE271E06115710509F2FB01EE
:100B7000449150E080E840CF0FB6F894A89580915A
:100B80006000886180936000109260000FBEA8959D
:100B9000EE3F2AE0F20739F08091FE0A9091FF0AB9
:100BA00091838083A1CF1092FF0A1092FE0A9CCFFE
:100BB000EE3F8AE0F80731F0808191819093FF0A3F
:100BC0008093FE0A87E797E7918380839BE088E123
:100BD0000FB6F894A895809360000FBE90936000C4
:100BE00083CF6C960FB6F894DEBF0FBECDBFDF91FA
:100BF000CF91FF91EF91BF91AF919F918F917F9195
:100C00006F915F914F913F912F911F910F91FF90A5
:100C1000EF90DF90CF900F900FBE0F901F90189520
:100C20001F920F920FB60F9211242F933F934F9361
:100C30005F936F937F938F939F93AF93BF93EF9344
:100C4000FF938091900187FF05C01092850010925C
:100C500084001BC020919001022E000C330B809168
:100C6000180290E02817390784F480919001082E2B
:100C7000000C990BFC01EE0FFF1F8E0F9F1FFC0154
:100C8000EC50FE4F808186FD15C0809190018F5FF2
:100C90008093900120919001022E000C330B8091E3
:100CA000180290E028173907C4F4809190018C3025
:100CB00064F113C080919001082E000C990BFC0187
:100CC000EE0FFF1F8E0F9F1FFC01EC50FE4F808127
:100CD00060E08F730E94D708D8CF809184009091F4
:100CE0008500049680349C4918F480E49CE905C092
:100CF0008091840090918500049690938900809360
:100D000088008FEF809390013BC020918400309148
:100D1000850080919001082E000C990BFC01EE0FCC
:100D2000FF1F8E0F9F1FFC01EC50FE4F81819281AF
:100D3000820F931F90938900809388008091900187
:100D4000082E000C990BFC01EE0FFF1F8E0F9F1F4A
:100D5000FC01EC50FE4F808186FF12C08091900113
:100D6000082E000C990BFC01EE0FFF1F8E0F9F1F2A
:100D7000FC01EC50FE4F808161E08F730E94D70828
:100D8000FF91EF91BF91AF919F918F917F916F9163
:100D90005F914F913F912F910F900FBE0F901F9039
:100DA000189590E0FC013197EF30F105B0F5EA5A63
:100DB000FF4F0C94340D809180008F7703C0809199
:100DC00080008F7D80938000089580918000877FD0
:100DD000F9CF84B58F7702C084B58F7D84BD089527
:100DE000809190008F7707C0809190008F7D03C025
:100DF00080919000877F8093900008958091C0003B
:100E00008F7703C08091C0008F7D8093C0000895CC
:100E10008091C200877F8093C20008953FB7F89405
:100E200080919E0190919F01A091A001B091A1019C
:100E300026B5A89B05C02F3F19F00196A11DB11D35
:100E40003FBFBA2FA92F982F8827820F911DA11D70
:100E5000B11DBC01CD0142E0660F771F881F991FAD
:100E60004A95D1F70895BC01009791F0FC010190DB
:100E70000020E9F73197AF01481B590BE091A4011D
:100E8000F091A5010280F381E02D84EA91E00994BC
:100E900080E090E008958F929F92AF92BF92CF92A0
:100EA000DF92EF92FF920F931F93CF93DF93CDB713
:100EB000DEB7A1970FB6F894DEBF0FBECDBF6C01B1
:100EC000990FEE08FF08F7FE31C0E091A401F09100
:100ED000A5010190F081E02D6DE284EA91E0099591
:100EE0008C0122273327A9012C193D094E095F09DE
:100EF00019A2CE0181967C019AE0892E912CA12C19
:100F0000B12CCA01B901A50194010E94F70C605DE2
:100F1000F70162937F01211531054105510589F7DC
:100F2000CF010E943307080F191F1EC0A7019601A9
:100F300019A28E010F5D1F4F8AE0C82ED12CE12C23
:100F4000F12CCA01B901A70196010E94F70C605D5E
:100F5000F80162938F01211531054105510589F78B
:100F6000CF010E9433078C0189E491E00E9433078E
:100F7000800F911FA1960FB6F894DEBF0FBECDBFB4
:100F8000DF91CF911F910F91FF90EF90DF90CF9065
:100F9000BF90AF909F908F900895CF93DF930E9462
:100FA0003307EC0189E491E00E9433078C0F9D1F09
:100FB000DF91CF910895CF92DF92EF92FF92DC0103
:100FC000A03282E0B8070CF03EC0B7FD06C0A53BDA
:100FD000B1052CF0A4EBB0E002C0A0E0B0E080913D
:100FE0002A0228E830E06901C81AD10887FDD394A5
:100FF000CC0CDD1CCC0CDD1C0D2C000CEE08FF080D
:1010000080912B0228E532E0281B310987FD3395BA
:10101000220F331F220F331FA901330F660B770BEB
:101020009A01AB012C193D094E095F090E94EF0C92
:1010300024EB30E040E050E00E94C50CC20ED31E0D
:10104000E41EF51ED601909129029C3098F58091FE
:101050002A0248E850E0481B510987FD5395440F88
:10106000551F440F551FA417B5078CF080912B0214
:1010700028E532E0281B310987FD3395220F331F05
:10108000220F331FAD012A173B070CF4A901425070
:101090005109440F551F2FB7F894892F90E0FC0198
:1010A000EE0FFF1F8E0F9F1FFC01EC50FE4F52836F
:1010B00041832FBFFF90EF90DF90CF900895FC0108
:1010C0008091A301811103C08FEF9FEF08959FB717
:1010D000F89482E08093E9002091F20030E012164B
:1010E000130614F421E030E02115310559F0289859
:1010F00084E68093A2018091F10080838091F200C8
:10110000882319F09FBFC90108958BE68093E800FA
:10111000F9CF2FB7F89483E08093E9009091E8002D
:10112000892F807295FF04C09091F20080E4891BA2
:101130002FBF08958091300281110DC082E080930D
:101140002C0284E080932D0210922F0210922E0226
:1011500081E0809330028CE292E00895CF93DF9398
:10116000282F30E0F901EC53FE4F8491F901EB5543
:10117000FE4FD491F901EA57FE4FC491CC2391F070
:1011800081110E94D106EC2FF0E0EE0FFF1FE8580E
:10119000FE4FA591B491EC91ED2381E090E021F414
:1011A00080E002C080E090E0DF91CF9108951F932E
:1011B000CF93DF93282F30E0F901EC53FE4F849159
:1011C000F901EB55FE4FD491F901EA57FE4FC49156
:1011D000CC23C9F0162F81110E94D106EC2FF0E02C
:1011E000EE0FFF1FE659FE4FA591B4918FB7F8940B
:1011F000111105C09C91ED2FE095E92302C0EC91FF
:10120000ED2BEC938FBFDF91CF911F910895CF937A
:10121000DF9390E0FC01EB55FE4F2491FC01EA576F
:10122000FE4F8491882361F190E0880F991FFC01A3
:10123000E45AFE4FC591D491FC01E659FE4FA591A9
:10124000B491611109C09FB7F894888120958223D9
:101250008883EC912E230BC0623061F49FB7F89421
:101260003881822F809583238883EC912E2B2C93B9
:101270009FBF06C08FB7F894E8812E2B28838FBFBD
:10128000DF91CF9108950F931F93CF93DF93009138
:101290001D0210911E020115110561F480912802B2
:1012A000882341F08CE491E0DF91CF911F910F9161
:1012B0000C94CD07C0912302D091240261E0802FCD
:1012C0000E940709209709F480C0CF3FD10509F497
:1012D0007EC0F801FF27EC53FE4FE4914E2F50E003
:1012E000FA013197EF30F10508F06CC0EB59FF4F70
:1012F0000C94340D84B5806884BDC7BD70C084B5BE
:10130000806284BDC8BD6BC080918000806880937E
:101310008000D0938900C093880061C080918000D4
:10132000806280938000D0938B00C0938A0057C066
:1013300080918000886080938000D0938D00C0935E
:101340008C004DC080919000806880939000D09375
:101350009900C093980043C0809190008062809370
:101360009000D0939B00C0939A0039C08091900068
:10137000886080939000D0939D00C0939C002FC004
:101380008091C00080688093C0008091C0008F7BF6
:101390008093C000C093CF0022C08091C0008062C3
:1013A0008093C000C093D0001AC08091C2008860B2
:1013B0008093C2008091C2008B7F8093C200C09353
:1013C000D2000DC0C038D10514F460E001C061E066
:1013D000802FDF91CF911F910F910C94D708DF914F
:1013E000CF911F910F9108958F929F92AF92BF92CC
:1013F000CF92DF92EF92FF926B017C010E940E0769
:101400004B015C01C114D104E104F104F1F00E942C
:101410000E07DC01CB0188199909AA09BB09883E8E
:101420009340A105B10570F321E0C21AD108E1088B
:10143000F10888EE880E83E0981EA11CB11CC1142F
:10144000D104E104F10419F7DDCFFF90EF90DF90B4
:10145000CF90BF90AF909F908F900895CF93DF93E0
:10146000EC0180912502813009F444C020912302CF
:10147000309124029091280212161306DCF499236D
:1014800019F0C9010E944B07809123029091240218
:10149000049790932402809323020E944309609151
:1014A000260270912702072E000C880B990B0E94D0
:1014B000F409DCCF81E0809325022091190230915C
:1014C0001A0230931E0220931D02992399F088E698
:1014D00091E00E94CD078091250290E00E944B0789
:1014E0008AE791E00E94CD0780911D0290911E0233
:1014F0000E944B078091230290912402C817D907BC
:10150000E4F58091230290912402C817D907E4F5ED
:101510002091280221110E944B0780912302909173
:101520002402049790932402809323020E9443098B
:101530006091260270912702072E000C880B990BF0
:101540000E94F409DECF2091280221110E944B074E
:101550008091230290912402049690932402809318
:1015600023020E9443096091260270912702072EF0
:10157000000C880B990B0E94F40980912302909132
:1015800024028C179D07FCF2DF91CF910895789487
:1015900084B5826084BD84B5816084BD85B5826078
:1015A00085BD85B5816085BD80916E008160809329
:1015B0006E00109281008091810082608093810092
:1015C00080918100816080938100809180008160A2
:1015D000809380008091910082608093910080913F
:1015E0009100816080939100809190008160809350
:1015F00090008091C10084608093C1008091C100FF
:1016000082608093C1008091C10081608093C1009D
:101610008091C30081608093C3008091C00082608C
:101620008093C0008091C20081608093C20080914D
:101630007A00846080937A0080917A00826080933F
:101640007A0080917A00816080937A0080917A009C
:10165000806880937A001092A301109298011092F2
:1016600097018091D70081608093D70080EA8093B2
:10167000D80089B5806189BD89B5826089BD09B40A
:1016800000FEFDCF61E070E080E090E00E94F40990
:101690008091D8008F7C80618093D8008091E00099
:1016A000807F8093E0008091E1008E7E8093E10056
:1016B0008DE08093E200559A209AEEEFFFE7859146
:1016C00094918B3F9C4D19F481E0809396018FEFAC
:1016D0009FEF9093B1018093B00180911902909196
:1016E0001A02009769F061E00E940709C09119028F
:1016F00061E08C2F0E94070960E08C2F0E94D708C0
:1017000080911B0290911C02009769F061E00E9499
:101710000709C0911B0261E08C2F0E94070960E05D
:101720008C2F0E94D70880911F0290912002009771
:1017300041F061E00E94070961E080911F020E9470
:10174000D7088091210290912202009741F061E038
:101750000E94070961E0809121020E94D7088091D0
:101760002802882321F087E291E00E94CD0781E0E2
:101770008093280286E391E00E94CD0760E088E034
:101780000E94070960E087E00E94070960E086E0A8
:101790000E94070961E085E00E94070961E085E099
:1017A0000E94D708809129028C3008F051C061E076
:1017B00089E00E94070980912902E82FF0E09F014B
:1017C000220F331FE20FF31FEC50FE4F9081907CED
:1017D0009960908310922A0210922B026CE00E9472
:1017E000280D9CE0899FB001112440E050E09A014F
:1017F000260F371FF901EE0FFF1F2E0F3F1FF901B4
:10180000EC50FE4F908196FD16C04F5F5F4F4C30FD
:10181000510569F781110FC01092800082E080931A
:1018200081001092850010928400B19A80916F001F
:10183000826080936F00E0912902F0E0CF01880F71
:10184000991FE80FF91FEC50FE4F80818064808360
:10185000C0E0D0E088E00E94AE08019719F48AEF5A
:1018600090E002C080E090E00E942E0A87E00E9493
:10187000AE08019731F580910C0190910D01843BE8
:10188000910579F480E090E00E94DB0768EE73E058
:1018900080E090E00E94F40910920D0110920C017A
:1018A00010C084EB90E00E94DB0768EE73E080E0FC
:1018B00090E00E94F40984EB90E090930D018093F6
:1018C0000C01209739F20E940000C4CF1092A701AA
:1018D0001092A60188EE93E0A0E0B0E08093A8010A
:1018E0009093A901A093AA01B093AB0189E191E083
:1018F0009093A5018093A4018FEF9FEF9093B10186
:101900008093B001809118028C30A0F491E0980F80
:10191000909318028093290290E0FC01EE0FFF1FC4
:101920008E0F9F1FFC01EC50FE4F88EB9BE09283D3
:10193000818303C08FEF809329028AE090E0909327
:101940001A028093190210921C0210921B029093AB
:101950001E0280931D0280E190E09093200280930C
:101960001F028EE090E09093220280932102109259
:1019700024021092230281E08093250285E090E00A
:1019800090932702809326020895052E97FB1EF45C
:1019900000940E94DC0C57FD07D00E94F70C07FC56
:1019A00003D04EF40C94DC0C509540953095219565
:1019B0003F4F4F4F5F4F089590958095709561957B
:1019C0007F4F8F4F9F4F08950E94190DA59F900D37
:1019D000B49F900DA49F800D911D11240895B7FF11
:1019E0000C94E40C0E94E40C821B930B0895A1E27A
:1019F0001A2EAA1BBB1BFD010DC0AA1FBB1FEE1F89
:101A0000FF1FA217B307E407F50720F0A21BB30BD3
:101A1000E40BF50B661F771F881F991F1A9469F74F
:101A200060957095809590959B01AC01BD01CF01AB
:101A30000895A29FB001B39FC001A39F700D811DA7
:101A40001124911DB29F700D811D1124911D0895C7
:101A5000991B79E004C0991F961708F0961B881F00
:101A60007A95C9F780950895EE0FFF1F0590F491C0
:101A7000E02D099481E090E0F8940C943F0DF894E7
:021A8000FFCF96
:101A8200FFFFFFFF00E1000000000000B40000C102
:101A9200808100000000000000E6015902DE02FC25
:101AA2000107020603E20273657475702066696EAF
:101AB200697368656400646562756767696E67204B
:101AC200656E6162656C6564000D0A004572726F35
:101AD200723A2061637469766550574D50696E2081
:101AE2006973207A65726F00446972656374696F05
:101AF2006E206973206E6F773A0041637469766570
:101B020050574D70696E206973206E6F773A0000EE
:00000001FF
